S01F0000496E6C616D6E696E6773757070676966745F325F7630322E737265632E
S214080000F0240720010A0800FD090800FD09080079
S214080010FD090800FD090800FD09080000000000A9
S214080020000000000000000000000000FD090800B5
S214080030FD09080000000000FD090800FD09080089
S214080040FD090800FD090800FD090800FD0908006B
S214080050FD090800FD090800FD090800FD0908005B
S214080060FD090800FD090800000000003108080026
S21408007045080800590808006D0808000000000038
S21408008000000000FD090800FD090800FD09080039
S214080090FD090800FD090800FD090800FD0908001B
S2140800A0FD09080000000000FD090800110308000B
S2140800B0FD090800FD090800FD090800FD090800FB
S2140800C0FD090800FD090800FD090800FD090800EB
S2140800D0FD090800FD090800FD090800FD090800DB
S2140800E0FD090800FD090800FD090800FD090800CB
S2140800F0FD09080008B50548054B1B1A062B00D84D
S21408010008BD044B002BFBD09847F9E7D41208002B
S214080110D71208000000000008B50748074B1B1A4E
S2140801209B1003EBD373591000D108BD044A002A6C
S214080130FBD09047F9E700BFD4120800D412080095
S2140801400000000010B5064C237843B9FFF7D2FF2D
S214080150044B13B10448AFF300800123237010BD8D
S2140801603804072000000000D412080008B5084B21
S2140801701BB108480849AFF300800848036813B164
S214080180074B03B19847BDE80840FFF7C5BF00BF57
S21408019000000000D41208003C040720D41208000F
S2140801A00000000038B525200F4B98470F4C204616
S2140801B00F49104A0023104DA847204600210A463A
S2140801C00B460E4DA847204600210D4B9847204663
S2140801D00A210C4DA84720460B21A8472046002197
S2140801E00A46094B984738BD6909080000000C40C4
S2140801F0007A030A002D3101B1040800050508003D
S214080200E50408002D050800F504080038B5262082
S2140802100C4B98470C4C20460C4B98472046002120
S2140802200B4B9847204601210A460023094DA8474C
S21408023020460021084B984720460021074B984740
S21408024038BD00BF6909080000800C404105080059
S214080250490508007D05080065050800AD05080085
S21408026010B51B200E4B98470E4C204600214FF425
S21408027080420D4B98472046002141F268020B4BFE
S21408028098474FF000620A4B1A6020460021102259
S214080290084B984720460021074B984710BD00BFDB
S2140802A06909080000000840C1090800E5090800B7
S2140802B000E100E0ED090800DD09080008B50D4B6F
S2140802C098470D4B98470B200C4CA0470C20A0478E
S2140802D00D20A0470E20A047094B4FF080621A61F8
S2140802E0C3F8A020074B9847074B9847074B9847F3
S2140802F0FEE700BFDD03080041040800690908009E
S21408030000100E40A50108000D0208006102080052
S2140803102DE9F04383B022480021224B98470190EC
S214080320019B4FF08062204B1A632048204B984769
S2140803301E4D204C2846A04710F0807FFAD01B4858
S2140803401D4B98471D4901F12003043953F8042929
S2140803509A608B42FAD11A4B9847184B18600024BB
S21408036000259946DFF87080164F174E54F8090096
S21408037054F80810B84701462846B04705460434DE
S214080380282CF3D1114B984701461148114B984732
S2140803904FF08062044B5A6303B0BDE8F08300BF99
S2140803A000000840F509080000100E4000000C4048
S2140803B0250508003D0508003905080054040720EF
S2140803C0C10D0800710E0800610C08001111080024
S2140803D000800C40610508008012080010B50E4821
S2140803E00E4B984700203E210D4B98470D4CA047D2
S2140803F00028FCD00C4B98470C4A0D4B9A620D4CC3
S214080400A0470028FCD010200B4B98470B4B98476A
S2140804100148024B984710BD00BD0105CD0B0800EA
S214080420E50808003909080049090800013F0D20B9
S21408043000060E405909080081080800B10A08009D
S21408044010B54FF40042134B5A600B20124CA047CD
S2140804500C20A0470D20A0470E20A0473B204FF0B9
S21408046060510E4CA04755204FF06051A0475620CB
S2140804704FF06051A04768200949A0475C20094909
S214080480A04709484FF440714FF00062074B984761
S21408049010BD00BF501A0E4069090800650608001E
S2140804A07900002801000028000E0E4039070800D1
S2140804B030B4012404600024446040F20225C0F8E9
S2140804C02051C0F80441C0F8144145682B43520037
S2140804D0B1FBF2F14D1E2D02ADB22B434360204610
S2140804E030BC7047436823F01003436043681943E1
S2140804F04160704743681943D201D3B2194341603B
S214080500704700BF10B444682243090601F07064BF
S21408051022431B0703F040531A4342605DF8044B1E
S214080520704700BF02230360704700BF012303FA29
S21408053001F10161704700BF006A7047006B7047A1
S21408054001230360704700BF21B1436843F01003DE
S214080550436003E0436823F01003436000207047BD
S214080560016270474368012906D823F4981343EAC2
S21408057001414160002070470120704710B444686C
S21408058024F07C5424F47F44090289B20C4312B147
S21408059044F4001401E024F400141B0603F07C5312
S2140805A01C43446000205DF8044B7047012905D8B9
S2140805B0012303FA01F1016100207047012070470A
S2140805C04264B1F1805F16D004D8C1B1B1F1006FB2
S2140805D00AD013E0B1F1405F11D0B1F1605F0ED0E0
S2140805E0B1F1205F0AD17047036F016F0B4023EA11
S2140805F00203036702E0036F134303674260704712
S214080600416412F0010F14BF4166016612F00A0F2A
S21408061014BF0162416212F0020F02D0C0F88010C7
S21408062004E012F0080F18BFC0F88410416101609A
S214080630704700BF10B44164019C0CB1416600E0ED
S21408064001660BB1016500E041650AB1016300E08F
S2140806504163016101605DF8044B7047C06C7047E8
S214080660806C704770B582B00D46440904F50014D6
S21408067004F20774660201F0F044B4F1205F30D04B
S21408068006D8B4F1006F0AD0B4F1805F18D049E0FC
S214080690B4F1405F30D0B4F1605F2DD042E000F096
S2140806A01F000124844030464FF0006122461F4B4D
S2140806B0984715F0010F14BF74663466012032E0BF
S2140806C000F01F000124844030464FF08051224637
S2140806D0164B984715F0010F14BF74663466012050
S2140806E021E000F01F010124304604FA01F12A46F1
S2140806F00F4B9847204616E000F01F01012405F02E
S214080700605205EA04030093304604FA01F1B2F198
S214080710605F14BF00220122C5F38003054DA84779
S214080720204600E0002002B070BD00BFC1050800EA
S2140807300106080035060800F0B583B007460E46E1
S214080740154602F0F044B4F1205F26D006D8B4F17E
S214080750006F0AD0B4F1805F13D034E0B4F1405F84
S2140807601FD0B4F1605F1CD02DE04FF00061324618
S214080770164B984715F0010F14BF7E663E6601209B
S21408078022E04FF080513246104B984715F0010F83
S21408079014BF7E663E66012016E00D4B9847012082
S2140807A012E005F0605205F0010300933846314622
S2140807B0B2F1605F14BF00220122C5F38003054C26
S2140807C0A047012000E0002003B0F0BDC1050800E6
S2140807D001060800350608002DE9F04104460E46D5
S2140807E0104B9847054620460F4B9847054017D0AC
S2140807F00E4F07F10C046C3754F80C3CB3420AD180
S21408080054F8081C294206D023683046984754F8FE
S214080810083C25EA0305BC4202D01034002DEBD173
S214080820BDE8F0815D060800610608007C04072024
S21408083008B502480B21024B984708BD000E0E402B
S214080840D907080008B502480C21024B984708BD8E
S21408085000100E40D907080008B502480D21024BC3
S214080860984708BD00120E40D907080008B5024888
S2140808700E21024B984708BD00140E40D907080001
S214080880174B1A6B22F07002104318639B6E13F016
S214080890080F09D14FF40063114901E0013B19D054
S2140808A08A6E12F0080FF9D00D4B1A6B22F003026D
S2140808B042F002021A63986E10F008000CD14FF44A
S2140808C00063074901E0013B08D08A6E12F0080F62
S2140808D0F9D0704701207047002070470120704704
S2140808E000060E4038B111490B6A114A1A40114BDE
S2140808F013430B6270470D4A136A23F45C1323F004
S214080900030343F45C1343F00103090289B20B4363
S2140809101362936E13F0010FFBD0044A136A43F078
S2140809209B7343F480331362704700BF00060E4083
S214080930FCFFC8FE02003701024B986E00F48030B8
S214080940704700BF00060E404FF00052014B9A62F7
S214080950704700BF00060E40024B986E00F002007B
S214080960704700BF00060E402C2820D81F280DD838
S214080970124B9A69012383401A40934219D00123E7
S21408098003FA00F00D4B1861002070470B4BD3F8A4
S21408099008212038012383401A4093420BD00123B4
S2140809A003FA00F0054BC3F8000100207047012049
S2140809B07047002070470020704700BF00060E40B2
S2140809C010B489014318022444504FF0FF3199624D
S2140809D0196A5A605DF8044B704700BF8901052301
S2140809E04350704700EB8111CA61704700EB8111D4
S2140809F04A62704700EB8111086A7047FEE700BF3D
S214080A0010B51E4B1E4A9A4203D01E4B1B4A9A42EA
S214080A1004D31D4B1D4A9A420FD31AE01C4B1D4C9B
S214080A20E41A24F0030404340023144814495A58DA
S214080A301A500433A342FAD1EBE7174B1749C91AE1
S214080A4021F003011A1D1144002243F8042F8B429B
S214080A50FBD1134A22F0604323F07F0311498B60D1
S214080A6002F16042B2F5801F03D28A6842F0005253
S214080A708A600D4B98470D4B9847FEE70000072005
S214080A80D412080038040720EC040720380407208E
S214080A90040007203B04072034040720E704072047
S214080AA00000080000ED00E051110800BD02080033
S214080AB03E4B1B6B03F00303032B5FD8DFE803F002
S214080AC0020E2B2B3A4B5B6913F0800F14BF4FF4C2
S214080AD000424FF4FA42374B1A604FE0334B1B6A1A
S214080AE013F0807F03D0344A324B1A6046E0334A0C
S214080AF0304B1A602D4B1B6A03F07003102B02D084
S214080B00202B04D03AE02E4A2A4B1A6036E02A4AAE
S214080B10284B1A6032E0254B1B6A13F0807F03D0FF
S214080B20254A244B1A6012E0244A224B1A601F4BAF
S214080B301B6A03F07003102B02D0202B04D006E0AB
S214080B401F4A1C4B1A6002E01B4A1A4B1A60174BC6
S214080B501B6B03F00303022B0DD1144B986A996A9A
S214080B60144BC0F30A401A6800FB0222C9B2B2FB53
S214080B70F1F21A6002E0134A0E4B1A600B4B1B6B1D
S214080B8003F07003702B07D10A4B1A680E49A1FBB5
S214080B90020252081A607047044B196B054BC1F3E2
S214080BA002111A68CA401A60704700BF00060E4055
S214080BB0101A0E4000000720001BB70000093D0071
S214080BC000127A00001C4E0EABAAAAAA1B4B98422B
S214080BD006D800231A4A136002F50072136070479D
S214080BE0184B984207D84FF48073154A136002F5DD
S214080BF0007213607047144B984207D84FF400737E
S214080C000F4A136002F50072136070470F4B984244
S214080C1007D84FF440730A4A136002F5007213604F
S214080C2070470B4B984294BF4FF480634FF4A06311
S214080C30034A136002F5007213607047BFEA210189
S214080C40000A0E407FF0FA02FF8FD003FFB3C404F9
S214080C507F4A5D0580F0004002E000BF81F0004159
S214080C6042001FBF5FEA410392EA030F7FEA226C45
S214080C707FEA236C6AD04FEA1262D2EB1363C1BFD5
S214080C80D218414048404140B8BF5B42192B88BF44
S214080C90704710F0004F40F4000020F07F4018BF67
S214080CA0404211F0004F41F4000121F07F4118BF87
S214080CB0494292EA030F3FD0A2F1010241FA03FC2F
S214080CC010EB0C00C3F1200301FA03F100F0004317
S214080CD002D5494260EB4000B0F5000F13D3B0F1DF
S214080CE0807F06D340084FEA310102F10102FE2A4E
S214080CF051D2B1F1004F40EBC25008BF20F00100BE
S214080D0040EA03007047490040EB000010F4000F6B
S214080D10A2F10102EDD1B0FA80FCACF1080CB2EBFE
S214080D200C0200FA0CF0AABF00EBC250524218435D
S214080D30BCBFD0401843704792F0000F81F4000102
S214080D4006BF80F400000132013BB5E74FEA4103D5
S214080D507FEA226C18BF7FEA236C21D092EA030F41
S214080D6004D092F0000F08BF0846704790EA010FBB
S214080D701CBF0020704712F07F4F04D1400028BFE8
S214080D8040F00040704712F100723CBF00F50000CA
S214080D90704700F0004343F0FE4040F40000704700
S214080DA07FEA226216BF08467FEA236301464202AC
S214080DB006BF5FEA412390EA010F40F480007047BF
S214080DC04FF0000304E000BF10F0004348BF404265
S214080DD05FEA000C08BF704743F0964301464FF0A1
S214080DE000001CE050EA010208BF70474FF00003FD
S214080DF00AE000BF50EA010208BF704711F000433E
S214080E0002D5404261EB41015FEA010C02BF84460D
S214080E100146002043F0B64308BFA3F18053A3F56C
S214080E200003BCFA8CF2083AA3EBC25310DB01FAB3
S214080E3002FC634400FA02FCC2F12002BCF1004F37
S214080E4020FA02F243EB020008BF20F001007047C8
S214080E5002F1200201FA02FCC2F1200250EA4C001C
S214080E6021FA02F243EB020008BF20EADC70704762
S214080E704FF0FF0C1CEAD0521EBF1CEAD15392EA70
S214080E800C0F93EA0C0F6FD01A4480EA010C40024C
S214080E9018BF5FEA41211ED04FF0006343EA5010A6
S214080EA043EA5111A0FB01310CF00040B1F5000FE8
S214080EB03EBF490041EAD3715B0040EA010062F197
S214080EC07F02FD2A1DD8B3F1004F40EBC25008BF81
S214080ED020F00100704790F0000F0CF0004C08BF9F
S214080EE049024CEA502040EA51207F3AC2BFD2F16C
S214080EF0FF0340EAC250704740F400004FF000037A
S214080F00013A5DDC12F1190FDCBF00F000407047B3
S214080F10C2F10002410021FA02F1C2F1200200FAF1
S214080F2002FC5FEA310040F1000053EA4C0308BFB8
S214080F3020EADC70704792F0000F00F0004C02BF09
S214080F40400010F4000F013AF9D040EA0C0093F084
S214080F50000F01F0004C02BF490011F4000F013BDE
S214080F60F9D041EA0C018FE70CEAD15392EA0C0F4C
S214080F7018BF93EA0C0F0AD030F0004C18BF31F0B7
S214080F80004CD8D180EA010000F00040704790F08D
S214080F90000F17BF90F0004F084691F0000F91F031
S214080FA0004F14D092EA0C0F01D142020FD193EAF7
S214080FB00C0F03D14B0218BF084608D180EA01007F
S214080FC000F0004040F0FE4040F40000704740F05B
S214080FD0FE4040F4400070474FF0FF0C1CEAD05229
S214080FE01EBF1CEAD15392EA0C0F93EA0C0F69D085
S214080FF0A2EB030280EA010C49024FEA402037D0F0
S2140810004FF0805343EA111143EA10130CF00040E6
S2140810108B4238BF5B0042F17D024FF4000C8B42D6
S21408102024BF5B1A40EA0C00B3EB510F24BFA3EBB6
S214081030510340EA5C00B3EB910F24BFA3EB910386
S21408104040EA9C00B3EBD10F24BFA3EBD10340EAE0
S214081050DC001B0118BF5FEA1C1CE0D1FD2A3FF626
S21408106050AF8B4240EBC25008BF20F001007047DB
S2140810700CF0004C4CEA50207F32C2BFD2F1FF037E
S21408108040EAC250704740F400004FF00003013AAF
S21408109037E792F0000F00F0004C02BF400010F453
S2140810A0000F013AF9D040EA0C0093F0000F01F067
S2140810B0004C02BF490011F4000F013BF9D041EA89
S2140810C00C0195E70CEAD15392EA0C0F08D14202BC
S2140810D07FF47DAF93EA0C0F7FF470AF084676E78F
S2140810E093EA0C0F04D14B023FF44CAF08466EE768
S2140810F030F0004C18BF31F0004CCAD130F0004236
S2140811007FF45CAF31F000437FF43CAF5FE700BF8D
S21408111042000ED2B2F1FE4F0BD34FF09E03B3EB54
S214081120126209D44FEA002343F0004323FA02F080
S21408113070474FF00000704712F1610F01D142026C
S21408114002D14FF0FF3070474FF00000704700BFE5
S21408115070B50E4B0E4D0024ED1AAD101E46AC426F
S21408116004D056F8242090470134F8E700F0A0F899
S214081170084D094B0024ED1AAD101E46AC4204D0AB
S21408118056F8242090470134F8E770BDBC120800D2
S214081190BC120800C4120800BC120800024B13B1A7
S2140811A0024800F005B8704700000000BD110800AE
S2140811B0014600200246034600F016B838B5084D2A
S2140811C0084C641BA41005EB840524B155F8043DAF
S2140811D0013C9847F9E7BDE8384000F073B800BF0F
S2140811E0D0120800D41208002DE9F8439846224B7E
S2140811F006461C680F46D4F84801914618B904F507
S214081200A670C4F8480143681F2B16DD1B4B1BB994
S2140812104FF0FF30BDE8F8834FF4C870AFF3008096
S2140812200028F5D0D4F84811002545600160C4F8B8
S2140812304801C0F88851C0F88C514468A6B101220C
S214081240A24000EB8405C5F88890D0F88811022ED5
S21408125041EA0201C0F88811C5F8088104D1D0F81F
S2140812608C311A43C0F88C21631C0234436040F862
S21408127024700020BDE8F883A812080000000000CB
S214081280CDCCCC3DCDCCCC3DCDCCCC3DCDCCCC3DC9
S214081290CDCCCC3DCDCCCC3DCDCCCC3DCDCCCC3DB9
S2140812A0CDCCCC3DCDCCCC3D100007204300000073
S2140812B0F8B500BFF8BC08BC9E4670479D110800EC
S2140812C06D010800F8B500BFF8BC08BC9E4670471C
S2080812D045010800BF
S2140812D400093D0000000000100007200000000080
S2140812E400000000FC02072064030720CC03072044
S2140812F400000000000000000000000000000000DD
S21408130400000000000000000000000000000000CC
S21408131400000000AC1208000000000000000000F6
S21408132400000000000000000000000000000000AC
S214081334000000000000000000000000000000009C
S214081344000000000000000000000000000000008C
S214081354000000000000000000000000000000007C
S214081364000000000000000000000000000000006C
S214081374000000000000000000000000000000005C
S214081384000000000000000001000000000000004B
S2140813940E33CDAB34126DE6ECDE05000B00000010
S2140813A4000000000000000000000000000000002C
S2140813B4000000000000000000000000000000001C
S2140813C4000000000000000000000000000000000C
S2140813D400000000000000000000000000000000FC
S804080A01E8
