S01F0000496E6C616D6E696E6773757070676966745F325F7630322E737265632E
S214080000A0500720250D0800210D0800210D080026
S214080010210D0800210D0800210D08000000000031
S214080020000000000000000000000000210D08008D
S214080030210D080000000000210D0800210D080011
S214080040210D0800210D0800210D0800210D0800CB
S214080050210D0800210D0800210D0800210D0800BB
S214080060210D0800210D0800000000003D0B0800C7
S214080070510B0800650B0800790B0800000000000B
S21408008000000000210D0800210D0800210D0800C1
S214080090210D0800210D0800210D0800210D08007B
S2140800A0210D080000000000210D0800C105080009
S2140800B0210D0800210D0800210D0800210D08005B
S2140800C0210D0800210D0800210D0800210D08004B
S2140800D0210D0800210D0800210D0800210D08003B
S2140800E0210D0800210D0800210D0800210D08002B
S2140800F0210D080008B50548054B1B1A062B00D825
S21408010008BD044B002BFBD09847F9E7D4590800E4
S214080110D75908000000000008B50748074B1B1A07
S2140801209B1003EBD373591000D108BD044A002A6C
S214080130FBD09047F9E700BFD4590800D459080007
S2140801400000000010B5064C237843B9FFF7D2FF2D
S214080150044B13B10448AFF300800123237010BD8D
S214080160C408072000000000D459080008B5084B4A
S2140801701BB108480849AFF300800848036813B164
S214080180074B03B19847BDE80840FFF7C5BF00BF57
S21408019000000000D4590800C8080720D4590800F1
S2140801A00000000038B525200F4B98470F4C204616
S2140801B00F49104A0023104DA847204600210A463A
S2140801C00B460E4DA847204600210D4B9847204663
S2140801D00A210C4DA84720460721A847204600219B
S2140801E00A46094B984738BD750C080000000C40B5
S2140801F0007A030A002D3101B10708000508080037
S214080200E50708002D080800F507080038B5262079
S2140802100C4B98470C4C20460C4B98472046002120
S2140802200B4B9847204601210A460023094DA8474C
S21408023020460021084B984720460021074B984740
S21408024038BD00BF750C080000800C404D0808003B
S214080250550808008908080071080800B908080049
S21408026010B51B200E4B98470E4C204600214FF425
S21408027080420D4B98472046002141F268020B4BFE
S21408028098474FF000620A4B1A6020460021102259
S214080290084B984720460021074B984710BD00BFDB
S2140802A0750C080000000840CD0C0800090D080071
S2140802B000E100E0110D0800F10C080010B51E2042
S2140802C0084B9847084C204600210A46074B984793
S2140802D020460021064B984720460021054B9847A4
S2140802E010BD00BF750C080000400840CD0C080083
S2140802F0E90C0800F90C0800F8B50446094800217E
S214080300094B98472A2707FB04F7064E0025074C93
S21408031030462946A047B842FAD302480021044B83
S2140803209847F8BD00400840F10C0800010D080089
S214080330F90C08002DE9F04184B007460D46224B1B
S2140803406C46186859689A68DB680FC404EB17137C
S21408035013F8102CD30512015FFA82F825B14FF472
S21408036080011A4A116303E04FF48001174A51636B
S21408037003F0F062154C2263DB4303F0F06363631B
S2140803804FF4001626630120114DA84766636420C3
S214080390A84707F00F0704AB1F4417F8102CD3051F
S2140803A04244D7B203F0F0622263DB4303F0F06303
S2140803B0636326630120A84766636420A847384617
S2140803C004B0BDE8F08100BFC457080000120E4014
S2140803D0F90208002DE9F047344C4FF480072761EE
S2140803E0C4F8A0704FF400152561C4F8A0504FF06B
S2140803F0F0632361C4F8A030656347F230502C4E92
S214080400B04767634FF0806AC4F830A04FF00079B1
S214080410C4F830904FF08078C4F834804FF4000762
S214080420676325630120B047656341F20400B0475F
S214080430C4F830A0C4F83090C4F8348067632563E5
S2140804400120B04765636420B047C4F830A0C4F8FC
S2140804503090C4F83480676325630120B04765632D
S2140804606420B047C4F834A0C4F83090C4F8348088
S214080470676325630120B04765636420B04728207A
S21408048000210C4CA04708200021A047012000218D
S214080490A04740F6B830B04706200021A0470F20F6
S2140804A00021A0470120BDE8F08700BF00120E40DB
S2140804B0F90208003503080008B501200021044B9E
S2140804C098474FF4C860034B9847012008BD00BF03
S2140804D035030800F902080070B50446007838B1FC
S2140804E00126044D3146A84714F8010F0028F9D113
S2140804F0012070BD3503080008B5134B9847134B09
S21408050098470B20124CA0470C20A0470D20A04768
S2140805100E20A0470F4B98470F4B98470F4B98470E
S2140805200F4B98470F4B98470F4B98470F48104B61
S2140805309847C0204FF4FA710E4A0F4CA047CA20BD
S21408054032210E4AA047FEE7DD06080041070800EC
S214080550750C0800A50108000D020800BD02080079
S21408056061020800D5030800B9040800D45708003B
S214080570D9040800E057080081050800E457080079
S21408058030B583B00D4614460021084B98472820FE
S214080590074B9847684607492A462346064CA0470D
S2140805A06846064B984703B030BD00BF35030800C1
S2140805B0F9020800E857080049100800D90408009E
S2140805C038B538480021384B98473848384B98474C
S2140805D0364D384C2846A04710F0807FFAD0334C6A
S2140805E020460A21344B984705462046304B984704
S2140805F0324B1B88324A32F813102944322000FB4B
S21408060001F13048A0FB0141490922F813100133D3
S2140806109BB241F28632934202D8284A138002E0FF
S2140806200022264B1A80254C2288254B33F81210B8
S21408063025482944254B98472388224AA2FB0312BB
S2140806409209C82101FB12339BB24BBB17480721FE
S214080650194B9847312805D8CA2033211C4A1D4B08
S214080660984738BD40F26B73984205D8CA203121A6
S214080670174A184B984738BDB0F52F7F06D2C020CA
S2140806804FF4FA71144A134B984738BD40F2DB53BF
S214080690984205D8C02040F2F3110F4A0D4B9847F0
S2140806A038BD00BF00000840190D080000000C40C7
S2140806B0250808004908080039080800E008072047
S2140806C0E40807201F85EB5100800C406D080800E1
S2140806D0E457080081050800E057080010B50E48E2
S2140806E00E4B984700203E210D4B98470D4CA047CF
S2140806F00028FCD00C4B98470C4A0D4B9A620D4CC0
S214080700A0470028FCD010200B4B98470B4B984767
S2140807100148024B984710BD00BD0105F10E0800C0
S214080720F10B0800450C0800550C0800013F0D2089
S21408073000060E40650C08008D0B0800D50D080055
S21408074010B54FF40042134B5A600B20124CA047CA
S2140807500C20A0470D20A0470E20A0473B204FF0B6
S21408076060510E4CA04755204FF06051A0475620C8
S2140807704FF06051A04768200949A0475C20094906
S214080780A04709484FF440714FF00062074B98475E
S21408079010BD00BF501A0E40750C080071090800FD
S2140807A07900002801000028000E0E40450A0800BF
S2140807B030B4012404600024446040F20225C0F8E6
S2140807C02051C0F80441C0F8144145682B43520034
S2140807D0B1FBF2F14D1E2D02ADB22B43436020460D
S2140807E030BC7047436823F01003436043681943DE
S2140807F04160704743681943D201D3B21943416038
S214080800704700BF10B444682243090601F07064BC
S21408081022431B0703F040531A4342605DF8044B1B
S214080820704700BF02230360704700BF012303FA26
S21408083001F10161704700BF0F2903D8143150F841
S2140808402100704700207047006B70470123036043
S214080850704700BF21B1436843F01003436003E0CC
S214080860436823F010034360002070470162704716
S2140808704368012906D823F4981343EA01414160E6
S214080880002070470120704710B4446824F07C5458
S21408089024F47F44090289B20C4312B144F40014CC
S2140808A001E024F400141B0603F07C531C43446048
S2140808B000205DF8044B7047012905D8012303FA88
S2140808C001F1016100207047012070474264B1F1D0
S2140808D0805F16D004D8C1B1B1F1006F0AD013E01A
S2140808E0B1F1405F11D0B1F1605F0ED0B1F1205F79
S2140808F00AD17047036F016F0B4023EA02030367B0
S21408090002E0036F1343036742607047416412F0C6
S214080910010F14BF4166016612F00A0F14BF016288
S214080920416212F0020F02D0C0F8801004E012F004
S214080930080F18BFC0F8841041610160704700BFF7
S21408094010B44164019C0CB1416600E001660BB12D
S214080950016500E041650AB1016300E04163016199
S21408096001605DF8044B7047C06C7047806C704738
S21408097070B582B00D46440904F5001404F20774F5
S214080980660201F0F044B4F1205F30D006D8B4F126
S214080990006F0AD0B4F1805F18D049E0B4F1405F28
S2140809A030D0B4F1605F2DD042E000F01F00012483
S2140809B0844030464FF0006122461F4B984715F09A
S2140809C0010F14BF74663466012032E000F01F0081
S2140809D00124844030464FF080512246164B9847F3
S2140809E015F0010F14BF74663466012021E000F08C
S2140809F01F010124304604FA01F12A460F4B984796
S214080A00204616E000F01F01012405F0605205EAB2
S214080A1004030093304604FA01F1B2F1605F14BF94
S214080A2000220122C5F38003054DA847204600E0B2
S214080A30002002B070BD00BFCD0808000D090800F0
S214080A4041090800F0B583B007460E46154602F081
S214080A50F044B4F1205F26D006D8B4F1006F0AD06F
S214080A60B4F1805F13D034E0B4F1405F1FD0B4F126
S214080A70605F1CD02DE04FF000613246164B984759
S214080A8015F0010F14BF7E663E66012022E04FF087
S214080A9080513246104B984715F0010F14BF7E66FA
S214080AA03E66012016E00D4B9847012012E005F03F
S214080AB0605205F00103009338463146B2F1605F94
S214080AC014BF00220122C5F38003054CA04701206D
S214080AD000E0002003B0F0BDCD0808000D090800AE
S214080AE0410908002DE9F04104460E46104B984788
S214080AF0054620460F4B9847054017D00E4F07F17E
S214080B000C046C3754F80C3CB3420AD154F8081C51
S214080B10294206D023683046984754F8083C25EA08
S214080B200305BC4202D01034002DEBD1BDE8F0819D
S214080B30690908006D090800F42F072008B502485F
S214080B400B21024B984708BD000E0E40E50A080028
S214080B5008B502480C21024B984708BD00100E4005
S214080B60E50A080008B502480D21024B984708BD5B
S214080B7000120E40E50A080008B502480E21024B8E
S214080B80984708BD00140E40E50A0800174B1A6B74
S214080B9022F07002104318639B6E13F0080F09D1F9
S214080BA04FF40063114901E0013B19D08A6E12F038
S214080BB0080FF9D00D4B1A6B22F0030242F002021E
S214080BC01A63986E10F008000CD14FF400630749BA
S214080BD001E0013B08D08A6E12F0080FF9D0704782
S214080BE001207047002070470120704700060E401D
S214080BF038B111490B6A114A1A40114B13430B625C
S214080C0070470D4A136A23F45C1323F0030343F476
S214080C105C1343F00103090289B20B431362936E17
S214080C2013F0010FFBD0044A136A43F09B7343F496
S214080C3080331362704700BF00060E40FCFFC8FEF4
S214080C4002003701024B986E00F48030704700BFF0
S214080C5000060E404FF00052014B9A62704700BFE4
S214080C6000060E40024B986E00F00200704700BF68
S214080C7000060E402C2820D81F280DD8124B9A693B
S214080C80012383401A40934219D0012303FA00F047
S214080C900D4B1861002070470B4BD3F808212038FD
S214080CA0012383401A4093420BD0012303FA00F035
S214080CB0054BC3F80001002070470120704700204C
S214080CC070470020704700BF00060E4010B4890128
S214080CD04318022444504FF0FF319962196A5A604B
S214080CE05DF8044B704700BFC0F8C410704700BFDB
S214080CF089010523435070478901022343507047F2
S214080D0000EB81110869704700EB8111CA617047D2
S214080D1000EB81114A62704700EB8111086A704740
S214080D20FEE700BF10B51E4B1E4A9A4203D01E4B64
S214080D301B4A9A4204D31D4B1D4A9A420FD31AE007
S214080D401C4B1D4CE41A24F00304043400231448F6
S214080D5014495A581A500433A342FAD1EBE7174BF2
S214080D601749C91A21F003011A1D1144002243F835
S214080D70042F8B42FBD1134A22F0604323F07F03F3
S214080D8011498B6002F16042B2F5801F03D28A686F
S214080D9042F000528A600D4B98470D4B9847FEE785
S214080DA000000720D4590800C4080720A0300720F0
S214080DB0C408072004000720C7080720C008072023
S214080DC09B3007200000080000ED00E0AD0F08008B
S214080DD0F90408003E4B1B6B03F00303032B5FD894
S214080DE0DFE803F0020E2B2B3A4B5B6913F0800FFB
S214080DF014BF4FF400424FF4FA42374B1A604FE0E4
S214080E00334B1B6A13F0807F03D0344A324B1A6088
S214080E1046E0334A304B1A602D4B1B6A03F07003CA
S214080E20102B02D0202B04D03AE02E4A2A4B1A6008
S214080E3036E02A4A284B1A6032E0254B1B6A13F024
S214080E40807F03D0254A244B1A6012E0244A224B9E
S214080E501A601F4B1B6A03F07003102B02D0202B5E
S214080E6004D006E01F4A1C4B1A6002E01B4A1A4BC5
S214080E701A60174B1B6B03F00303022B0DD1144BA0
S214080E80986A996A144BC0F30A401A6800FB022253
S214080E90C9B2B2FBF1F21A6002E0134A0E4B1A60AE
S214080EA00B4B1B6B03F07003702B07D10A4B1A68A9
S214080EB00E49A1FB020252081A607047044B196BD0
S214080EC0054BC1F302111A68CA401A60704700BF82
S214080ED000060E40101A0E4000000720001BB70040
S214080EE000093D0000127A00001C4E0EABAAAAAA02
S214080EF01B4B984206D800231A4A136002F5007264
S214080F0013607047184B984207D84FF48073154AF9
S214080F10136002F5007213607047144B984207D8A6
S214080F204FF400730F4A136002F50072136070479F
S214080F300F4B984207D84FF440730A4A136002F5DD
S214080F400072136070470B4B984294BF4FF480634F
S214080F504FF4A063034A136002F5007213607047EB
S214080F60BFEA2101000A0E407FF0FA02FF8FD00385
S214080F70FFB3C4047F4A5D05094B1B6813B9094AC9
S214080F80074B1A60064B1B681A180749914204DB80
S214080F901046034A1060184670474FF0FF307047F7
S214080FA064300720A0500720FC7F082070B50E4B41
S214080FB00E4D0024ED1AAD101E46AC4204D056F86D
S214080FC0242090470134F8E704F0EEFC084D094B5E
S214080FD00024ED1AAD101E46AC4204D056F8242064
S214080FE090470134F8E770BDB4590800B4590800B2
S214080FF0BC590800B459080002440346934202D07C
S21408100003F8011BFAE770470CB410B59CB01EAB8A
S214081010029106916FF0004153F8042B0491079152
S2140810204FF6FF71ADF816104FF4027402A901933B
S214081030ADF8144000F034F8029B00221A701CB079
S214081040BDE8104002B070470EB400B54FF4027108
S2140810509CB0ADF814106FF00041049107914FF65C
S214081060FF711DABADF81610084953F8042B029013
S2140810700690086802A9019300F012F8029B002265
S2140810801A701CB05DF804EB03B070470800072020
S214081090034613F8012B002AFBD1181A01387047AB
S2140810A02DE9F04FC3B08B4698460B92824601F066
S2140810B02BFF00681890FFF7EBFFBBF80C3010907A
S2140810C0190615D5DBF8103093B95046402101F0C3
S2140810D02DFFCBF80000CBF8100030B90C23CAF867
S2140810E000304FF0FF3000F06EBF4023CBF81430CE
S2140810F000240025CDE90C45002332AE259627931B
S214081100269309931B931A930F930B9B1C4613F86D
S214081110012B1AB90B98251A03D11BE0252AF5D1FD
S214081120F8E7279B0B992B442793269B86E82200F3
S2140811300133072B269301DC083608E0504659464B
S21408114025AA02F0FFFE002840F0358732AE0F9A37
S2140811502A440F922378002B00F0268700230134B8
S2140811608DF877304FF0FF390E931F46651C2478AC
S2140811700B950894089CA4F12002582A00F285834F
S214081180DFE812F06D008303830371008303830393
S21408119083038303830383035B0059008303770079
S2140811A07A0083039F00A200A200A200A200A20069
S2140811B0A200A200A200A200830383038303830382
S2140811C0830383038303830383038303D300FE001D
S2140811D08303FE008303830383038303B60083032A
S2140811E083036B0283038303830383038303BB02A4
S2140811F083038303680083038303830383038303D0
S21408120083038303830383038303C9006500FE0007
S214081210FE00FE00B900650083038303BC00830359
S2140812204C026D028C02C60083039E028303BD0235
S21408123083038303D8022B2307E0D8F8005008F16D
S2140812400402002D0E9511DB90460B9C8EE78DF858
S21408125077306EE0AB4C8DF877301B946EE2002B3F
S21408126008BF2023F1E747F00107EEE76D420E9529
S214081270904647F00407E8E70B9C2578621C2A2D61
S214081280089502D04FF000090BE0D8F8009008F156
S2140812900401B9F1000F88460B92D6DA4FF0FF39F1
S2140812A0D3E7089DA5F13001092906D812F8014BA5
S2140812B00A2000FB09190894F3E749EAE9790B9232
S2140812C058E747F08007C0E700240E94089D0E9C58
S2140812D0A5F130020A2101FB04240B9A0E9412F899
S2140812E0015BA5F1300109290895E8D80B92EDE7CE
S2140812F047F00807A9E747F04007A6E70B9C2278BF
S2140813006C2A02D101340B9402E047F010079CE7E0
S21408131047F0200799E7D8F8003000258DF8A03068
S2140813208DF8775008F10408BAE28DF8773047F060
S2140813301007BA0608D508F1070828F0070303F1CE
S2140813400808D3E900450FE017F0100F08F104036A
S21408135002D0D8F8004005E0D8F8004017F0400F53
S21408136018BF24B2E5179846002C75F1000180F2E4
S21408137010822D23644265EB45058DF8773008E228
S214081380089C08F107088DF877300A9728F00703B5
S2140813901194D3E90045CDE90C45DDE90C0103F1CC
S2140813A0080802F093FD0128DDE90C0114D100229B
S2140813B0002303F0D7FE10B12D238DF87730089D53
S2140813C0514B524A27F08007472DD8BF1A46079236
S2140813D04FF0030900256AE202F078FD58B94C4B35
S2140813E04C4A089C27F08007472CD8BF1A46079215
S2140813F04FF003095AE2B9F1FF3F0AD0089D25F0DD
S2140814002003472B07D1B9F1000F08BF4FF0010999
S21408141001E04FF00609DDE90C23002B47F480773E
S21408142008DA0D990C9801F100412D2412901391B9
S214081430199405E0DDE90C45CDE912450025199516
S214081440089D25F02004462C04D0452C05D109F12A
S214081450010503E04D46032301E04D4602238DE8CF
S21408146028001FAB029320AB039323AB049350468C
S214081470DDE9122300F04BFE472C07900AD10A98A4
S214081480C30707D4239B079D472CC5EB0303099383
S21408149042D12DE0DDF81CC0462CAC4413D1079889
S2140814A00378302B0DD1DDE9120100220023CDF898
S2140814B018C003F04DFEDDF818C010B9C5F10105D7
S2140814C01F951F9B9C44DDE9120100220023CDF8DE
S2140814D018C003F03DFEDDF818C008B1CDF88CC082
S2140814E0239B6345CED25A1C239230221A70F7E704
S2140814F01F9BDC1C01DB4B456EDD089C023C0894F8
S2140815000DE000BF26580800165808001A580800AC
S2140815101E58080022580800089D652D43DC1F9BAE
S214081520089C013B002B1F93BABF5B422D222B223F
S214081530092B8DF884408DF885201DDD0DF192026B
S2140815400A2093FBF0F100FB1133092903F130035D
S214081550144602F801390B46F2DC01F1300304F8B0
S214081560013D0DF186030DF1930294420BD214F857
S214081570012B03F8012BF6E7302213448DF8873049
S2140815808DF8862022AB099D21AA9A1A9146012D2C
S2140815901A92A94403DC0A9D15F0010437D009F114
S2140815A00109002433E0089C662C15D11F9B002BEC
S2140815B009DDB9F1000F02D10A9DE80723D509F124
S2140815C001094B441FE0B9F1000F02D10A9CE1075C
S2140815D015D509F1020316E01F9B099DAB4204DBF3
S2140815E00A9CE2070DD5013306E0002B099CD4BF00
S2140815F0C3F10203012323446725119503E0012361
S21408160001E067241194119D1F9C08959946199D21
S21408161015B12D238DF87730002549E117F0200FF6
S2140816208DF8773008F1040108D00F9CD8F8000030
S214081630E51722462B46C0E900230CE0FB0606D435
S2140816407D0604D5D8F800300F9C1C8003E0D8F837
S21408165000300F9D1D60884657E547F0100717F0C5
S214081660200309D008F1070828F0070303F1080843
S214081670D3E90045002388E017F0100108F10402BA
S21408168007D117F0400304D0B8F80040002590466C
S214081690F0E7D8F800400025904676E0A9483023C1
S2140816A07822D8F800408DF87830002547F00207F1
S2140816B08DF8792008F104081B900223089264E04C
S2140816C0434600251B68A945079308F104088DF8CA
S2140816D077500DDB184629464A4601F02FFE0028AB
S2140816E000F0E480079C001B4845B8BF8146DEE052
S2140816F00798FFF7CDFC8146D9E047F01007BC06EF
S21408170008D508F1070828F0070303F10808D3E905
S21408171000450DE017F0100F08F1040304D1780611
S21408172002D5B8F8004001E0D8F8004000259846F1
S21408173001232AE0834D8DF877301B95B90608D526
S21408174008F1070828F0070303F10808D3E900455D
S2140817500DE017F0100F08F1040304D17A0602D53D
S214081760B8F8004001E0D8F8004000259846FB0786
S2140817700AD554EA050007D0089930238DF8783042
S2140817808DF8791047F00207022300228DF877209B
S21408179000E00123B9F1000FA8BF27F0800754EA3C
S2140817A0050202D1B9F1000F5AD0012B1FD0022B27
S2140817B00DF1C70341D0E10841EA4570E90804F095
S2140817C00702149015913032DDE9144554EA0500F5
S2140817D007931A7003F1FF33EDD1F80707994CD534
S2140817E0302A4AD00793302301F8013C45E0002D03
S2140817F008BF0A2C05D230348DF8C7400DF1C7044F
S2140818003AE00DF1C7000A900A99204607910A2285
S2140818102946002303F0F6FC0A9B303203F8012918
S2140818200A93204629460A22002303F0EBFC0446C6
S2140818300D4654EA0500E7D11FE01B9904F00F0295
S2140818408A5C079303F80129220942EA05702909E8
S21408185016901791DDE9164554EA0502EDD10CE01D
S21408186033B9FB0707D542AC302304F8413D03E003
S21408187032AD079501E032AC0794079C4D460DF152
S214081880C809C4EB0909002412E0089D8DF87730D2
S214081890002D00F089838DF8A05000258DF877502C
S2140818A028A84FF001092C46079001E005462C466B
S2140818B09DF87730A945ACBF494629460A910BB131
S2140818C001310A9117F00203119302D00A980230E8
S2140818D00A9017F08403199341D10E980A99C1EB20
S2140818E0000CBCF1000F3ADD174BBCF1100F33604B
S2140818F01BDD10237360279B10332793269B013329
S214081900072B269301DC08360CE05046594625AAD4
S214081910CDF818C002F016FBDDF818C0002840F015
S2140819204A8332AEACF1100CDEE7279BC6F804C03B
S21408193063442793269B0133072B269306DC083639
S2140819400DE000BF37580800F657080050465946BD
S21408195025AA02F0F7FA002840F02D8332AE9DF84B
S2140819607730BBB10DF17703336001237360279B93
S21408197001332793269B0133072B269301DC083671
S21408198008E05046594625AA02F0DCFA002840F03E
S214081990128332AE119BB3B11EAB33600223736061
S2140819A0279B02332793269B0133072B269301DCBC
S2140819B0083608E05046594625AA02F0C3FA002819
S2140819C040F0F98232AE199B802B3CD10E980A99CA
S2140819D0C1EB000CBCF1000F35DD9C4BBCF1100FC1
S2140819E033601BDD10237360279B10332793269BD9
S2140819F00133072B269301DC08360CE0504659467F
S214081A0025AACDF818C002F09DFADDF818C00028FF
S214081A1040F0D18232AEACF1100CDEE7279BC6F858
S214081A2004C063442793269B0133072B269301DCC7
S214081A30083608E05046594625AA02F083FA0028D8
S214081A4040F0B98232AEC9EB0505002D2EDD7F4B7E
S214081A50102D336016DD10237360279B10332793F1
S214081A60269B0133072B269301DC083608E05046F0
S214081A70594625AA02F066FA002840F09C8232AE43
S214081A80103DE4E7279B75601D44269B2795013388
S214081A90072B269301DC083608E05046594625AA47
S214081AA002F050FA002840F0868232AEFD0505D4D2
S214081AB0079C279B86E810024B44DAE0089D652DB4
S214081AC040F3A781DDE90C010022002303F040FB68
S214081AD0002859D05E4B336001237360279B01337F
S214081AE02793269B0133072B269301DC083608E04C
S214081AF05046594625AA02F025FA002840F05B828F
S214081B0032AE1F9B099CA34202DBFC0740F102820F
S214081B10109C279B189D23442793269B35600133EA
S214081B20072B7460269301DC083608E050465946B1
S214081B3025AA02F007FA002840F03D8232AE099D39
S214081B406C1E002C40F3E681404B102C336016DDEB
S214081B5010237360279B10332793269B0133072B8C
S214081B60269301DC083608E05046594625AA02F0B6
S214081B70E9F9002840F01F8232AE103CE4E7279BC4
S214081B8074601C44279434E11F9B002B73DC304B95
S214081B90336001237360279B01332793269B013309
S214081BA0072B269301DC083608E05046594625AA36
S214081BB002F0C8F9002840F0FE8132AE1F9B23B918
S214081BC0099C14B9F80740F1A581109C279B189D1D
S214081BD023442793269B35600133072B746026938E
S214081BE001DC083608E05046594625AA02F0AAF94C
S214081BF0002840F0E08132AE1F9C6442002C32DDA3
S214081C00124B102C336016DD10237360279B10339D
S214081C102793269B0133072B269301DC083608E01A
S214081C205046594625AA02F08DF9002840F0C3818F
S214081C3032AE103CE4E7279B74601C44269B27942E
S214081C400133072B269305DC08360CE006580800F7
S214081C50485808005046594625AA02F073F9002845
S214081C6040F0A98132AE079D099C35607460279BB9
S214081C7023442793BDE00998079D8146A145A8BF40
S214081C80A146B9F1000F054415DD279B07994B447B
S214081C902793269B86E802020133072B269301DC4E
S214081CA0083608E05046594625AA02F04BF900289F
S214081CB040F0818132AE29EAE979C9EB0409B9F125
S214081CC0000F31DD9A4BB9F1100F336017DD102382
S214081CD07360279B10332793269B0133072B269385
S214081CE001DC083608E05046594625AA02F02AF9CB
S214081CF0002840F0608132AEA9F11009E2E7279B80
S214081D00C6F804904B442793269B0133072B26934B
S214081D1001DC083608E05046594625AA02F012F9B2
S214081D20002840F0488132AE1F9B0998079A8342E4
S214081D30144401DBF90716D5109A279B1899134403
S214081D402793269B31600133072B7260269301DCAC
S214081D50083608E05046594625AA02F0F3F8002847
S214081D6040F0298132AE1F9B09982D1BC31A9D424D
S214081D70A8BF1D46002D14DD279B86E830002B449F
S214081D802793269B0133072B269301DC083608E0A9
S214081D905046594625AA02F0D5F8002840F00B818F
S214081DA032AE1F9B099C25EAE575E31A5D1B002DDC
S214081DB040F3B0805E4B102D336016DD1023736041
S214081DC0279B10332793269B0133072B269301DC8A
S214081DD0083608E05046594625AA02F0B3F8002807
S214081DE040F0E98032AE103DE4E7279B75601D445D
S214081DF02795269B0133072B269340F38A80504667
S214081E00594625AA02F09EF8002840F0D48032AE43
S214081E1080E0099D012D01DCFA076DD5012373606A
S214081E20279B079C01332793269B34600133072B97
S214081E30269301DC083608E05046594625AA02F0E3
S214081E4081F8002840F0B78032AE109C279B189D7A
S214081E5023442793269B35600133072B746026930B
S214081E6001DC083608E05046594625AA02F06AF80A
S214081E70002840F0A08032AEDDE90C0100220023E5
S214081E8003F066F9099D6C1E40B9079D6B1C86E831
S214081E901800279B099C013B234433E0002C34DDC3
S214081EA0234B102C336015DD10237360279B1033EB
S214081EB02793269B0133072B269301DC083607E079
S214081EC05046594625AA02F03DF8002873D132AE8E
S214081ED0103CE5E7279B74601C442794269B013337
S214081EE0072B269310DD5046594625AA02F02AF8F5
S214081EF0002860D132AE08E00123079D7360279B57
S214081F00356001332793E9E7083621AB33601A9C1E
S214081F10ACE608367B070DD40F9D0A980E9C279BC7
S214081F20A042ACBF2D182D190F95002B37D030E0E6
S214081F30065808000E9D0A982C1A002CECDD234B38
S214081F40102C336014DD10237360279B10332793FF
S214081F50269B0133072B269301DC083606E05046FD
S214081F60594625AA01F0EEFF28BB32AE103CE6E73C
S214081F70279B74601C44269B27940133072B2693C3
S214081F80CADD5046594625AA01F0DCFF0028C3D012
S214081F9011E05046594625AA01F0D4FF58B9002347
S214081FA0269332AEFFF7B1B8279B23B15046594661
S214081FB025AA01F0C7FFBBF80C300F9813F0400FA6
S214081FC018BF4FF0FF3043B0BDE8F08FF657080053
S214081FD0024B13B1024800F005B870470000000035
S214081FE0712C0800014600200246034602F016BC83
S214081FF02DE9F74F03690C698046A342C0F2838037
S214082000013CA20001F1140700F114059146009264
S21408201057F824602A44019255F824200136B2FB6A
S214082020F6F6B944002E3BD04FF0000E3A46284646
S214082030F34652F804CB03681FFA8CFA4FEA1C4C96
S2140820400AFB06EA0CFB06FC0CEB1A4C1FFA8AFA8B
S214082050CAEB0B0B4FEA1C4E1FFA83FA1FFA8CFCCE
S214082060DA44CCEB134C0CEB2A4C1FFA8AFA4AEAF1
S2140820700C4A4A454FEA2C4B40F804ABD9D9009A8B
S214082080AB586BB9019A131FAB421A4602D8C8F868
S214082090104005E01268043B002AF8D1013CF3E73B
S2140820A0404601F0AAFB00282BDB01362B46002011
S2140820B057F804CB1A681FFA8CF1411A1FFA82FAED
S2140820C04FEA1C4C5144CCEB124202EB214289B237
S2140820D010144F4541EA024243F8042BE8D955F854
S2140820E0242005EB840362B9043BAB421A4602D8A7
S2140820F0C8F8104005E01268043B002AF8D1013CF5
S214082100F3E7304600E0002003B0BDE8F08F2DE985
S214082110F04F016C9BB08246279CCDE9042351B151
S214082120436C01224B6002FA03F38B6001F060F9FE
S2140821300023CAF840300598002805DA012320F065
S21408214000412360059101E000232360059F9C4A17
S21408215027F000431B0D1B0593421DD1269A42F219
S2140821600F731360049B43B9964B974AC7F3130043
S21408217000280CBF1046184600E09248289F002FFB
S21408218000F06F85C37813B100F1080300E0C31CA4
S214082190289F3B6000F065BDDDE904450022204627
S2140821A02946002302F0D4FF804658B1269F012313
S2140821B03B60289F002F00F051858448386001381E
S2140821C000F04FBD19AB009318AB0193504622465A
S2140821D02B4601F002FCC7F30A5683465EB1C5F3E8
S2140821E0130343F07F51204641F44011A6F2FF3610
S2140821F0CDF854801CE0199B189E1E446FF4826329
S2140822009E4209DB04991F3306F212409B1B21FAF3
S21408221000F09F40384304E06D48049A801B02FA99
S21408222000F002F0B7FC0127A1F1F871013E1597FE
S2140822300022684B02F070FB5BA3D3E9002302F090
S2140822401FFD5BA3D3E9002302F068FB0446304673
S2140822500D4602F0AFFC58A3D3E9002302F010FDA8
S21408226002460B462046294602F058FB04460D4611
S21408227002F0A0FF2946814600222046002302F0ED
S21408228071FF58B1484602F095FC02460B462046B8
S214082290294602F05DFF08B909F1FF39B9F1160FB2
S2140822A00DD84D4B03EBC903D3E90001DDE9042340
S2140822B002F076FF30B109F1FF39002700E0012768
S2140822C0149700E01490189B9E1B013E0A9604D5AE
S2140822D07742089700270A9701E000270897B9F180
S2140822E0000F07DB0A9FCDF844904F440A97002753
S2140822F00E9708E0089FC9EB07070897C9F100077B
S2140823000E9700271197249F092F29D8052FC4BF99
S214082310043F2497249FC8BF0024A7F10203D8BF10
S2140823200124032B21D8DFE803F0060F0204012757
S21408233002E0012709E000270F97259F002F1EDDE2
S2140823400B9707973B461FE000270F97259F4F449C
S2140823500B9701373B460797012BB8BF012313E0BD
S2140823600124002724970F9401E001270F974FF0C8
S214082370FF370B97079700271223259704E00127B6
S2140823800B9707973B4625970022CAF84420042255
S21408239002F11401994221D8DAF8441052000131AA
S2140823A0CAF84410F4E700BF61436F63A787D23FBB
S2140823B0B3C8608B288AC63FFB799F501344D33F27
S2140823C00000F07F535808004A580800495808008B
S2140823D0EEFBFFFF0000F83F705808005046DAF89A
S2140823E0441000F0DFFF079F09900E2FCAF8400040
S2140823F000F26A81002C00F06781B9F1000FDDE970
S2140824000401CDE9120131DD804A09F00F0302EB21
S214082410C3034FEA2914D3E90001CDE90C01E0060D
S2140824200CD5DDE912017A4B04F00F04D3E9082332
S21408243002F050FD0327CDE9040100E00227744DA1
S2140824406CB1E10708D5DDE90C01D5E9002302F0F7
S21408245017FCCDE90C01013764100835F0E7DDE913
S2140824600401DDE90C2302F035FD1BE0C9F1000488
S214082470DCB1664B04F00F0203EBC203DDE9120180
S214082480D3E9002302F0FCFB614D241102274CB16E
S214082490E20704D5D5E90023013702F0F1FB641002
S2140824A00835F4E7CDE9040100E002271499E9B1FC
S2140824B0DDE90445002220462946564B02F052FE26
S2140824C0C8B1079AE2B10B9B002B40F3F98009F1DB
S2140824D0FF3010902946204600224F4B02F0D0FBD2
S2140824E0CDE904010B9901370C910DE0079ACDF858
S2140824F040900C9208E0079BCDF840900C9303E0C0
S2140825000798CDF840900C90384602F053FBDDE96A
S214082510042302F0B5FB0022404B02F0FFF90C9FA3
S2140825200446A1F15075CFB900223D4BDDE9040100
S21408253002F0F2F922462B4606460F4602F030FE17
S214082540002840F05282224605F1004330463946BC
S21408255002F008FE002840F03E82B1E00C9F2B4BAC
S2140825607A1E0F9F03EBC203002F5DD0D3E900232A
S21408257000202C4902F0AEFC22462B4602F0CCF98D
S214082580DDE90467DDF8248004460D463946304602
S21408259002F010FE029002F00DFB02460B46304693
S2140825A0394602F0B9F9DDF808C022460CF13003C6
S2140825B008F8013B2B4606460F4602F0D3FD0028D6
S2140825C040F03A8332463B460020124902F0A4F90E
S2140825D022462B4602F0C6FD002840F0D480099813
S2140825E00C99C0EB08038B426ADA2046294600227B
S2140825F0094B02F045FB002204460D463046394694
S214082600054B02F03DFB06460F46BFE7705808002C
S214082610605908000000F03F0000244000001C40FD
S214082620000014400000E03F2246D3E900012B4694
S21408263002F026FBDDE90467DDF824800C9ACDE974
S2140826401601099C90443946304602F0B3FD05460B
S21408265002F0B0FA02460B463046394602F05CF9FC
S214082660303504F8015B444506460F4621D1002262
S214082670874BDDE9160102F051F902460B46304653
S214082680394602F08DFD00287DD1DDE916230020AD
S2140826907F4902F041F902460B463046394602F0B9
S2140826A061FD68B1A04618F8013C013C302BF9D012
S2140826B0C2E20022774B02F0E3FA06460F46C2E76C
S2140826C0DDE91201CDE90401199B002B7CDBB9F189
S2140826D00E0F79DC704B259F03EBC903002FD3E957
S2140826E0004514DA079F002F11DC40F0768120465B
S2140826F029460022694B02F0C3FADDE9042302F0FA
S21408270045FD079D2C46002840F0698171E1DDF8FB
S2140827102480DDE9046722462B463046394602F017
S214082720D9FB02F047FD049002F044FA22462B46F5
S21408273002F0A6FA02460B463046394602F0ECF896
S214082740049F024607F13006099F08F8016BC7EB9D
S2140827500806079F0B46BE4229D102F0DFF822463C
S2140827602B4606460F4602F01BFD70B93046394622
S21408277022462B4602F0ECFC002800F05F82049FFD
S214082780FB0702D45AE2DDF840904346984618F80C
S214082790012C013B392A06D1099F9F42F6D13022E7
S2140827A009F101093A701A7801321A7046E20022D5
S2140827B0384B02F065FA0022002306460F4602F060
S2140827C0C7FC0028A7D039E20F9F002F30D0249FDF
S2140827D0012F0ADC159F17B103F2334302E0189B5A
S2140827E0C3F136030E9D089E16E0079F7D1E0E9FBA
S2140827F0AF4201DB7D1B06E00E9F0E95EB1B119F7B
S21408280000251F441197079F002F03DA0898002316
S214082810C61B01E0089E079B089F50461F44089762
S2140828200A9F01211F440A9700F0B4FE044602E0FE
S2140828300E9D089E0F9C6EB10A9F002F0ADD3B4630
S214082840089FB342A8BF3346FF1A08970A9FF61A8E
S214082850FF1A0A970E9F002F28DD0F9F07B3002D3B
S21408286010DD21462A46504600F035FF04465A46F3
S2140828702146504600F097FE59460746504600F057
S214082880B7FDBB460E9F7A1B10D0504659460AE045
S2140828900000E03F00002440705808000000144084
S2140828A00E9A5046594600F016FF834650460121B8
S2140828B000F070FE119F0546002F05DD294650469C
S2140828C03A4600F008FF0546249F012F12DC0498BC
S2140828D080B90599C1F3130373B921F000473F0D7A
S2140828E03F0557B1089F013708970A9F01370A978F
S2140828F0012702E0002700E0049F119840B12B69E9
S21408290005EB8303186900F0F8FDC0F1200000E02D
S21408291001200A9B034413F01F030FD0C3F12002C3
S214082920042A09DD08990A9AC3F11C0319441A44B3
S21408293008911E440A9209E008D0134608980A9996
S2140829401C331844194408901E440A91089A002A11
S21408295004DD5946504600F0FDFE83460A9B002BD0
S21408296005DD294650461A4600F0F4FE054614983A
S214082970E0B15846294600F040FF002816DA5946C6
S21408298050460A22002300F03CFD0F9909F1FF3952
S214082990834649B121460A225046002300F031FDFD
S2140829A00B9A0446079201E00B9B079307980028AA
S2140829B029DC2499022926DD88B929460522079BA1
S2140829C0504600F01EFD05462946584600F015FFFD
S2140829D000280EDC03E00C9D00E000252C46259F11
S2140829E0DDF824806FEA07090AE00C9DDDF84090C0
S2140829F02C46099F312307F101083B7009F10109AC
S214082A002746002407E10F98002800F0BB80002E18
S214082A1005DD21465046324600F09CFE04469FB12E
S214082A206168504600F0BEFC22690646023204F190
S214082A300C0192000C3000F08FFC50463146012203
S214082A4000F088FE074600E02746099E29465846B5
S214082A50FFF7CEFA214600F1300C80465846CDF8EE
S214082A6008C000F0CAFE3A4608902946504600F0CC
S214082A70E1FEC3680246DDF808C04BB91146584661
S214082A80039200F0BAFE039A0346DDF808C000E099
S214082A900123504611460393CDF808C000F0A8FC61
S214082AA0039BDDF808C063B9249951B9049800F06F
S214082AB0010232B9BCF1390F35D0089B002B24DC53
S214082AC025E00898002802DA002B08DC1FE023D14E
S214082AD0249909BB049800F00102EAB9F4E75946BC
S214082AE001225046CDF808C000F034FE2946834639
S214082AF000F083FE0028DDF808C003DC07D11CF0D0
S214082B00010F04D0BCF1390F0DD008F1310C06F1D5
S214082B10010886F800C07EE0002B06F1010809DDF2
S214082B20BCF1390F03D13923337001365BE00CF161
S214082B30010368E00999079AC1EB080346469342E1
S214082B4006F801CC3CD059460A220023504600F02D
S214082B5058FCBC428346214650464FF00A024FF0C6
S214082B60000304D100F04DFC044607466EE700F06B
S214082B7048FC394604460A225046002300F041FC29
S214082B80074663E70F9E58462946FFF731FA099F1E
S214082B9000F1300C07F806C0079F0136BE4207DB77
S214082BA0099E012FACBFF61901362746002407E018
S214082BB0594650460A22002300F023FC8346E2E7E3
S214082BC0594601225046CDF808C000F0C3FD2946F4
S214082BD0834600F012FE0028DDF808C003DC14D196
S214082BE01CF0010F11D016F8013CB046392B06F13F
S214082BF0FF3607D10998B042F5D1312309F101090A
S214082C00037008E00133337005E0B04618F8013C5D
S214082C10013E302BF9D05046294600F0E9FB6FB14B
S214082C202CB1BC4203D05046214600F0E1FB50468A
S214082C30394600F0DDFB01E0DDF840905046594685
S214082C4000F0D6FB0023269F88F8003009F1010320
S214082C503B60289F27B1C7F8008001E0024800E0E3
S214082C6009981BB0BDE8F08F48580800AFF30080FD
S214082C7038B5084D084C641BA41005EB840524B130
S214082C8055F8043D013C9847F9E7BDE8384002F09E
S214082C9095BE00BFC8590800CC590800F8B5234DA2
S214082CA00E46044600F07CFBAB685F6827F0030717
S214082CB0BE1B06F6EF7626F47F6626F00F06A6F508
S214082CC08056B6F5805F04DA204600F06AFB0020DE
S214082CD0F8BD2046002101F01BF9AB683B4498423A
S214082CE0F2D12046714201F013F9013010D1204686
S214082CF0002101F00DF9AB68C21A0F2AE4DD0C4971
S214082D0042F0010209685A60401A0A490860DBE77F
S214082D10AB68BF1B47F001075F60064B20461A6882
S214082D20961B1E6000F03DFB0120F8BDB40407208A
S214082D30BC0807206C300720F8B506460D46002963
S214082D4000F0A98000F02CFB55F804CC524CA5F1F5
S214082D5008032CF001029818A1684768884227F0F3
S214082D6003070CF001011BD13A4439B955F8081C81
S214082D705B1A98680A44D968C160886042F0010105
S214082D805960A360454B1B689A4204D3444B3046AF
S214082D901968FFF783FF3046BDE8F84000F001BB2E
S214082DA0476079B955F8085C04F1080C5B1B2A449F
S214082DB09D68654508D0D3F80CC0C5F80CC0CCF89B
S214082DC0085002E0002100E00121C5196D68ED07F2
S214082DD00ED43A44856841B9324FBD4205D1636185
S214082DE023610121DD609D6002E0C068E8608560BF
S214082DF042F0010058609A500029CCD1B2F5007F05
S214082E000ED2D208911001208840616801436160A3
S214082E1004EBC204A268DC609A60A360D360BAE7D9
S214082E20510A042902D89109383115E0142901D825
S214082E305B3111E0542902D8110B6E310CE0B1F564
S214082E40AA7F02D8D10B773106E040F2545081426F
S214082E509ABF910C7C317E2104EBC104A5680E480C
S214082E60A54201D029460BE00122891002FA01F199
S214082E7042680A434260294608E08968A14204D0AD
S214082E80486820F003008242F7D3CD68DD60996079
S214082E90AB60CB607FE7F8BDB4040720C008072006
S214082EA068300720BC04072010B514460AB90B483A
S214082EB010BD10460A4901F03BF80028F7D0204616
S214082EC0064901F035F80028F1D02046054901F0FA
S214082ED02FF80028014818BF002010BDF457080036
S214082EE0575808005E5808000048704738040720FE
S214082EF0014B186A704700BF38040720004870471F
S214082F005C04072000207047004870477C040720B0
S214082F100A460349034608681946FFF7C5BF00BFB7
S214082F2008000720004870477C0407202DE9F74F63
S214082F3001F10B04162C074603D934F0070401D513
S214082F4002E010248C4202D20C233B60DEE13846B5
S214082F5000F026FAB4F5FC7FA34D14D2E20805EB80
S214082F60C203DE689E4206D106F1080376699E42D1
S214082F7008BF023243D07368F268B16823F00303CF
S214082F80CA6091605DE0620A1AD0042A02D8A209D3
S214082F90383218E0142A01D85B3214E0542A02D8D2
S214082FA0220B6E320FE0B2F5AA7F02D8E20B773218
S214082FB009E040F254539A4204D8A20C7C3202E04C
S214082FC03F2200E07E2205EBC203DE689E4215D053
S214082FD0716821F00301081B0F2801DD013A0DE096
S214082FE0002809DBF368B268D3609A6073185A68D9
S214082FF042F001025A6094E1F668E7E701327A493E
S2140830002E6901F10800864286466DD0736823F063
S2140830100303C4EB030CBCF10F0F0DDD33194CF0A2
S214083020010244F0010474604B610B61D86098603B
S2140830305A6043F80CC074E1BCF1000F486108619F
S21408304001DB3344D3E7B3F5007F11D2DB089810D1
S2140830504FF0010C0CFA00FC48684CEA0000486087
S21408306001EBC3018B68F160B3608E60DE603BE005
S214083070580A042802D89809383015E0142801D8C8
S2140830805B3011E0542802D8180B6E300CE0B0F50F
S214083090AA7F02D8D80B773006E040F2545188420F
S2140830A09ABF980C7C307E2005EBC00CDCF8081024
S2140830B0DFF8348161450DD10123801003FA00F052
S2140830C0D8F804300343C8F804300B4608E089688B
S2140830D0614504D0486820F003008342F7D3CB68E4
S2140830E0F360B1609E60CE600121931001FA03F38D
S2140830F069688B425DD80B4206D122F003025B005A
S2140831000B4202F10402FAD005EBC2008046944650
S214083110D8F80C6046452DD0716821F00309C4EB39
S21408312009010F2913DD331944F00104F2687460AD
S21408313056F8080FC260906041F001026B612B617F
S214083140C3F80CE0C3F808E05A6059500CE00029B0
S2140831500EDB06EB09014B6843F001034B60F3688E
S21408316056F8082FD3609A60384600F01AF9DCE063
S214083170F668CFE70CF1010C1CF0030F08F10808FD
S214083180C6D1910704D16A6822EA03026A6005E09C
S214083190A0F108010068013A8842F2D069685B002D
S2140831A08B4206D82BB162460B42ADD104325B0087
S2140831B0FAE7D5F80890D9F8043023F0030BA345AE
S2140831C004D3C4EB0B030F2B00F3A280074909EBCB
S2140831D00B030A68884604EB020AD5F8082401326D
S2140831E006D10AF1100A0BE0B4040720683007205D
S2140831F00AF5805A0AF10F0A2AF47F6A2AF00F0A9B
S21408320038465146019300F083FE421C0646019B51
S2140832106FD0984201D2A9456BD1D8F804209E42B7
S2140832205244C8F8042008D1C6F30B0129B9AB6884
S214083230DA444AF001025A604DE0D5F80814013124
S21408324003D13C4BC3F8086403E0F31A1A44C8F8E1
S214083250042016F007031CBFC3F10803F618B2448F
S21408326003F58053CAF30B0ACAEB030A51463846DD
S21408327000F04EFE431C04BF30464FF0000AD8F854
S2140832800430801B5044534440F00100A945AE600A
S214083290C8F8043070601ED0BBF10F0F02D80123A7
S2140832A0736026E0D9F80430ABF10C0B2BF0070B53
S2140832B003F001034BEA0303C9F80430052209EBBF
S2140832C00B03BBF10F0F5A609A6004D9384609F110
S2140832D00801FFF731FDD8F80430D8F82C209342BF
S2140832E084BF154AD362D8F83020934284BF124A66
S2140832F01363AB685A6822F00302A242C4EB0203C7
S21408330001D30F2B04DC384600F04BF800260CE0FF
S214083310AE6844F0010243F0010334447260AC60C6
S2140833206360384600F03DF80836304603B0BDE81E
S214083330F08F00BFB40407206830072010B5C9B264
S21408334002449042034605D01C7801308C42F8D1DE
S214083350184610BD002010BD10B50023934203D0B8
S214083360CC5CC4540133F9E710BD814270B501D373
S21408337000230EE08C18A042FAD28518134613F1E3
S214083380FF3305D351426618F65C2944CE54F6E757
S21408339070BD934203D0CC5CC4540133F9E770BDCA
S2140833A070477047C36C70B505460C463BB1EA6C6F
S2140833B052F8240060B1016842F8241014E0042191
S2140833C0212201F077FAE8640028F0D1002070BDC9
S2140833D0012101FA04F6721D2846920001F06AFAE5
S2140833E00028F3D04460866000220261C26070BD87
S2140833F031B1C36C4A6853F82200086043F82210BB
S21408340070472DE9F0410C461E460D6907461431F3
S2140834100023086801331FFA80FC000C02FB0C6CC2
S214083420504300EB1C401FFA8CFC060CAB420CEB1E
S214083430004041F8040BECDBD6B1A3689D4212DBD2
S214083440616838460131FFF7ADFF226904F10C01C7
S2140834500232804692000C30FFF77EFF214638463F
S214083460FFF7C6FF444604EB850301355E61256118
S2140834702046BDE8F0812DE9F8431446984603F146
S214083480080209230D4692FBF3F2064601230021A3
S2140834909A4202DD5B000131FAE73046FFF782FF09
S2140834A0089B092C43614FF001030146036111DDB7
S2140834B005F109094F46254417F8013B30460A220C
S2140834C0303BFFF79EFFAF420146F5D109EB0407F4
S2140834D0083F02E005F10A0709242546454509DAAA
S2140834E03B1B5B5D30460A22303BFFF78AFF0135FF
S2140834F00146F3E70846BDE8F883030C1B0413B936
S2140835000004102300E0002310F07F4F04BF0002E1
S214083510083310F0704F04BF0001043310F0404F1A
S21408352004BF80000233002803DB420003D5581C82
S21408353070471846704720207047036813F0070244
S2140835400BD0D90722D49A0703D55B08036001205D
S21408355070479B0803600220704799B209B91B0C94
S214083560102213F0FF0F04BF1B0A0832190704BF06
S2140835701B090432990704BF9B080232D90702D4F4
S2140835805B0805D00132036010467047002070477C
S2140835902020704710B50C460121FFF703FF0122D3
S2140835A04461026110BD2DE9F04F164633690A6979
S2140835B085B09A420D4601DA35460E46D5F8108093
S2140835C03769AB68696808EB07049C42C8BF0131D5
S2140835D0FFF7E8FE00F1140303EB840101911A4695
S2140835E0DDF804A0524503D2002142F8041BF7E791
S2140835F005F1140106F1140201EB880802EB8707AF
S214083600CDF808800397039E1546B24256D2B5F801
S21408361000C00432BCF1000F25D00F461D46002618
S21408362057F8049BD5F800801FFA89FB1FFA88FA1A
S2140836300CFB0BAA4FEA19494FEA18480CFB0988F5
S214083640B24408EB1A481FFA8AFA4AEA084A4FEAC6
S2140836501846DDF80880AB46B8454BF804AB01D9E8
S2140836605D46DDE76E6032F8028CB8F1000F23D0B5
S2140836701E680F461D464FF00009B7F800A0B5F8BB
S21408368002C0B6B208FB0ACCE14446EA0946AC4694
S2140836904CF8046B57F8046BB5F804A0360C08FB16
S2140836A006A6DDF808A006EB194657454FEA164960
S2140836B001D26546E1E76E600433A4E7019B002C5F
S2140836C003DC046105B0BDE8F08F53F8042D002A2A
S2140836D0F7D1013CF3E712F003032DE9F041054664
S2140836E00E46174607D01A4A013B52F823200023F5
S2140836F0FFF787FE0646BF1027D0AC6C74B928467D
S21408370040F27121FFF746FF0023A86404460360D1
S21408371004E07F1019D0206870B10446FB07F8D57E
S214083720314622462846FFF73EFF31468046284661
S214083730FFF75EFE4646ECE7284621462246FFF798
S21408374032FF002320600360E7E73046BDE8F081DB
S214083750605808002DE9F0470C4623694FEA621ABC
S2140837600AEB03094968A3688046154609F101076C
S2140837709F4202DD01315B00FAE74046FFF712FE82
S2140837800023064600F11402534504DA002142F8E5
S21408379023100133F8E720692AEAEA7104F11403D2
S2140837A015F01F0C02EB810103EB800E16D0CCF14E
S2140837B0200A002518680A4600FA0CF0054342F865
S2140837C0045B53F8045B734525FA0AF501D21146E3
S2140837D0F0E74D6045B109F1020705E053F8042B00
S2140837E0734541F8042BF9D3013F4046376121461B
S2140837F0FFF7FEFD3046BDE8F08702690B6910B595
S214083800D21A13D19C00143001F114020319224471
S21408381053F8044D52F8041D8C4203D008D24FF0DA
S214083820FF3010BD9842F3D3002010BD104610BDDF
S214083830012010BD2DE9F04706460C4608461146FD
S2140838401546FFF7DAFF071E08D130463946FFF758
S214083850A9FD012303614761BDE8F08701DB002766
S21408386003E0234601272C461D4661683046FFF7CD
S21408387099FD22692B69143405F1140606EB830AB0
S214083880C76004EB820C00F11403002154F8047B93
S21408389056F8049B1FFA87F81FFA89F541444FEA41
S2140838A01949C5EB0108C9EB174707EB28471FFA64
S2140838B088F83914B24548EA0747254643F8047B92
S2140838C0E4D865450DD255F8044BA6B20E44240C30
S2140838D004EB2644B6B2211446EA044443F8044BE3
S2140838E0EFE753F8041D09B9013AFAE70261BDE8A3
S2140838F0F0870F4B0B40A3F15073002B01DD1946E0
S21408390009E05B421B15132B4FF0000105DC4FF452
S214083910002242FA03F100207047322B4FF00102D2
S214083920DABFC3F1330302FA03F3134618467047A7
S2140839300000F07F2DE9F041066900F1140707EB57
S214083940860656F8044C88462046FFF7D6FDC0F192
S21408395020030A28A6F10405C8F8003014DCBD4286
S214083960C0F10B0188BF56F8085C24FA01FC98BF22
S2140839700025153025FA01F184404CF07F5343F4B6
S214083980401341EA040224E0BD4286BFA6F10805BA
S21408399056F8081C0021B0F10B0615D0B440C0F14B
S2140839A02B0021FA00FC44F07F5444F44014BD4236
S2140839B044EA0C038CBF55F8044C002424FA00F0A3
S2140839C0B14040EA010204E044F07F5343F4401358
S2140839D00A4610461946BDE8F0812DE9F74301214D
S2140839E01D46DDF82890DDF82C801446FFF7DAFC33
S2140839F0C5F30A570646C5F313030FB143F48013FD
S214083A000193D4B102A840F8084D6846FFF795FD23
S214083A10009B48B1019AC0F1200102FA01F1C240A8
S214083A200B437361019200E07361019B002B0CBF8E
S214083A3001240224B361346107E001A8FFF77DFD85
S214083A40019B01247361346120303FB1A7F23347EC
S214083A500744C9F80070C0F135000AE0A0F2324009
S214083A6006EB8403C9F800001869FFF746FDC0EBAB
S214083A704410C8F80000304603B0BDE8F0832DE9CE
S214083A80F3410E4669468046FFF754FF0D46044646
S214083A9001A93046FFF74EFF009F0B4601990246E4
S214083AA07F1AD8F810003169411A07EB411100292E
S214083AB0CCBF05EB0155A3EB01532046294601F080
S214083AC009FA02B0BDE8F081172810B5044605DCEF
S214083AD0074B03EBC004D4E9040110BD05490020D8
S214083AE00022054B01F0CCF8013CF9D110BD00BF0F
S214083AF0605808000000F03F0000244010B5013967
S214083B0002F1140349111269013100EB810103EB3C
S214083B108202934204D253F8044B40F8044BF8E769
S214083B20884203D2002340F8043BF9E710BD00F1B1
S214083B30140200694B11834210B50CDC0CDA11F044
S214083B401F0109D052F8230020FA01F404FA01F103
S214083B5081420ED100E0034602EB830393421946E6
S214083B6005D951F8041C043B0029F7D001E00020D1
S214083B7010BD012010BD00BF2DE9F74F81460C4649
S214083B8029B9114603B0BDE8F04FFFF7CFB9019247
S214083B90FFF706FC019A54F8045C02F10B07162F8F
S214083BA0A4F1080825F0030603D937F0070701D55E
S214083BB002E01027974204D20C23C9F800300020F0
S214083BC080E1BE4280F25681A34908EB0603D1F88D
S214083BD008E08B467345586805D020F00101194463
S214083BE04968C90725D420F00300734500EB060191
S214083BF017D107F1100C61451DDBC91B08EB07053B
S214083C0041F00101CBF80850696054F8043C484676
S214083C1003F001031F4344F8047CFFF7C2FB204669
S214083C2050E1B94207DBDA689B680E46DA609360B3
S214083C3020E100200346E90700F1CB8054F8085C31
S214083C40C5EB0805696821F0030101EB060A002B9D
S214083C5000F08A8073454DD10AEB000307F1100186
S214083C608B42C0F28180A846EA6858F8081FCA60E6
S214083C709160321F242A26D8132A1CD921681B2AA9
S214083C80A9606168E96003D805F11002083413E0FA
S214083C90A168242A2961E168696103D005F1180240
S214083CA0103409E022691834AA6154F8041C05F196
S214083CB02002E96100E042462168116061685160AF
S214083CC0A168916005E0404621460193FFF74DFB49
S214083CD0019BDB1BEA1943F00103CBF8082053606D
S214083CE06B68484603F001031F436F60FFF759FBF4
S214083CF04046E7E00AEB000BBB4535DBDA689B6815
S214083D002846DA60936050F8082FEB68D3609A600C
S214083D10321F242A23D8132A1AD923681B2AAB60F1
S214083D206368EB6003D805F11000083410E0A36858
S214083D30242A2B61E3686B6103D005F11800103460
S214083D4006E0236905F12000AB6163691834EB616E
S214083D502368036063684360A368836002E02146C3
S214083D60FFF703FB5E462EE0BA4532DB284650F8DE
S214083D70082FEB68D3609A60321F242A25D8132AA6
S214083D801AD923681B2AAB606368EB6003D805F171
S214083D901000083410E0A368242A2B61E3686B61DE
S214083DA003D005F11800103406E0236905F1200059
S214083DB0AB6163691834EB6123680360636843602A
S214083DC0A36883605646A84654E02146FFF7CDFA16
S214083DD0F8E748461146FFF7A9F80546002844D0F4
S214083DE054F8043CA0F1080223F0010343449A4225
S214083DF005D150F8043C23F003031E443AE0321F72
S214083E00242A2BD8132A1ED923681B2A0360636822
S214083E10436004D800F1080304F1080215E0A3681B
S214083E20242A8360E368C36004D000F1100304F119
S214083E3010020AE0236904F118020361616900F1BF
S214083E401803416101E0034622461168196051686B
S214083E50596092689A6004E0B40407202146FFF788
S214083E6084FA48462146FEF767FF4846FFF799FA60
S214083E70284627E0F31B0F2BD8F8042013D902F0A6
S214083E80010208EB0701174343F00102C8F8047063
S214083E900B444A605A68484642F001025A600831A4
S214083EA0FEF74AFF09E002F001023243C8F8042090
S214083EB04644736843F0010373604846FFF771FA97
S214083EC008F1080003B0BDE8F08F00BF31F00043EA
S214083ED010B500D178B10C4AA3F5801494420CD9D9
S214083EE0B3F5801F0BD3094A93420AD1D0F10100DB
S214083EF038BF002010BD022010BD042010BD0320CE
S214083F0010BD002010BD00BFFFFFDF7F0000F07F60
S214083F1038B5064C0023054608462360FDF72CF8FE
S214083F20431C02D1236803B12B6038BD9C300720A0
S214083F3010F8012B11F8013B012A28BF9A42F7D046
S214083F40D01A70472DE9F74F804690680C461546FC
S214083F50D2F8009018B1002301931E4608E050607E
S214083F6066E0D9F80030D9F80460019309F1080929
S214083F70002EF6D0A768BE4247D3A28912F4906FE7
S214083F8041D0236821690220C1EB030A636903EB69
S214083F90430393FBF0FB0AF101003044834538BF26
S214083FA08346530540460FD55946FEF7BFFF0746DA
S214083FB098B152462169FFF7CFF9A28922F4906298
S214083FC042F08002A28115E05A46FFF7D5FD074663
S214083FD080B940462169FEF7AFFE0C23C8F80030CA
S214083FE0A3894FF0FF3043F04003A3810023AB6062
S214083FF06B601DE02761CAEB0B0357442760C4F8C3
S21408400014B03746A360BE4200D237463A46206808
S2140840100199FFF7AAF9A368DB1BA36023681F446E
S214084020AB6827609E1BAE60002E9AD16E60304645
S21408403003B0BDE8F08F2DE9F04F1E468B89ADB072
S214084040884619068346029213D5D8F8103083B9E5
S2140840504021FEF76BFFC8F80000C8F8100028B922
S2140840600C23CBF800304FF0FF30D4E34023C8F8D9
S214084070143000231CAA0F921193109394460A93A7
S2140840800593029B1C4613F8012B1AB90298251AA9
S21408409003D11DE0252AF5D1F8E7119B02992B4498
S2140840A01193109B8CE822000133072B109302DC37
S2140840B00CF1080C09E0584641460FAAFFF742FFE4
S2140840C0002840F0A0830DF1700C059A2A4405924A
S2140840D02378002B00F09083002201348DF83720D7
S2140840E04FF0FF3A04921746651C23780295582B22
S2140840F064D02DDC2E2B76D012DC2A2B66D008DC7A
S214084100202B5FD0232B40F0018247F00107029C4A
S214084110EAE72B2B01D11A46F9E72D2B60D0F5E1FB
S214084120392B07DC312B7FDA302B40F0EF8147F054
S2140841308007ECE74F2B00F0E080552B00F020813D
S214084140442B40F0E3818DF8372047F0100794E0C1
S2140841506E2B00F0B6800DDC682B76D005DC632B62
S21408416000F08380642B26D0D0E1692B23D06C2BFB
S2140841706ED0CBE1712B75D013DC6F2B00F0BF80AF
S214084180702B40F0C3813023A0488DF83830782350
S2140841903468002547F002078DF8393004360A904F
S2140841A02EE1752B00F0EE80782B00F00381732B40
S2140841B040F0AC81BFE08DF837205EE08DF8372000
S2140841C0934CFAE0002A08BF2022A0E7331D366881
S2140841D0002E049601DB1E4699E7754204951E4696
S2140841E047F0040793E7029C2378611C2A2B02D029
S2140841F04FF0000A0AE0D6F800A0331DBAF1000F07
S2140842001E46029183DA4FF0FF3A80E7A3F13000AA
S214084210092805D80A2303FB0A0A11F8013BF5E723
S2140842204AEAEA7A029162E700250495049C303B44
S2140842300A2101FB04340299049411F8013BA3F106
S21408424030000928EED80291F0E747F040075EE70D
S214084250029D2B786C2B02D10135029502E047F0BF
S214084260100754E747F0200751E7336800258DF814
S21408427048308DF83750043652E1BA0607D5073667
S21408428026F0070303F10806D3E900450DE017F00A
S214084290100F06F1040301D0346804E0346817F000
S2140842A0400F18BF24B2E5171E46002C75F1000013
S2140842B080F2B0802D23644265EB45058DF83730D3
S2140842C0A8E017F0200F8DF8372006F1040107D074
S2140842D0059C3068E51722462B46C0E900230AE00D
S2140842E0FB0605D47F0603D53368059C1C8002E0D0
S2140842F03368059D1D600E46C3E647F0100717F0A5
S214084300200308D0073626F0070303F10806D3E98A
S2140843100045002375E017F0100106F1040206D1E7
S21408432017F0400303D0348800251646F1E73468B2
S2140843300025164665E0D6F8009000239A4506F153
S21408434004068DF83730484611DB19465246CDF834
S21408435004C0FEF7F3FFDDF804C0002800F0E5808F
S214084360C9EB00005045B8BF82460025DEE0CDF810
S21408437004C0FCF78DFE00258246DDF804C0D5E0B3
S21408438047F01007BD0607D5073626F0070303F1E2
S2140843900806D3E900450BE017F0100F06F10403F2
S2140843A003D17C0601D5348800E0346800251E4613
S2140843B0012326E0154C8DF83720B8060A9407D551
S2140843C0073626F0070202F10806D2E900450BE098
S2140843D017F0100F06F1040203D1790601D53488C8
S2140843E000E0346800251646FA0709D554EA0500A1
S2140843F006D030228DF838208DF8393047F002077D
S214084400022300228DF8372005E000BF3758080041
S214084410265808000123BAF1000FA8BF27F0800726
S21408442054EA050102D1BAF1000F5ED0012B1FD065
S214084430022B0DF16F0345D0E00840EA4571E80805
S21408444004F00702069107903032DDE9064554EA83
S214084450050199461A7003F1FF33EDD1F80749466E
S2140844604ED5302A4CD09946302301F8013C47E017
S214084470002D08BF0A2C05D230348DF86F400DF198
S2140844806F093DE00DF16F020392204629460A2285
S2140844900023CDF804C000F0B5FE039B303203F8C5
S2140844A0012920462946DDF80C900A2203930023AA
S2140844B000F0A8FE04460D4654EA0500DDF804C0E0
S2140844C0E3D11DE00A9904F00F028A5C994603F8C6
S2140844D00129220942EA0570290908900991DDE9AF
S2140844E0084554EA0502EDD10AE03BB9F90705D5B7
S2140844F00DF1B009302309F8413D01E00DF17009CE
S21408450055460DF1700AC9EB0A0A0FE08DF83720F8
S214084510002B00F0718100258DF848308DF8375053
S2140845204FF0010A0DF1480900E005469DF83730BE
S214084530AA45ACBF54462C4603B1013417F0020313
S214084540039318BF023417F084030B933BD10498E7
S214084550031B002B37DDA64A102BCCF800201BDDEA
S2140845601022CCF80420119A10321192109A0132B7
S214084570072A109202DC0CF1080C0BE0584641465C
S2140845800FAA0193FFF7DEFC019B002840F03B8151
S2140845900DF1700C103BDEE7119ACCF8043013448A
S2140845A01193109B0133072B109302DC0CF1080CB7
S2140845B009E0584641460FAAFFF7C4FC002840F019
S2140845C022810DF1700C9DF83730DBB10DF1370301
S2140845D0CCF800300123CCF80430119B013311933A
S2140845E0109B0133072B109302DC0CF1080C09E032
S2140845F0584641460FAAFFF7A5FC002840F003815D
S2140846000DF1700C039BD3B10EABCCF8003002232F
S214084610CCF80430119B02331193109B0133072BFF
S214084620109302DC0CF1080C09E0584641460FAA24
S214084630FFF788FC002840F0E6800DF1700C0B9B15
S214084640802B3FD1049B1B1B002B03933ADD039B57
S214084650102B684BCCF800301BDD1023CCF8043048
S214084660119B10331193109B0133072B109302DC18
S2140846700CF1080C09E0584641460FAAFFF762FC01
S214084680002840F0C0800DF1700C039B103B03938C
S214084690DDE7039B0398CCF80430119B0344119381
S2140846A0109B0133072B109302DC0CF1080C09E071
S2140846B0584641460FAAFFF745FC002840F0A3805D
S2140846C00DF1700CCAEB0505002D34DD494B102D95
S2140846D0CCF8003019DD1023CCF80430119B1033C9
S2140846E01193109B0133072B109302DC0CF1080C76
S2140846F009E0584641460FAAFFF724FC002840F078
S21408470082800DF1700C103DE0E7119BCCF8045048
S2140847101D44109B11950133072B109302DC0CF1F6
S214084720080C08E0584641460FAAFFF70BFC00287D
S21408473069D10DF1700C119B8CE800065344119357
S214084740109B0133072B109302DC0CF1080307E0DB
S214084750584641460FAAFFF7F5FB002853D11CAB75
S2140847607A070AD4059D0498119B8442ACBF2D197C
S2140847702D180595002B35D02EE004990D1B002D1D
S214084780F0DD1B4A102D1A6015DD10225A60119AAA
S21408479010321192109A0132072A109201DC08335F
S2140847A007E0584641460FAAFFF7CCFB00282AD157
S2140847B01CAB103DE5E75D60119B1D44109B1195F1
S2140847C00133072B1093CDDD584641460FAAFFF755
S2140847D0B9FB0028C6D016E0584641460FAAFFF790
S2140847E0B1FB80B9002310930DF1700C49E400BFAB
S2140847F08859080098590800119B23B15846414625
S2140848000FAAFFF79FFBB8F80C30059813F0400F77
S21408481018BF4FF0FF302DB0BDE8F08F2DE9F843F4
S2140848209846224B06461C680F46D4F8480191461F
S21408483018B904F5A670C4F8480143681F2B16DD9E
S2140848401B4B1BB94FF0FF30BDE8F8834FF4C87018
S214084850AFF300800028F5D0D4F84811002545604D
S2140848600160C4F84801C0F88851C0F88C51446803
S214084870A6B10122A24000EB8405C5F88890D0F8BE
S2140848808811022E41EA0201C0F88811C5F808818D
S21408489004D1D0F88C311A43C0F88C21631C02343A
S2140848A0436040F824700020BDE8F883F0570800FD
S2140848B00000000010B55143FEF738FB044620B34D
S2140848C050F8042C22F00302043A242A1AD8132A91
S2140848D012D900211B2A0160416002D800F10803A2
S2140848E00BE0242A8160C16011BF00F1100301614A
S2140848F000F11803416100E0034600221A605A607E
S2140849009A6002E00021FCF777FB204610BD000005
S21408491081F0004102E000BF83F0004330B54FEA63
S21408492041044FEA430594EA050F08BF90EA020FD0
S2140849301FBF54EA000C55EA020C7FEA645C7FEA63
S214084940655C00F0E2804FEA5454D4EB5555B8BF86
S2140849506D420CDD2C4480EA020281EA030382EAF7
S214084960000083EA010180EA020281EA0303362D89
S21408497088BF30BD11F0004F4FEA01314FF4801C5C
S2140849804CEA113102D0404261EB410113F0004F6E
S2140849904FEA03334CEA133302D0524263EB430325
S2140849A094EA050F00F0A780A4F10104D5F1200EC3
S2140849B00DDB02FA0EFC22FA05F2801841F100011E
S2140849C003FA0EF2801843FA05F359410EE0A5F1F2
S2140849D020050EF1200E012A03FA0EFC28BF4CF023
S2140849E0020C43FA05F3C01851EBE37101F00045D9
S2140849F007D54FF0000EDCF1000C7EEB00006EEBE6
S214084A000101B1F5801F1BD3B1F5001F0CD349086F
S214084A105FEA30004FEA3C0C04F101044FEA4452C6
S214084A2012F5800F80F09A80BCF1004F08BF5FEA4D
S214084A30500C50F1000041EB045141EA050130BD2D
S214084A405FEA4C0C404141EB010111F4801FA4F1D0
S214084A500104E9D191F0000F04BF01460020B1FA25
S214084A6081F308BF2033A3F10B03B3F120020CDA5D
S214084A700C3208DD02F1140CC2F10C0201FA0CF03B
S214084A8021FA02F10CE002F11402D8BFC2F1200CA0
S214084A9001FA02F120FA0CFCDCBF41EA0C01904056
S214084AA0E41AA2BF01EB0451294330BD6FEA04049F
S214084AB01F3C1CDA0C340EDC04F11404C4F120028A
S214084AC020FA04F001FA02F340EA030021FA04F39C
S214084AD045EA030130BDC4F10C04C4F1200220FAF3
S214084AE002F001FA04F340EA0300294630BD21FA31
S214084AF004F0294630BD94F0000F83F4801306BFF7
S214084B0081F480110134013D4EE77FEA645C18BFEA
S214084B107FEA655C29D094EA050F08BF90EA020F81
S214084B2005D054EA000C04BF1946104630BD91EA79
S214084B30030F1EBF0021002030BD5FEA545C05D17C
S214084B404000494128BF41F0004130BD14F58004BB
S214084B503CBF01F5801130BD01F0004545F0FE412F
S214084B6041F470014FF0000030BD7FEA645C1ABF64
S214084B70194610467FEA655C1CBF0B46024650EA9B
S214084B80013406BF52EA033591EA030F41F40021C7
S214084B9030BD00BF90F0000F04BF0021704730B54D
S214084BA04FF4806404F132044FF000054FF0000122
S214084BB050E700BF90F0000F04BF0021704730B5E3
S214084BC04FF4806404F1320410F0004548BF4042B8
S214084BD04FF000013EE700BF42004FEAE2014FEA0D
S214084BE031014FEA02701FBF12F07F4393F07F4FE8
S214084BF081F06051704792F0000F14BF93F07F4F1A
S214084C00704730B54FF4607401F0004521F000415C
S214084C1020E700BF50EA010208BF704730B54FF0E2
S214084C2000050AE050EA010208BF704730B511F0E7
S214084C30004502D5404261EB41014FF4806404F11F
S214084C4032045FEA915C3FF4DCAE4FF003025FEAA1
S214084C50DC0C18BF03325FEADC0C18BF033202EB29
S214084C60DC02C2F1200300FA03FC20FA02F001FA83
S214084C7003FE40EA0E0021FA02F11444C1E600BF22
S214084C8070B54FF0FF0C4CF4E06C1CEA11541DBFD5
S214084C901CEA135594EA0C0F95EA0C0F00F0DEF8A0
S214084CA02C4481EA030621EA4C5123EA4C5350EA85
S214084CB0013518BF52EA033541F4801143F48013D6
S214084CC038D0A0FB02CE4FF00005E1FB02E506F067
S214084CD00042E0FB03E54FF00006E1FB03569CF0BC
S214084CE0000F18BF4EF0010EA4F1FF04B6F5007FC2
S214084CF064F5407404D25FEA4E0E6D4146EB060634
S214084D0042EAC62141EA55514FEAC52040EA5E50BC
S214084D104FEACE2EB4F1FD0C88BFBCF5E06F1ED866
S214084D20BEF1004F08BF5FEA500E50F1000041EB9D
S214084D30045170BD06F0004646EA010140EA02004A
S214084D4081EA0301B4EB5C04C2BFD4EB0C0541EA6C
S214084D50045170BD41F480114FF0000E013C00F381
S214084D60AB8014F1360FDEBF002001F0004170BDA5
S214084D70C4F10004203C35DA0C341BDC04F11404BE
S214084D80C4F1200500FA05F320FA04F001FA05F24A
S214084D9040EA020001F0004221F0004110EBD37017
S214084DA021FA04F642EB06015EEA430E08BF20EA43
S214084DB0D37070BDC4F10C04C4F1200500FA04F3E6
S214084DC020FA05F001FA04F240EA020001F0004178
S214084DD010EBD37041F100015EEA430E08BF20EAEB
S214084DE0D37070BDC4F1200500FA05F24EEA020E33
S214084DF020FA04F301FA05F243EA020321FA04F062
S214084E0001F0004121FA04F220EA020000EBD37018
S214084E105EEA430E08BF20EAD37070BD94F0000F18
S214084E200FD101F00046400041EB010111F4801F4C
S214084E3008BF013CF7D041EA060195F0000F18BFFD
S214084E40704703F00046520043EB030313F4801F39
S214084E5008BF013DF7D043EA0603704794EA0C0FF3
S214084E600CEA135518BF95EA0C0F0CD050EA410609
S214084E7018BF52EA4306D1D181EA030101F0004186
S214084E804FF0000070BD50EA410606BF10461946AE
S214084E9052EA430619D094EA0C0F02D150EA0136BA
S214084EA013D195EA0C0F05D152EA03361CBF1046FB
S214084EB019460AD181EA030101F0004141F0FE419A
S214084EC041F470014FF0000070BD41F0FE4141F41E
S214084ED0780170BD70B54FF0FF0C4CF4E06C1CEA1E
S214084EE011541DBF1CEA135594EA0C0F95EA0C0FD3
S214084EF000F0A7F8A4EB050481EA030E52EA03358E
S214084F004FEA013100F088804FEA03334FF08055AE
S214084F1045EA131343EA12634FEA022245EA1115DB
S214084F2045EA10654FEA00260EF000419D4208BF8C
S214084F30964244F1FD0404F5407402D25B084FEA39
S214084F403202B61A65EB03055B084FEA32024FF4E5
S214084F5080104FF4002CB6EB020E75EB030E22BF42
S214084F60B61A754640EA0C005B084FEA3202B6EB02
S214084F70020E75EB030E22BFB61A754640EA5C00B1
S214084F805B084FEA3202B6EB020E75EB030E22BF41
S214084F90B61A754640EA9C005B084FEA3202B6EB42
S214084FA0020E75EB030E22BFB61A754640EADC0001
S214084FB055EA060E18D04FEA051545EA16754FEA63
S214084FC006164FEAC30343EA52734FEAC2025FEA81
S214084FD01C1CC0D111F4801F0BD141EA00014FF010
S214084FE000004FF0004CB6E711F4801F04BF0143E1
S214084FF00020B4F1FD0C88BFBCF5E06F3FF6AFAEFD
S214085000B5EB030C04BFB6EB020C5FEA500C50F18C
S214085010000041EB045170BD0EF0004E4EEA11310F
S21408502014EB5C04C2BFD4EB0C0541EA045170BD16
S21408503041F480114FF0000E013C90E645EA060E5A
S2140850408DE60CEA135594EA0C0F08BF95EA0C0F88
S2140850503FF43BAF94EA0C0F0AD150EA01347FF4D0
S21408506034AF95EA0C0F7FF425AF104619462CE7A7
S21408507095EA0C0F06D152EA03353FF4FDAE10460A
S214085080194622E750EA410618BF52EA43067FF45B
S214085090C5AE50EA41047FF40DAF52EA43057FF4EB
S2140850A0EBAE12E74FF0FF3C06E000BF4FF0010CF6
S2140850B002E000BF4FF0010C4DF804CD4FEA410C5A
S2140850C07FEA6C5C4FEA430C18BF7FEA6C5C1BD027
S2140850D001B050EA410C0CBF52EA430C91EA030FA8
S2140850E002BF90EA020F0020704710F1000F91EA05
S2140850F0030F58BF994208BF90422CBFD8176FEAD3
S214085100E37040F0010070474FEA410C7FEA6C5CA0
S21408511002D150EA013C07D14FEA430C7FEA6C5CA7
S214085120D6D152EA033CD3D05DF8040B704700BFD3
S2140851308446104662468C461946634600E000BF21
S21408514001B5FFF7B7FF002848BF10F1000F01BDF3
S2140851504DF808EDFFF7F4FF0CBF012000205DF8BE
S21408516008FB00BF4DF808EDFFF7EAFF34BF012043
S21408517000205DF808FB00BF4DF808EDFFF7E0FFDC
S21408518094BF012000205DF808FB00BF4DF808ED2D
S214085190FFF7CEFF94BF012000205DF808FB00BF94
S2140851A04DF808EDFFF7C4FF34BF012000205DF876
S2140851B008FB00BF4FEA410212F5001215D211D5BE
S2140851C06FF47873B3EB625212D94FEAC12343F0F7
S2140851D0004343EA505311F0004F23FA02F018BF79
S2140851E0404270474FF00000704750EA013005D142
S2140851F011F0004008BF6FF0004070474FF0000005
S214085200704700BF4BB942B9002908BF002802D032
S2140852104FF0FF31084600F03BB882B0EC462DE967
S214085220005000F01DF8DDF804E002B00CBC704732
S2140852302DE9704F089E14461D468046894600F0A4
S21408524029F804FB01F3A4FB00AB00FB05329344EA
S214085250B8EB0A0869EB0B09C6E90089BDE8708F48
S2140852602DE9704F089E14461D468046894600F074
S21408527061F900FB05F5A0FB04AB04FB0154A3444D
S214085280B8EB0A0869EB0B09C6E90089BDE8708F18
S214085290704700BF00292DE9F00FC0F2A180002456
S2140852A0002BC0F29880154606460F46002B3FD1C5
S2140852B08A4258D9B2FA82F34BB1C3F1200201FAF6
S2140852C003F720FA02F29D4000FA03F61743290C6A
S2140852D0B7FBF1F201FB1277A8B200FB02F34FEA24
S2140852E0164C4CEA0747BB4209D97F1902F1FF3C26
S2140852F080F00581BB4240F20281023A2F44FF1A31
S214085300B7FBF1F301FB137100FB03F0B6B246EAF4
S2140853100141884208D9491903F1FF3780F0F18026
S214085320884240F2EE80023B43EA0242002303E052
S2140853308B420AD900231A461046194614B1404231
S21408534061EB4101BDE8F00F7047B3FA83F8B8F196
S214085350000F40F088808B4202D3824200F2E2803F
S21408536000230122E8E712B90123B3FBF2F5B5FAE8
S21408537085F2002A3AD17F1B280C1FFA85FC0123E8
S214085380B7FBF0F100FB11770CFB01F24FEA164869
S21408539048EA0747BA4207D97F1901F1FF3802D20F
S2140853A0BA4200F2C4804146BF1AB7FBF0F200FBCF
S2140853B012700CFB02FCB6B246EA0040844507D9D8
S2140853C0401902F1FF3702D2844500F2AE803A4611
S2140853D042EA0142B0E7E443524263EB430362E722
S2140853E0404261EB41014FF0FF3459E79540C2F166
S2140853F0200927FA09F126FA09F99740280CB1FB83
S214085400F0F800FB18111FFA85FC0CFB08F349EAB4
S21408541007094FEA194747EA01418B4206FA02F69E
S21408542008D9491908F1FF327AD28B4278D9A8F1FF
S21408543002082944C91AB1FBF0F300FB13170CFB4A
S21408544003F21FFA89F949EA0747BA4207D97F19CA
S21408545003F1FF3160D2BA425ED9023B2F44BF1A2D
S21408546043EA08438CE7C8F1200225FA02F103FA5A
S21408547008FC27FA02F320FA02F207FA08F741EACC
S2140854800C0C4FEA1C49B3FBF9F109FB11331FFA60
S2140854908CFA0AFB01FB17433A0C42EA03439B4586
S2140854A005FA08F008D913EB0C0301F1FF3235D2E0
S2140854B09B4533D902396344CBEB0303B3FBF9F2BC
S2140854C009FB12330AFB02FABFB247EA0347BA459A
S2140854D008D917EB0C0702F1FF331BD2BA4519D9C6
S2140854E0023A674442EA0145A5FB0001CAEB0707F2
S2140854F08F424FF000030AD305D02A461CE76246BF
S214085500FDE63B4610E706FA08F68642F5D26A1E1E
S214085510002311E71A46E5E70B46A0E71146CBE756
S214085520904687E74346424606E7023A50E702397E
S2140855302F4439E72DE9F00F144605460E46002B92
S21408554043D18A4253D9B2FA82F757B1C7F1200637
S21408555020FA06F601FA07F302FA07F400FA07F546
S2140855601E43210CB6FBF1F201FB1266A0B200FB4B
S21408557002F32F0C47EA0646B34209D9361902F158
S214085580FF3780F0FD80B34240F2FA80023A2644A4
S214085590F61AB6FBF1F301FB136100FB03F0ADB29C
S2140855A045EA0141884208D9091903F1FF3680F017
S2140855B0E980884240F2E680023B43EA0242002342
S2140855C010461946BDE8F00F70478B424CD8B3FA20
S2140855D083F6002E4FD18B4202D3824200F2DD8042
S2140855E0BDE8F00F0023012210461946704712B98D
S2140855F00124B4FBF2F4B4FA84F2002A40F0828064
S214085600091B260CA7B20123B1FBF6F006FB101106
S21408561007FB00F24FEA154C4CEA01418A4207D9CB
S214085620091900F1FF3C02D28A4200F2C88060469F
S214085630891AB1FBF6F206FB121107FB02F7ADB2A8
S21408564045EA0145AF4208D92C1902F1FF3180F02E
S2140856509B80A74240F29880023A42EA00421046EF
S2140856601946BDE8F00F704700231A46104619463B
S214085670BDE8F00F7047C6F1200522FA05F703FAD1
S21408568006F421FA05F301FA06FB20FA05F53C4371
S2140856904FEA1448B3FBF8FC08FB1C331FFA84F9DE
S2140856A009FB0CFA45EA0B0B4FEA1B4545EA034390
S2140856B09A4502FA06F204D91B190CF1FF356FD386
S2140856C0AC46CAEB0303B3FBF8F508FB153309FB36
S2140856D005F91FFA8BFB4BEA0347B94504D93F196E
S2140856E005F1FF3362D31D4645EA0C4CACFB02239A
S2140856F0C9EB07079F424FF000054AD346D06246DB
S2140857002B465DE79440C2F1200921FA09FC914036
S21408571020FA09F9260CBCFBF6F806FB18CCA7B24B
S21408572007FB08F349EA01094FEA194141EA0C4C1C
S214085730634500FA02F509D91CEB040C08F1FF32A0
S2140857403BD2634539D9A8F10208A444C3EB0C0C34
S214085750BCFBF6F306FB13C107FB03F21FFA89F935
S21408576049EA01418A4207D9091903F1FF3022D2D2
S2140857708A4220D9023B2144891A43EA084343E770
S2140857803A4605E7334618E70A4666E7B0409042C9
S214085790B5D20CF1FF32002312E7334632460FE744
S2140857A09A458DD9ACF1020C23448AE7B9459AD9B3
S2140857B0023D274498E70346DEE79046C6E70238E8
S2140857C0214435E70008040C020A060E0109050DF7
S2140857D0030B070F44454C415920204543484F00CA
S2140857E06D73000025000000256425732000000066
S2140857F010000720430020202020202020202020E2
S21408580020202020202030303030303030303030EB
S214085810303030303030494E4600696E66004E41B2
S2140858204E006E616E0030313233343536373839D3
S21408583041424344454600303132333435363738F2
S21408584039616263646566003000496E66696E6930
S2140858507479004E614E00504F534958002E000090
S21408586005000000190000007D0000000000000090
S214085870000000000000F03F000000000000244088
S21408588000000000000059400000000000408F4063
S214085890000000000088C34000000000006AF840CE
S2140858A00000000080842E4100000000D0126341F2
S2140858B00000000084D797410000000065CDCD4168
