S01500004C616231635F70726F6A6563742E7372656316
S21408000010290720390D0800350D0800350D0800A1
S214080010350D0800350D0800350D080000000000F5
S214080020000000000000000000000000350D080079
S214080030350D080000000000350D0800350D0800D5
S214080040350D0800350D0800350D0800350D08007B
S214080050350D0800350D0800350D0800350D08006B
S214080060350D0800350D080000000000010B0800DB
S2140800701D0B0800390B0800550B0800000000008F
S21408008000000000350D0800350D0800350D080085
S214080090350D0800350D0800350D0800350D08002B
S2140800A0350D080000000000350D0800350D080065
S2140800B0350D0800350D0800350D0800350D08000B
S2140800C0350D0800350D0800350D0800350D0800FB
S2140800D0350D0800350D0800350D0800350D0800EB
S2140800E0350D0800350D0800350D0800350D0800DB
S2140800F0350D080008B50548054B191A062900D815
S21408010008BD044A002AFBD09047F9E700350800E6
S214080110033508000000000008B50748074B191A01
S2140801208A1002EBD273591000D108BD044A002A7F
S214080130FBD09047F9E700BF0035080000350800F7
S2140801400000000010B5064C237843B9FFF7D2FF2D
S214080150044810B10448AFF300800121217010BD97
S21408016048080720000000000035080008B5084BBE
S2140801701BB108480849AFF300800848016811B168
S214080180074A02B19047BDE80840FFF7C5BF00BF61
S21408019000000000003508004C080720003508005D
S2140801A00000000030B44FF0010404604FF0000473
S2140801B0446040F20225C0F82051C0F80441C0F857
S2140801C0144145682B434FEA4202B1FBF2F101F1B4
S2140801D0FF324FEA026143EA11434360204630BCCF
S2140801E0704700BF43684FEA011101F0100213433D
S2140801F043607047436819434FEAC212D3B21943A3
S2140802004160704710B4446822434FEA016101F028
S214080210706422434FEA037303F040510A43426076
S21408022010BC70474FF00203036070474FF001039D
S21408023003FA01F101617047006A704710B44FEA8B
S214080240811143184FF0020444504FF0FF30986273
S214080250196A5A6010BC7047C0F8C410704700BFCF
S2140802604FEA81114FF00503435070474FEA81115A
S2140802704FF002034350704700EB8111086970473E
S21408028010B54FF01B0040F6B143C0F2080398477C
S2140802904FF00004C4F2080420464FF000010A4656
S2140802A040F23D23C0F20803984720464FF000016D
S2140802B040F25922C0F20802904720464FF000014B
S2140802C040F26D23C0F20803984710BDF8B50446FF
S2140802D04FF00000C4F208004FF0000140F261231E
S2140802E0C0F2080398474FF02A0707FB04F74FF0B9
S2140802F00004C4F208044FF0000640F27925C0F264
S214080300080520463146A847B842FAD34FF0000001
S214080310C4F208004FF0000140F26D22C0F2080255
S2140803209047F8BD2DE9F04184B007460D4643F2E4
S214080330E433C0F208036C46186859689A68DB68A4
S2140803400FC404EB171010F8101C4FEAC1564FEAFA
S21408035001135FFA83F83DB14FF49052C4F20E02CF
S2140803604FF48000106306E04FF49055C4F20E0573
S2140803704FF480046C6306F0F0614FF49054C4F2B6
S2140803800E0421636FEA060606F0F06363634FF413
S214080390001626634FF0010040F2CD25C0F208058E
S2140803A0A84766634FF06400A84707F00F0704AA3B
S2140803B0D01910F8101C4FEAC15308EB0107FFB21A
S2140803C003F0F06222636FEA030000F0F0616163F5
S2140803D026634FF00100A84766634FF06400A847FD
S2140803E0384604B0BDE8F0812DE9F0474FF4905444
S2140803F0C4F20E044FF480072761C4F8A0704FF4C7
S21408040000152561C4F8A0504FF0F0632361C4F8C6
S214080410A030656347F2305040F2CD26C0F2080699
S214080420B04767634FF0806AC4F830A04FF0007991
S214080430C4F830904FF08078C4F834804FF4000742
S214080440676325634FF00100B047656341F2040017
S214080450B047C4F830A0C4F83090C4F83480676356
S21408046025634FF00100B04765634FF06400B0475E
S214080470C4F830A0C4F83090C4F8348067632563A5
S2140804804FF00100B04765634FF06400B047C4F80A
S21408049034A0C4F83090C4F83480676325634FF0FE
S2140804A00100B04765634FF06400B0474FF028007E
S2140804B04FF0000140F22534C0F20804A0474FF080
S2140804C008004FF00001A0474FF001004FF0000170
S2140804D0A04740F6B830B0474FF006004FF000018E
S2140804E0A0474FF00F004FF00001A0474FF0010063
S2140804F0BDE8F08708B54FF001004FF0000140F264
S2140805002533C0F2080398474FF4C86040F2CD215F
S214080510C0F2080188474FF0010008BD70B50446D0
S214080520007858B14FF0010640F22535C0F20805AC
S2140805303146A84714F8010F0028F9D14FF00100FA
S21408054070BD00BF00B585B0024601A843F2F4317D
S214080550C0F2080141F23933C0F20803984701A8EF
S21408056040F21D51C0F2080188474FF0010005B05F
S21408057000BD00BF2DE9F84F40F2E563C0F208035E
S214080580984740F25D70C0F2080080474FF00B00B5
S21408059040F6B144C0F20804A0474FF00C00A0474C
S2140805A04FF00D00A0474FF00E00A04740F2812103
S2140805B0C0F20801884740F2E932C0F208029047C4
S2140805C04FF0000041F22D15C0F20805A84748B9BB
S2140805D043F2F830C0F2080040F21D56C0F2080692
S2140805E0B047FEE743F20040C0F2080040F21D564E
S2140805F0C0F20806B0474FF00006C4F20C0640F2F8
S214080600252BC0F2080B4AF22017C0F2070740F263
S214080610CD2AC0F2080A40F2F549C0F2080940F2AD
S2140806203928C0F208083046D8473846D047C84761
S2140806303046C047044640F24553C0F20803984780
S21408064043F20440C0F2080040F21D55C0F2080507
S214080650A84743F20840C0F20800A847312C05D83E
S21408066043F21040C0F20800A847DCE7B4F52F7F35
S21408067009D243F21840C0F2080040F21D52C0F2F8
S21408068008029047CFE740F2DB518C4209D843F284
S2140806901C40C0F2080040F21D51C0F2080188470D
S2140806A0C1E740F26B72944209D843F22440C0F284
S2140806B0080040F21D55C0F20805A847B3E740F603
S2140806C0C3139C4299BF43F22C40C0F2080043F281
S2140806D03440C0F2080040F21D54C0F20804A04797
S2140806E0A1E700BF10B54FF43D40C0F2015041F2FB
S2140806F03903C0F2080398474FF000004FF03E0158
S21408070040F61142C0F20802904740F68144C0F213
S2140807100804A0470028FCD040F69140C0F2080024
S21408072080474FF4C061C4F20E0143F60173C2F26B
S2140807300D038B6240F6A144C0F20804A0470028C7
S214080740FCD04FF0100040F67132C0F20802904715
S21408075040F67160C0F20800804710BD10B541F63B
S2140807605023C4F20E034FF400425A604FF00B00B9
S21408077040F6B144C0F20804A0474FF00C00A0476A
S2140807804FF00D00A0474FF00E00A0474FF03B007B
S2140807904FF0605140F6E504C0F20804A0474FF059
S2140807A055004FF06051A0474FF056004FF060518B
S2140807B0A0474FF068004FF07901C2F60001A04745
S2140807C04FF05C004FF00101C2F60001A0474FF45D
S2140807D06060C4F20E004FF440714FF0006240F6BD
S2140807E0E513C0F2080398474FF02B004FF000615E
S2140807F0A0474FF02A004FF00061A04710BD00BF89
S2140808000AB1416670470166704700BF4264B1F19D
S214080810805F16D004D8C9B1B1F1006F15D109E0D0
S214080820B1F1405F12D0B1F1605F0FD0B1F1205F37
S2140808300BD17047036F016F0B4023EA020303676F
S21408084003E0036F42EA030101674260704700BF96
S21408085041647047F8B504460D4616461F4640F6EE
S2140808605103C0F20803984720462946069A40F6E0
S2140808700103C0F2080398470FB1256500E06565D7
S2140808800EB1256300E0656325612560F8BD00BFED
S21408089070B504460D46164640F65103C0F20803E6
S2140808A098472046294606F0010240F60103C0F2A2
S2140808B00803984716F00A0F14BF2562656216F0FB
S2140808C0020F02D0C4F8805004E016F0080F18BFD4
S2140808D0C4F880506561256070BD00BFC06C704765
S2140808E0806C7047F0B583B00D464FEA501606F593
S2140808F0001101F207724FEA422605F0F044B4F1FF
S214080900205F42D006D8B4F1006F0AD0B4F1805FF9
S21408091064D120E0B4F1405F46D0B4F1605F5DD1A9
S21408092042E000F01F074FF0010404FA07F73046CC
S2140809304FF000613A4640F60D03C0F208039847A8
S2140809403046394605EA040240F60103C0F20803B9
S2140809509847204644E000F01F004FF0010404FAD0
S21408096000F730464FF080513A4640F60D03C0F285
S214080970080398473046394605EA040240F601035C
S214080980C0F20803984720462AE000F01F024FF0FE
S2140809900104304604FA02F12A4640F69103C0F2F2
S2140809A00803984720461BE000F01F024FF001049A
S2140809B005F0605305EA04010091304604FA02F196
S2140809C0B3F1605F14BF00220122C5F3800340F62E
S2140809D05505C0F20805A847204601E04FF000007C
S2140809E003B0F0BDF0B583B007460E46154602F0D4
S2140809F0F044B4F1205F36D006D8B4F1006F0AD0C0
S214080A00B4F1805F4DD11AE0B4F1405F33D0B4F151
S214080A10605F46D12FE04FF00061324640F60D0386
S214080A20C0F2080398473846314605F0010240F6FA
S214080A300103C0F2080398474FF0010033E04FF077
S214080A408051324640F60D03C0F2080398473846F0
S214080A50314605F0010240F60103C0F20803984744
S214080A604FF001001FE040F69103C0F208039847D4
S214080A704FF0010017E005F0605205F00100009005
S214080A8038463146B2F1605F14BF00220122C5F332
S214080A90800340F65504C0F20804A0474FF0010052
S214080AA001E04FF0000003B0F0BD00BFF8B5044603
S214080AB00E4640F6DD03C0F2080398470546204672
S214080AC040F6E101C0F208018847054014D00B4CF7
S214080AD0274654F80C0CB0420AD154F8081C294290
S214080AE006D022683046904754F8083C25EA0305A5
S214080AF004F11004002DEBD1F8BD00BF70080720E4
S214080B0008B54FF46060C4F20E004FF00B0140F6D3
S214080B10AD23C0F20803984708BD00BF08B54FF4D8
S214080B208050C4F20E004FF00C0140F6AD23C0F220
S214080B300803984708BD00BF08B54FF49050C4F2A4
S214080B400E004FF00D0140F6AD23C0F2080398479B
S214080B5008BD00BF08B54FF4A050C4F20E004FF011
S214080B600E0140F6AD23C0F20803984708BD00BF43
S214080B704FF4C063C4F20E031A6B22F070010843E8
S214080B801863986E10F0080F07D010E000F1FF33D6
S214080B90906E10F0080F38D009E04FF400604FF45C
S214080BA0C062C4F20E02916E11F0080FEED04FF438
S214080BB0C061C4F20E010A6B22F0030343F0020080
S214080BC00863896E11F0080F09D04FF000007047CF
S214080BD003F1FF33916E11F0080F13D009E04FF4BC
S214080BE000634FF4C062C4F20E02906E10F0080F55
S214080BF0EED04FF0000070474FF0010070474FF0FE
S214080C0001007047013BF0D1F9E7581ECBD1F3E756
S214080C1088B14FF4C061C4F20E01086A4FF6FC7240
S214080C20CFF6C86202404FF00203C0F2371342EA1A
S214080C300300086270474FF4C063C4F20E031A6AD2
S214080C4022F45C1020F0030242F45C1040F001022B
S214080C504FEA016142EA114018624FF4C062C4F2DA
S214080C600E02936E13F0010FFBD04FF4C061C4F26E
S214080C700E01086A40F09B7242F480330B6270479C
S214080C804FF4C063C4F20E03986E00F480307047C9
S214080C904FF4C063C4F20E034FF000529A627047D6
S214080CA04FF4C063C4F20E03986E00F0020070475B
S214080CB02C2835D81F2817D84FF4C061C4F20E0167
S214080CC08A694FF0010303FA00F31A4093422AD0C8
S214080CD04FF0010101FA00F04FF4C062C4F20E02B0
S214080CE010614FF0000070474FF4C063C4F20E0363
S214080CF0D3F80821A0F120004FF0010101FA00F115
S214080D000A40914212D04FF0010303FA00F04FF464
S214080D10C062C4F20E02C2F800014FF0000070472D
S214080D204FF0010070474FF0000070474FF000008A
S214080D30704700BFFEE700BF38B540F20003C2F2B6
S214080D40070343F20052C0F208029A4203D0404812
S214080D504049814204D3404B404A9A4225D342E058
S214080D603F4D404C631B23F003054FF0000340F251
S214080D700002C2F2070243F20051C0F2080105F170
S214080D800400C5F380045D589D5003F104038342B4
S214080D9055D1E0E75D589D5003F104035C589C501C
S214080DA003F104038342F5D1D5E72F4D2F49481B9D
S214080DB020F0030440F64803C2F20703E2184FF097
S214080DC00001501BA0F10400C0F3800445F8041F7E
S214080DD095422DD107E005F10403696005F1080581
S214080DE059609542F7D140F20005C0F2080525F093
S214080DF0604222F07F014FF46D40CEF20000816021
S214080E0005F16044B4F5801F07D24FF46D43CEF267
S214080E1000039D6845F000529A6041F2AD21C0F289
S214080E200801884740F27550C0F208008047FEE780
S214080E30002CD0D045F8041F9542CCD1D3E7002C1F
S214080E40A8D05C589C5003F104038342A2D182E7E1
S214080E504808072000000720100907204808072030
S214080E60040007204B080720440807200B09072022
S214080E704FF4C063C4F20E03186B00F00301032995
S214080E8000F2B180DFE801F002144F4F41F610205F
S214080E90C4F20E00416911F0800F40F20003C2F25E
S214080EA0070314BF4FF400424FF4FA421A609AE060
S214080EB04FF4C063C4F20E03186A10F0807F09D09E
S214080EC04FF4D853C0F2B70340F20002C2F207024A
S214080ED0136088E04FF41061C0F23D0140F2000252
S214080EE0C2F2070211604FF4C063C4F20E03186A18
S214080EF000F07001102902D0202974D109E04FF4BF
S214080F009050C0F27A0040F20001C2F20701086071
S214080F1069E04FF4D853C0F2B70340F20002C2F2B9
S214080F20070213605FE04FF4C062C4F20E02136A51
S214080F3013F0807F09D04FF4D851C0F2B70140F2C1
S214080F400002C2F20702116027E04FF41060C0F2F8
S214080F503D0040F20001C2F2070108604FF4C0628B
S214080F60C4F20E02136A03F07000102802D020287C
S214080F7013D109E04FF49053C0F27A0340F2000010
S214080F80C2F20700036008E04FF4D851C0F2B70178
S214080F9040F20002C2F2070211604FF4C063C4F2C6
S214080FA00E03186B00F00301022913D14FF4C06139
S214080FB0C4F20E01886A896A40F20003C2F2070387
S214080FC0C0F30A401A6800FB0220C9B2B0FBF1F26F
S214080FD01A6008E04FF4E053C0F64E6340F2000291
S214080FE0C2F2070213604FF4C062C4F20E02106B1E
S214080FF000F0700170290ED140F20003C2F2070318
S21408100018684AF6AB22CAF6AA22A2FB00014FEAE3
S2140810105100186070474FF4C063C4F20E031A6B91
S21408102040F20000C2F20700C2F30211036823FA76
S21408103001F30360704700BF4EF6BF23C0F22113CA
S21408104098420CD84FF42063C4F20E034FF0000009
S21408105018604FF44061C4F20E01086070474FF202
S2140810607F01C0F2FA2188420CD84FF42060C4F2FF
S2140810700E004FF4807101604FF44062C4F20E0215
S2140810801160704748F6FF73C0F2D03398420CD808
S2140810904FF42061C4F20E014FF400720A604FF458
S2140810A04063C4F20E031A6070474BF2FF31C0F279
S2140810B0C44188420CD84FF42063C4F20E034FF4A0
S2140810C040721A604FF44060C4F20E000260704727
S2140810D044F67F23C0F25D5398424FF42060C4F272
S2140810E00E0094BF4FF480624FF4A06202604FF483
S2140810F04061C4F20E010A60704700BF40F6D40390
S214081100C2F20703196841B940F6D403C2F20703CE
S21408111042F61012C2F207021A6040F6D401C2F272
S21408112007010B68181808601846704770B58CB029
S21408113006466C4643F23C45C0F208050FCD0FC480
S2140811400FCD0FC495E80F0084E80F004FF0250078
S21408115040F6B143C0F20803984700283ED14FF046
S2140811600004C4F20C0420464FF4F441C0F60321F0
S21408117049F68072C0F2D5024FF0080340F2A51572
S214081180C0F20805A84720464FF000014FF4401269
S2140811904FF0010340F20525C0F20805A84720468F
S2140811A04FF0000140F2E512C0F2080290470CA882
S2140811B000EB8606204616F8301C40F22D23C0F2B7
S2140811C00803984720464FF000010A4640F2F513F8
S2140811D0C0F2080398474FF0010001E04FF0000006
S2140811E00CB070BD2DE9F8439846234B06461C689C
S2140811F00F46D4F84801914618B904F5A670C4F805
S214081200480141681F2916DD1C4818B94FF0FF3001
S214081210BDE8F8834FF4C870AFF300800028F5D017
S214081220D4F84821002545600260C4F84801C0F893
S2140812308851C0F88C51B6B14468012202FA04F20B
S214081240D0F8881100EB84031143022EC3F8889067
S214081250C0F888111C46C3F8088104D1D0F88C3130
S2140812601A43C0F88C2141688B1C4A1C40F823702E
S21408127042600020BDE8F8836C34080000000000D7
S21408128070B5084B084C0025E01A841003EB84065A
S214081290043D1CB172599047013CF9E7BDE870401F
S2140812A002F022B9F4340800F834080038B50E4DB8
S2140812B00E4B0024E81A8510AC4205D00B4951F8AD
S2140812C0242090470134F7E702F004F90849094A50
S2140812D0541AA5100024AC4205D0054B53F8240038
S2140812E080470134F7E738BDE0340800E0340800EA
S2140812F0E0340800E83408000CB410B59CB01EAB07
S214081300029106916FF0004153F8042B049107915F
S2140813104FF6FF71ADF816104FF4027402A9019348
S214081320ADF8144000F034F8029B00221A701CB086
S214081330BDE8104002B070470EB400B59CB00290ED
S21408134006906FF000401DAB049007904FF40271B2
S2140813500A4853F8042BADF814104FF6FF71ADF891
S2140813601610006802A9019300F012F8029B0022EA
S2140813701A701CB05DF804EB03B07047080007202D
S214081380034613F8012B002AFBD1181A01387047B8
S2140813902DE9F04F1E468B89894603F080011446D6
S2140813A00AB2A9B083469AB1D9F8103083B9402159
S2140813B000F0FEFCC9F80000C9F8100028B90C2295
S2140813C0CBF800204FF0FF30DAE34020C9F81400CD
S2140813D0002118AD0B950D910C910194059104917F
S2140813E0A846019B1C4613F8012B1AB90198251A22
S2140813F003D11DE0252AF5D1F8E7019A0D9988E86A
S21408140024000C9A4B19501C07280D930C9002DCEC
S21408141008F1080809E0584649460BAA01F07CF886
S214081420002840F0A2830DF1600804994B19049334
S2140814302278002A00F092830022013401948DF865
S21408144027204FF0FF3C03921746019810F8013BFF
S2140814500190632B00F0B38033DC392B1ADC312B78
S21408146080F291802B2B01D11A46EEE70ADC232B5B
S21408147055D02A2B56D0202B40F0F581002A08BFDD
S2140814802022E2E72E2B58D0302B79D02D2B40F097
S214081490EA814FE04F2B00F0DE8007DC442B40F05B
S2140814A0E2818DF8272047F0100790E0552B00F0D2
S2140814B01F81582B40F0D781AE4D8DF82720059513
S2140814C030E16F2B00F0C98010DC692B24D007DCD4
S2140814D0642B21D0682B40F0C68147F04007B4E75C
S2140814E06C2B5FD06E2B40F0BE8196E0732B00F01D
S2140814F0DF8006DC702B00F0CD80712B40F0B381C6
S2140815005AE0752B00F0F680782B40F0AC819A4DA7
S2140815108DF82720059505E18DF8272057E047F038
S214081520010792E7331D3668002E039615DA7042D7
S21408153003901E4647F0040787E7019911F8013B18
S2140815402A2B01910BD1D6F800C0331DBCF1000F31
S21408155003DA1E464FF0FF3C77E71E4675E74FF066
S214081560000CA3F13000092807D801990A2303FBC9
S2140815700C0C11F8013B0191F3E74CEAEC7C68E7A8
S21408158047F0800761E701980021303B0A2404FBF6
S214081590013110F8013BA3F13004092C0190F4D96D
S2140815A0039156E701990B786C2B02D1481C0190E1
S2140815B002E047F0100748E747F0200745E732689B
S2140815C000258DF838208DF82750043655E1BA06E0
S2140815D007D5073626F0070505F10806D5E90045BC
S2140815E00FE017F0100F06F1040101D0326805E08D
S2140815F017F0400F326801D014B200E01446E51721
S2140816000E46002C75F1000280F2B8802D23644245
S21408161065EB45058DF82730B0E017F0200F8DF8FC
S214081620272006F1040205D0049C3568E0172C60D4
S214081630686004E0FB0604D533680499196016460A
S214081640CFE63068049C17F0400F06F1040614BF76
S21408165004800460C5E647F0100717F0200008D09D
S214081660F31D23F0070505F10806D5E90045002017
S2140816707CE017F0100106F1040206D117F04000CE
S21408168003D0348800251646F1E736680025344628
S21408169016466BE0384B302178223468002547F030
S2140816A002078DF828108DF82920043605935CE08B
S2140816B031460025D1F800A00436AC458DF82750F1
S2140816C0504611DB62462946CDF800C000F072FD90
S2140816D0DDF800C0002800F0D480CAEB000464459A
S2140816E040F3D1806446CEE0FFF74AFE0446CAE0DF
S2140816F047F01007BD0606D5F01D20F0070404F1D4
S214081700080630CC0CE017F0100F06F1040303D1DE
S2140817107C0601D5348801E035682C4600251E462F
S214081720012023E0B80607D5F41D24F0070101F1CF
S2140817300806D1E900450CE017F0100F06F1040082
S21408174003D1790601D5348801E036683446002589
S2140817500646FA0709D554EA050206D030228DF85F
S21408176028208DF8293047F00207022000218DF83E
S214081770271004E092340800A33408000120BCF1C6
S214081780000FA8BF27F0800754EA050102D1BCF174
S214081790000F58D001281DD002280DF15F0341D054
S2140817A004F00702E40844EA4570E90804460D46D2
S2140817B0303254EA05019A461A7003F1FF33EFD126
S2140817C0F80755464AD5302A48D030229A4605F8B2
S2140817D0012C43E0002D08BF0A2C03D230348DF8C4
S2140817E05F4036E00DF15F030293204629460A2241
S2140817F00023CDF800C001F009FB0298303200F84B
S214081800012929460A220023DDF808A0029020466E
S21408181001F0FCFA04460D4654EA0501DDF800C05E
S214081820E3D11BE0059904F00F0024090A5C44EA9A
S2140818300570290904460D469A4603F8012954EA14
S2140818400502EFD10AE038B9F90705D530208DF83A
S2140818505F000DF15F0A01E00DF1600A18ADCAEBF2
S214081860050465460FE08DF82720002B00F07681EA
S21408187000258DF838308DF8275001240DF1380AE8
S21408188001E0644605469DF82730AC42ACBF2146C9
S2140818902946029113B10298421C029217F00201DF
S2140818A0069102D0029B981C029017F084020792B9
S2140818B03CD10399029BCB1A002B37DDA548102B89
S2140818C0C8F800001BDD0C9A10210D98C8F8041003
S2140818D0511C103007290D900C9102DC08F10808FD
S2140818E00BE0584649460BAA009300F015FE009BED
S2140818F0002840F03A810DF16008103BDEE70D9AAB
S214081900C8F80430D1180C9B0D91581C07280C9069
S21408191002DC08F1080809E0584649460BAA00F018
S214081920FBFD002840F021810DF160089DF8272076
S214081930DAB10DF12701C8F800100C9901230D98AB
S214081940C8F804304B1C421C072B0D920C9302DC83
S21408195008F1080809E0584649460BAA00F0DCFDDD
S214081960002840F002810DF160080698D0B10AAA56
S214081970C8F800200C9A02210D9BC8F80410511CC8
S214081980981C07290D900C9102DC08F1080809E05C
S214081990584649460BAA00F0BFFD002840F0E580EF
S2140819A00DF16008079B802B3CD10398029A831A96
S2140819B0002B37DD6849102BC8F800101BDD0C9883
S2140819C010220D99C8F80420421C1031072A0D91E0
S2140819D00C9202DC08F108080BE0584649460BAAA8
S2140819E0009300F099FD009B002840F0BE800DF1A2
S2140819F06008103BDEE70C9A0D98511CC8F80430B6
S214081A00072903440D930C9102DC08F1080809E045
S214081A10584649460BAA00F07FFD002840F0A580EE
S214081A200DF160082D1B002D34DD4B48102DC8F82D
S214081A30000019DD0C980D99431C10221031072B55
S214081A40C8F804200D910C9302DC08F1080809E098
S214081A50584649460BAA00F05FFD002840F08580EE
S214081A600DF16008103DE0E70C9A0D9B511CC8F874
S214081A70045007291D440D950C9102DC08F108084E
S214081A8008E0584649460BAA00F046FD00286CD1E7
S214081A900DF160080C9B0D985A1CC8F80440072ADC
S214081AA00444C8F800A00D940C9202DC08F1080360
S214081AB007E0584649460BAA00F02EFD002854D1E8
S214081AC018AB7A070BD40498029B039A0D99934295
S214081AD0ACBFC01880180490002936D02FE0039CAD
S214081AE00299641A002CEEDD1A48102C186015DDD1
S214081AF00C9910200D9A5860481C103207280D9231
S214081B000C9001DC083307E0584649460BAA00F05B
S214081B1003FD002829D118AB103CE5E70C9A5C6059
S214081B200D9B511C1C1907290D940C91CBDD5846AA
S214081B3049460BAA00F0F0FC0028C4D015E0584629
S214081B4049460BAA00F0E8FC78B900250C950DF17B
S214081B50600846E472340800823408000D9820B104
S214081B60584649460BAA00F0D7FCB9F80C20049B47
S214081B7002F0400108B2002818BF4FF0FF3318469D
S214081B8029B0BDE8F08F00BF024B13B1024800F041
S214081B9005B87047000000008112080001460020C2
S214081BA002460346FFF71EBBF8B5234D0E4604460D
S214081BB000F031FBAB685F6827F0030707F6EF70A5
S214081BC0811B21F47F6222F00F06A6F58056B6F533
S214081BD0805F04DA204600F01FFB0020F8BD0021D5
S214081BE0204600F089FCAB68D9198842F2D17142C8
S214081BF0204600F081FC013010D10021204600F07C
S214081C007BFCAB68C21A0F2AE4DD0C4942F00102DD
S214081C1009685A60401A0A490860DBE7084BA86852
S214081C201A68BF1B47F001074760961B20461E60D0
S214081C3000F0F2FA0120F8BD380407204008072013
S214081C40DC080720F8B506460D46002900F0A680F1
S214081C5000F0E1FA55F804CC514FA5F108032CF032
S214081C6001029C18B96860688C4220F003000CF0EA
S214081C7001011CD1821839B955F8081C5B1A9868F6
S214081C805218D968C1608860454842F00101596019
S214081C908360444B19688A4204D3434A3046116825
S214081CA0FFF782FF3046BDE8F84000F0B5BA60603E
S214081CB059B955F8085C08375B1B52199D68BD4230
S214081CC005D0DF68EF60BD6002E0002100E001217A
S214081CD025186D6815F0010F0FD1121849B9A068BC
S214081CE0324DA84205D1EB60AB60D8609860012100
S214081CF003E0E068A468E060846042F00100586091
S214081D009A500029CED1B2F5007F0CD2D208901096
S214081D10012404FA00F4224948682043486001EB8D
S214081D20C200816835E0540A042C02D89409383475
S214081D3016E0142C01D85B3412E0542C02D8140B8D
S214081D406E340DE0B4F5AA7F02D8D40B773407E0DA
S214081D5040F25455AC4202D8940C7C3400E07E2401
S214081D600F4D05EBC400816881420CD10122A410F6
S214081D7002FA04F4686844EA00026A60084608E062
S214081D808968814204D04C6824F00304A242F7D341
S214081D90C868D86099608360CB6083E7F8BD00BFE9
S214081DA03804072044080720D808072040040720DE
S214081DB02DE9F04701F10B04162C064603D934F03A
S214081DC0070401D502E010248C4202D20C253560A7
S214081DD0D9E1304600F01FFAB4F5FC7F14D2A04DC6
S214081DE0E10805EBC100C568854205D105F1080381
S214081DF06D698A1C9D4244D0E868A9686A68C8600C
S214081E0022F00303816059E0620A01D1E2081BE070
S214081E10042A02D8A209383216E0142A01D85B32FE
S214081E2012E0542A02D8220B6E320DE0B2F5AA7FD1
S214081E3002D8E20B773207E040F254539A4202D8AF
S214081E40A20C7C3200E07E22854800EBC203DD68E7
S214081E509D4215D0696821F00301081B0F2801DD93
S214081E60013A0DE0002809DBEB68AA68D3609A609F
S214081E706B185A6842F00100586090E1ED68E7E791
S214081E80013277490D6901F10807BD4268D06868D4
S214081E9020F00303181B0F280CDD2B194B610B6170
S214081EA044F0010440F001016C60DF609F605960F7
S214081EB0185074E100284F610F6101DBEB18D8E772
S214081EC0B3F5007F0FD2DB089810012707FA00F752
S214081ED0486807434F6001EBC3018B68E960AB6055
S214081EE0DD608D603CE0580A042802D8980938302E
S214081EF016E0142801D85B3012E0542802D8180BD4
S214081F006E300DE0B0F5AA7F02D8D80B773007E020
S214081F1040F25457B84202D8980C7C3000E07E2035
S214081F20DFF83CE10EEBC007B968B9420ED187105E
S214081F30012303FA07F0DEF8047040EA0703CEF838
S214081F400430084608E08968B94204D0486820F09A
S214081F5003008342F7D3C868E860A960CD6085604F
S214081F609510012000FA05F33D4F79688B425DD83D
S214081F700B4205D122F003025B0004320B42FBD071
S214081F80374D104605EBC20E7746FD68BD422DD08C
S214081F90696821F0030CC4EB0C010F2913DD2B191B
S214081FA044F00104EA686C6055F8080F5950C2609E
S214081FB090602B4A41F00100536113610832DA60E1
S214081FC09A6058600CE000290EDB05EB0C004268AE
S214081FD0E96842F00103436055F8080FC16088605D
S214081FE0304600F019F9DEE0ED68CFE701308107EA
S214081FF005F10807C9D17146950705D1184A5568ED
S21408200025EA0305556005E0A1F108070968013AC5
S214082010B942F1D0124F5B007F68BB4206D82BB19D
S21408202002463B42ACD104325B00FAE70C4B9F6891
S2140820301946786820F00309A14504D3C4EB0900C3
S2140820400F2800F3A280074AD1F808341568013330
S21408205007EB090A04EB050806D108F110080BE09F
S21408206038040720D808072008F5805000F10F012B
S21408207021F47F6222F00F083046414600F03CFA11
S214082080421C054671D0504502D2484B9F426CD13F
S214082090474855454168454A08EB0103436007D160
S2140820A0290505D19568C84448F00100686051E0E4
S2140820B0D2F80804421C03D13C4AC2F8085405E08A
S2140820C0CAEB050A03EB0A01394B596015F00700FD
S2140820D01CBFC0F108002D1805EB080C00F5805150
S2140820E04FEA0C5EA1EB1E584146304600F004FA53
S2140820F02F4A431C536808BF4FF0000808EB03013B
S21408210008BF28465160401B284A00EB080343F0E6
S21408211001019742956069601CD0B9F10F0F02D88B
S21408212001226A6021E07D68A9F10C0929F00709F7
S21408213005F00102052107EB090349EA0200B9F197
S2140821400F0F78605960996004D9304607F1080186
S214082150FFF778FD164A5368D16A156B8B4288BF1D
S214082160D362AB4284BF124D2B6310488268536813
S21408217023F00301A142C4EB010001D30F2804DCBD
S214082180304600F049F800250DE0084A44F00103FF
S214082190956840F001012C196B60946061603046C8
S2140821A000F03AF808352846BDE8F08738040720D6
S2140821B0D808072010B5C9B20346821893421846B5
S2140821C004D0047801338C42F8D100E0002010BD1A
S2140821D010B50023934203D0CC5CC4540133F9E70E
S2140821E010BD814270B50ED28C18A0420BD285184D
S2140821F0134613F1FF3305D351426618F65C691887
S214082200CE54F6E770BD0023934203D0CC5CC4548A
S2140822100133F9E770BD7047704700002DE9F84FA5
S214082220814616460C4621B91146BDE8F84FFFF719
S214082230BFBDFFF7F0FF06F10B0754F8045C162F36
S214082240A4F1080B25F0030803D937F0070701D5D2
S21408225002E01027B74204D20C20C9F80000002676
S21408226045E1B84580F21A81A24A0BEB080391684B
S2140822708B4206D0586820F0010298184268D007AA
S21408228026D45A688B4222F0030000EB080A18D1BD
S21408229007F1100292451DDBC7EB0A0A0BEB070590
S2140822A04AF00101696054F8042C924E02F00103CA
S2140822B01F43B56044F8047C4846FFF7ADFF264642
S2140822C015E1BA4506DBDD689E68F560AE60E6E0B7
S2140822D000200346EA0700F1918054F8085CC5EB35
S2140822E00B056A6822F00302002B51D002EB080A9D
S2140822F08B42824445D107F110039A4548DB2E46A7
S214082300E96856F8083FA8F10402242AD9608B60C9
S21408231025D8132A1BD921681B2AA9606368EB6095
S21408232003D805F11000083412E0A068242A2861B2
S214082330E168696103D005F11800103408E02269E5
S21408234005F12000AA6163691834EB6100E03046A5
S2140823502168016062684260A368836003E03046D3
S2140823602146FFF73EFFC7EB0A0AE8194AF00102C2
S21408237042606B685F49886003F0010007436F603E
S21408238088E0BA4504DBD9689868C160886003E0CD
S21408239002EB080ABA4531DB2846EB6850F8081FF6
S2140823A0A8F10402242ACB60996023D8132A1AD9E4
S2140823B020681B2AA8606668EE6003D805F110003E
S2140823C0083410E0A368242A2B61E168696103D009
S2140823D005F11800103406E02269AA61606918340D
S2140823E0E86105F120002668066063684360A16816
S2140823F0816055E02146FFF7F4FE51E03146484635
S214082400FFF7D6FC0646002844D054F8041CA0F172
S214082410080221F001030BEB03018A4206D150F8AB
S214082420046C26F0030505EB080A38E0A8F1040258
S214082430242A28D8132A1ED923681B2A0360616811
S214082440416004D800F1080004F1080214E0A0680E
S214082450242AB060E368F36004D006F1100004F1A3
S214082460100209E0226906F118003261616904F178
S2140824701802716100E022461368036051684160E3
S2140824809268826002E02146FFF7ABFE4846214686
S214082490FFF7D8FB4846FFF7BFFE28E0C2465D4672
S2140824A0C7EB0A000F286A6811D902F00106E91975
S2140824B040F0010337436F6008184B6042680831E4
S2140824C042F0010646604846FFF7BCFB0AE002F009
S2140824D001064AEA06036B6005EB0A01486840F005
S2140824E001024A604846FFF797FE05F1080630469F
S2140824F0BDE8F88F3804072038B5064C0023054693
S21408250008462360FEF7FAFD431C02D1216801B194
S214082510296038BD0C0907202DE9F74F0746906853
S2140825200C461546D2F8008008B950606FE04FF0A8
S214082530000B5E4636B9D8F800B0D8F8046008F143
S2140825400808F7E7A3689E424CD3A28912F4906F56
S21408255046D02368606921694FF0030AC1EB030976
S2140825600AFB00F3022093FBF0FA02F4806209F1FA
S2140825700103981913B2824538BF8246384683B19C
S2140825805146FFF715FCA8B121694A460190FFF7A6
S2140825901FFEA08920F4906242F08001A181019973
S2140825A014E05246FFF73AFE014678B938462169E4
S2140825B0FFF748FBA3890C20002143F0400238604F
S2140825C0A2814FF0FF30A960696020E001EB0903A3
S2140825D0C9EB0A0023602161C4F814A03346A06042
S2140825E09E4200D233461A46594620680193FFF7A2
S2140825F0F8FDA26801992368501A5A18A968A060BD
S2140826008E1B2260AE60002E95D16E603046BDE807
S214082610FE8F2DE9F04F1E468B89894603F0800110
S21408262014460AB2A9B083469AB1D9F8103083B9CD
S2140826304021FFF7BDFBC9F80000C9F8100028B90B
S2140826400C22CBF800204FF0FF30DBE34020C9F81F
S2140826501400002118AD0B950D910C91019405916D
S2140826600491A846019B1C4613F8012B1AB9019839
S214082670251A03D11DE0252AF5D1F8E7019A0D9908
S21408268088E824000C9A4B19501C07280D930C90C8
S21408269002DC08F1080809E0584649460BAAFFF785
S2140826A03BFF002840F0A3830DF1600804994B19FE
S2140826B004932278002A00F09383002201340194C0
S2140826C08DF827204FF0FF3C03921746019810F824
S2140826D0013B0190632B00F0B38033DC392B1ADC06
S2140826E0312B80F291802B2B01D11A46EEE70ADCBB
S2140826F0232B55D02A2B56D0202B40F0F681002AC3
S21408270008BF2022E2E72E2B58D0302B79D02D2B6D
S21408271040F0EB814FE04F2B00F0DE8007DC442BC7
S21408272040F0E3818DF8272047F0100790E0552BFE
S21408273000F01F81582B40F0D881AF4D8DF8272028
S214082740059530E16F2B00F0C98010DC692B24D08A
S21408275007DC642B21D0682B40F0C78147F0400780
S214082760B4E76C2B5FD06E2B40F0BF8196E0732BDE
S21408277000F0DF8006DC702B00F0CD80712B40F077
S214082780B4815AE0752B00F0F680782B40F0AD81C6
S2140827909A4D8DF82720059505E18DF8272057E0F6
S2140827A047F0010792E7331D3668002E039615DAC0
S2140827B0704203901E4647F0040787E7019911F810
S2140827C0013B2A2B01910BD1D6F800C0331DBCF172
S2140827D0000F03DA1E464FF0FF3C77E71E4675E704
S2140827E04FF0000CA3F13000092807D801990A23F6
S2140827F003FB0C0C11F8013B0191F3E74CEAEC7C67
S21408280068E747F0800761E701980021303B0A2413
S21408281004FB013110F8013BA3F13004092C0190A8
S214082820F4D9039156E701990B786C2B02D1481C12
S214082830019002E047F0100748E747F0200745E711
S214082840326800258DF838208DF82750043656E172
S214082850BA0607D5073626F0070505F10806D5E9AE
S21408286000450FE017F0100F06F1040101D032689A
S21408287005E017F0400F326801D014B200E01446A5
S214082880E5170E46002C75F1000280F2B9802D235C
S214082890644265EB45058DF82730B1E017F0200F48
S2140828A08DF8272006F1040205D0049C3568E01749
S2140828B02C60686004E0FB0604D533680499196048
S2140828C01646CFE63068049C17F0400F06F104065B
S2140828D014BF04800460C5E647F0100717F0200010
S2140828E008D0F31D23F0070505F10806D5E90045CD
S2140828F000207CE017F0100106F1040206D117F05C
S214082900400003D0348800251646F1E736680025CF
S214082910344616466BE0394B302178223468002559
S21408292047F002078DF828108DF8292004360593FD
S2140829305CE031460025D1F800A00436AC458DF899
S2140829402750504611DB62462946CDF800C0FFF7EF
S21408295031FCDDF800C0002800F0D580CAEB000482
S214082960644540F3D2806446CFE0FEF709FD04468E
S214082970CBE047F01007BD0606D5F01D20F007048B
S21408298004F1080630CC0CE017F0100F06F104032B
S21408299003D17C0601D5348801E035682C4600252D
S2140829A01E46012023E0B80607D5F41D24F00701CB
S2140829B001F10806D1E900450CE017F0100F06F102
S2140829C0040003D1790601D5348801E03668344618
S2140829D000250646FA0709D554EA050206D030222D
S2140829E08DF828208DF8293047F0020702200021AC
S2140829F08DF8271005E000BF92340800A3340800BD
S214082A000120BCF1000FA8BF27F0800754EA050193
S214082A1002D1BCF1000F58D001281DD002280DF1B4
S214082A205F0341D004F00702E40844EA4570E90869
S214082A3004460D46303254EA05019A461A7003F1E8
S214082A40FF33EFD1F80755464AD5302A48D030220A
S214082A509A4605F8012C43E0002D08BF0A2C03D23D
S214082A6030348DF85F4036E00DF15F030293204660
S214082A7029460A220023CDF800C000F0C7F90298BC
S214082A80303200F8012929460A220023DDF808A07A
S214082A900290204600F0BAF904460D4654EA0501AD
S214082AA0DDF800C0E3D11BE0059904F00F00240907
S214082AB00A5C44EA0570290904460D469A4603F856
S214082AC0012954EA0502EFD10AE038B9F90705D515
S214082AD030208DF85F000DF15F0A01E00DF1600A05
S214082AE018ADCAEB050465460FE08DF82720002BC5
S214082AF000F0768100258DF838308DF827500124AF
S214082B000DF1380A01E0644605469DF82730AC42C8
S214082B10ACBF21462946029113B10298421C029284
S214082B2017F00201069102D0029B981C029017F03B
S214082B30840207923CD10399029BCB1A002B37DDFF
S214082B40A548102BC8F800001BDD0C9A10210D981C
S214082B50C8F80410511C103007290D900C9102DC9F
S214082B6008F108080BE0584649460BAA0093FFF7F9
S214082B70D3FC009B002840F03A810DF16008103B1A
S214082B80DEE70D9AC8F80430D1180C9B0D91581C36
S214082B9007280C9002DC08F1080809E05846494660
S214082BA00BAAFFF7B9FC002840F021810DF1600858
S214082BB09DF82720DAB10DF12701C8F800100C9906
S214082BC001230D98C8F804304B1C421C072B0D92A5
S214082BD00C9302DC08F1080809E0584649460BAA97
S214082BE0FFF79AFC002840F002810DF1600806986D
S214082BF0D0B10AAAC8F800200C9A02210D9BC8F882
S214082C000410511C981C07290D900C9102DC08F141
S214082C10080809E0584649460BAAFFF77DFC002835
S214082C2040F0E5800DF16008079B802B3CD10398A7
S214082C30029A831A002B37DD6849102BC8F8001053
S214082C401BDD0C9810220D99C8F80420421C103180
S214082C50072A0D910C9202DC08F108080BE058468A
S214082C6049460BAA0093FFF757FC009B002840F044
S214082C70BE800DF16008103BDEE70C9A0D98511CDB
S214082C80C8F80430072903440D930C9102DC08F1B8
S214082C90080809E0584649460BAAFFF73DFC0028F5
S214082CA040F0A5800DF160082D1B002D34DD4B4843
S214082CB0102DC8F8000019DD0C980D99431C102239
S214082CC01031072BC8F804200D910C9302DC08F18C
S214082CD0080809E0584649460BAAFFF71DFC0028D5
S214082CE040F085800DF16008103DE0E70C9A0D9BDA
S214082CF0511CC8F8045007291D440D950C9102DC98
S214082D0008F1080808E0584649460BAAFFF704FCED
S214082D1000286CD10DF160080C9B0D985A1CC8F859
S214082D200440072A0444C8F800A00D940C9202DC5C
S214082D3008F1080307E0584649460BAAFFF7ECFBDC
S214082D40002854D118AB7A070BD40498029B039A30
S214082D500D999342ACBFC01880180490002936D04D
S214082D602FE0039C0299641A002CEEDD1A48102CFA
S214082D70186015DD0C9910200D9A5860481C103202
S214082D8007280D920C9001DC083307E058464946A0
S214082D900BAAFFF7C1FB002829D118AB103CE5E7C2
S214082DA00C9A5C600D9B511C1C1907290D940C91FC
S214082DB0CBDD584649460BAAFFF7AEFB0028C4D021
S214082DC015E0584649460BAAFFF7A6FB78B9002532
S214082DD00C950DF1600845E4B4340800C4340800C6
S214082DE00D9820B1584649460BAAFFF795FBB9F847
S214082DF00C20049B02F0400108B2002818BF4FF0D0
S214082E00FF33184629B0BDE8F08F00BF4BB942B96A
S214082E10002908BF002802D04FF0FF31084600F00E
S214082E203BB882B0EC462DE9005000F01DF8DDF8FE
S214082E3004E002B00CBC70472DE9F04116469846EF
S214082E4004460D4600F02AF806FB01FCA6FB002304
S214082E5000FB08C7FB18A21A65EB0303069CC4E927
S214082E600023BDE8F08100BF2DE9F04190460646F4
S214082E700F461D4600F070F900FB05F3A0FB084559
S214082E8008FB0138069B4544341B67EB0505C3E978
S214082E900045BDE8F08100BF704700BF00292DE956
S214082EA0F00F1D46C0F29D800024002DC0F29480CD
S214082EB080460F4694461E46E3BB8A4255D9B2FA68
S214082EC082F747B1C7F1200520FA05F601FA07F19F
S214082ED0BA40B8403143170CB1FBF7F61FFA82FC2C
S214082EE007FB16110CFB06F5030C43EA01439D424B
S214082EF008D9711E9B1880F013819D4240F21081FC
S214082F00023E9B18591BB1FBF7F507FB15130CFB84
S214082F1005FC80B240EA03418C4507D96B1E8A1827
S214082F2080F00081944540F2FD80023D45EA064166
S214082F30002503E08B420CD9002529460A462B4675
S214082F4014B1524263EB430310461946BDE8F00F2E
S214082F507047B3FA83F5002D40F087808B4201D383
S214082F608242EAD800250121E8E712B90126B6FB15
S214082F70F2F2B2FA82F6002E39D18E1A130C1FFA24
S214082F8082FC0125B6FBF3F703FB17610CFB07F879
S214082F904FEA104949EA0146B04506D9791EB618DF
S214082FA002D2B04500F2D3800F46C8EB0606B6FB41
S214082FB0F3F103FB11630CFB01FC80B240EA034308
S214082FC09C4506D94E1E9A1802D2944500F2C28035
S214082FD0314641EA0741B1E7E443524263EB430313
S214082FE066E7404261EB41014FF0FF345DE7B240CF
S214082FF0C6F1200921FA09F720FA09F901FA06F1BB
S214083000130CB7FBF3F81FFA82FC03FB18770CFBCC
S21408301008F549EA01094FEA194141EA0747B0406D
S214083020BD420AD9BF1808F1FF3680F08E80BD422F
S21408303040F28B80A8F10208BF18791BB1FBF3F5A4
S21408304003FB15170CFB05F61FFA89F949EA074131
S2140830508E4206D96F1E891871D28E426FD9023DEC
S21408306089188E1B45EA08458CE7C5F1200122FA27
S21408307001F306FA05F627FA01F207FA05F720FA29
S21408308001F11E434FEA1649B2FBF9F81FFA86FA11
S21408309009FB18220AFB08FB0F433B0C43EA0242D3
S2140830A093450CFA05FC08D9921908F1FF314AD263
S2140830B0934548D9A8F102089219CBEB0203B3FB53
S2140830C0F9F109FB11320AFB01FABFB247EA0243DB
S2140830D09A4506D94A1E9B1933D29A4531D90239E0
S2140830E09B1941EA08410F0C1FFA8CF808FB07F6F3
S2140830F08AB24FEA1C4C08FB02F80CFB02620CFB77
S21408310007FC02EB1842964288BF0CF5803CCAEBD7
S21408311003030CEB124C63450ED305D000250DE7D0
S2140831200E46EFE61D4601E700FA05F01FFA88F896
S21408313008EB0245A842F1D201390025FEE63D46D5
S2140831408FE71146CDE78846B7E7B04675E7023FF2
S214083150B6182AE702393CE72DE9F0071446054673
S2140831600E46002B3DD18A4249D9B2FA82F747B1BA
S214083170C7F1200120FA01F206FA07F6BC40BD4066
S2140831801643220CB6FBF2F0A1B202FB106601FB56
S21408319000F32F0C47EA0646B34208D9471E3619ED
S2140831A080F0FA80B34240F2F78002383619F61AF1
S2140831B0B6FBF2F302FB136201FB03F1ADB245EA7C
S2140831C00242914207D95E1E121980F0E7809142AA
S2140831D040F2E480023B43EA00400021BDE8F007E5
S2140831E070478B4243D8B3FA83F4002C42D18B4203
S2140831F002D3824200F2E18000210120EEE712B9F4
S2140832000127B7FBF2F4B4FA84F2002A40F089806A
S2140832100A1B230CA7B20121B2FBF3F603FB162206
S21408322007FB06F04FEA154C4CEA0242904207D9D3
S214083230121906F1FF3C02D2904200F2D080664690
S214083240121AB2FBF3F003FB102307FB00F7ADB22C
S21408325045EA03439F4207D9421E1B1980F0A08007
S2140832609F4240F29D80023840EA0640B6E70021B9
S2140832700846B3E7C4F1200622FA06F703FA04F371
S21408328021FA06F501FA04F120FA06F63B434FEA5E
S214083290134CB5FBFCF71FFA83F80CFB175508FB15
S2140832A007F946EA010A4FEA1A4141EA0545A945DF
S2140832B002FA04F204D97E1EED18C0F08180374663
S2140832C0C9EB0501B1FBFCF60CFB161508FB06F866
S2140832D01FFA8AFA4AEA0541884503D9751EC918AD
S2140832E074D32E4646EA0746370C1FFA82FC0CFBB8
S2140832F007F5120CB3B20CFB03FC02FB035302FBEC
S21408330007F203EB1C439D4288BF02F58032C8EBE8
S214083310010102EB134291424CD343D030460021C0
S2140833205CE79440C2F1200521FA05F620FA05F577
S21408333001FA02F1230CB6FBF3FCA7B203FB1C66EA
S21408334007FB0CF829430D0C45EA0646B04500FA7B
S21408335002F508D936190CF1FF303ED2B0453CD9F3
S214083360ACF1020C3619C8EB0602B2FBF3F003FB0D
S214083370102607FB00F889B241EA0642904506D9AE
S214083380461E121927D2904525D902381219C8EBBD
S214083390020240EA0C413FE7384608E733461AE798
S2140833A0104661E700FA04F01FFA8CFC0CEB0343A6
S2140833B09842B3D2701E002110E7214620460DE73A
S2140833C0A9457FF67CAF023FED1879E7884588D98E
S2140833D0023EC91886E73046D9E78446C3E7023E68
S2140833E012192DE70008040C020A060E0109050D3D
S2140833F0030B070F256400004552524F5200000089
S2140834004F4B00006D5600002042746E3A200000B4
S214083410726967687400000075700000646F776EE4
S214083420000000006C6566740000000073656C653B
S214083430637400006E6F6E650000000007000000F1
S214083440060000000500000004000000030000005D
S2140834500200000001000000000000000A00000052
S2140834600B0000000C0000000D00000010000720F4
S214083470430020202020202020202020202020203C
S214083480202030303030303030303030303030304F
S21408349030303031323334353637383941424344A8
S2140834A04546003031323334353637383961626351
S2140834B06465660020202020202020202020202050
S2140834C0202020203030303030303030303030302F
S2140834D030303030F8B500BFF8BC08BC9E467047A0
S2140834E0891B08006D010800F8B500BFF8BC08BCC9
S20C0834F09E46704745010800DE
S20C0834F8A4F9FF7F01000000A3
S21408350000093D0000000000100007200000000031
S21408351000000000FC02072064030720CC030720F5
S214083520000000000000000000000000000000008E
S214083530000000000000000000000000000000007E
S21408354000000000703408000000000000000000C2
S214083550000000000000000000000000000000005E
S214083560000000000000000000000000000000004E
S214083570000000000000000000000000000000003E
S214083580000000000000000000000000000000002E
S214083590000000000000000000000000000000001E
S2140835A0000000000000000000000000000000000E
S2140835B000000000000000000100000000000000FD
S2140835C00E33CDAB34126DE6ECDE05000B000000C2
S2140835D000000000000000000000000000000000DE
S2140835E000000000000000000000000000000000CE
S2140835F000000000000000000000000000000000BE
S21408360000000000000000000000000000000000AD
S21408394038040720380407204004072040040720CE
S214083950480407204804072050040720500407207E
S214083960580407205804072060040720600407202E
S21408397068040720680407207004072070040720DE
S214083980780407207804072080040720800407208E
S214083990880407208804072090040720900407203E
S2140839A09804072098040720A0040720A0040720EE
S2140839B0A8040720A8040720B0040720B00407209E
S2140839C0B8040720B8040720C0040720C00407204E
S2140839D0C8040720C8040720D0040720D0040720FE
S2140839E0D8040720D8040720E0040720E0040720AE
S2140839F0E8040720E8040720F0040720F00407205E
S214083A00F8040720F804072000050720000507200B
S214083A1008050720080507201005072010050720B9
S214083A201805072018050720200507202005072069
S214083A302805072028050720300507203005072019
S214083A4038050720380507204005072040050720C9
S214083A504805072048050720500507205005072079
S214083A605805072058050720600507206005072029
S214083A7068050720680507207005072070050720D9
S214083A807805072078050720800507208005072089
S214083A908805072088050720900507209005072039
S214083AA09805072098050720A0050720A0050720E9
S214083AB0A8050720A8050720B0050720B005072099
S214083AC0B8050720B8050720C0050720C005072049
S214083AD0C8050720C8050720D0050720D0050720F9
S214083AE0D8050720D8050720E0050720E0050720A9
S214083AF0E8050720E8050720F0050720F005072059
S214083B00F8050720F8050720000607200006072006
S214083B1008060720080607201006072010060720B4
S214083B201806072018060720200607202006072064
S214083B302806072028060720300607203006072014
S214083B4038060720380607204006072040060720C4
S214083B504806072048060720500607205006072074
S214083B605806072058060720600607206006072024
S214083B7068060720680607207006072070060720D4
S214083B807806072078060720800607208006072084
S214083B908806072088060720900607209006072034
S214083BA09806072098060720A0060720A0060720E4
S214083BB0A8060720A8060720B0060720B006072094
S214083BC0B8060720B8060720C0060720C006072044
S214083BD0C8060720C8060720D0060720D0060720F4
S214083BE0D8060720D8060720E0060720E0060720A4
S214083BF0E8060720E8060720F0060720F006072054
S214083C00F8060720F8060720000707200007072001
S214083C1008070720080707201007072010070720AF
S214083C20180707201807072020070720200707205F
S214083C30280707202807072030070720300707200F
S214083C4038070720380707204007072040070720BF
S214083C50480707204807072050070720500707206F
S214083C60580707205807072060070720600707201F
S214083C7068070720680707207007072070070720CF
S214083C80780707207807072080070720800707207F
S214083C90880707208807072090070720900707202F
S214083CA09807072098070720A0070720A0070720DF
S214083CB0A8070720A8070720B0070720B00707208F
S214083CC0B8070720B8070720C0070720C00707203F
S214083CD0C8070720C8070720D0070720D0070720EF
S214083CE0D8070720D8070720E0070720E00707209F
S214083CF0E8070720E8070720F0070720F00707204F
S214083D00F8070720F80707200008072000080720FC
S214083D1008080720080807201008072010080720AA
S214083D20180807201808072020080720200807205A
S214083D30280807202808072030080720300807200A
S20C083D40FFFFFFFF0000020070
S804080D39AD
