S01A00004C616231635F70726F6A6563745F746573742E73726563F2
S214080000A02907207D0D0800790D0800790D080045
S214080010790D0800790D0800790D08000000000029
S214080020000000000000000000000000790D080035
S214080030790D080000000000790D0800790D080009
S214080040790D0800790D0800790D0800790D08006B
S214080050790D0800790D0800790D0800790D08005B
S214080060790D0800790D080000000000910A0800C4
S214080070AD0A0800C90A0800E50A080000000000E2
S21408008000000000790D0800790D0800790D0800B9
S214080090790D0800790D0800790D0800790D08001B
S2140800A0790D080000000000790D0800790D080099
S2140800B0790D0800790D0800790D0800790D0800FB
S2140800C0790D0800790D0800790D0800790D0800EB
S2140800D0790D0800790D0800790D0800790D0800DB
S2140800E0790D0800790D0800790D0800790D0800CB
S2140800F0790D080008B50548054B191A062900D8D1
S21408010008BD044A002AFBD09047F9E7A83A080039
S214080110AB3A08000000000008B50748074B191A54
S2140801208A1002EBD273591000D108BD044A002A7F
S214080130FBD09047F9E700BFA83A0800A83A08009D
S2140801400000000010B5064C237843B9FFF7D2FF2D
S214080150044810B10448AFF300800121217010BD97
S2140801605008072000000000A83A080008B5084B09
S2140801701BB108480849AFF300800848016811B168
S214080180074A02B19047BDE80840FFF7C5BF00BF61
S21408019000000000A83A080054080720A83A0800FB
S2140801A00000000030B44FF0010404604FF0000473
S2140801B0446040F20225C0F82051C0F80441C0F857
S2140801C0144145682B434FEA4202B1FBF2F101F1B4
S2140801D0FF324FEA026143EA11434360204630BCCF
S2140801E0704700BF43684FEA011101F0100213433D
S2140801F043607047436819434FEAC212D3B21943A3
S2140802004160704710B4446822434FEA016101F028
S214080210706422434FEA037303F040510A43426076
S21408022010BC70474FF00203036070474FF001039D
S21408023003FA01F101617047006A704710B44FEA8B
S214080240811143184FF0020444504FF0FF30986273
S214080250196A5A6010BC7047C0F8C410704700BFCF
S2140802604FEA81114FF00503435070474FEA81115A
S2140802704FF002034350704700EB8111086970473E
S214080280F8B504464FF00000C4F208004FF000012D
S21408029040F26123C0F2080398474FF02A0707FB8D
S2140802A004F74FF00004C4F208044FF0000640F2CA
S2140802B07925C0F2080520463146A847B842FAD341
S2140802C04FF00000C4F208004FF0000140F26D2223
S2140802D0C0F208029047F8BD10B54FF01B0040F674
S2140802E04143C0F2080398474FF00004C4F20804DC
S2140802F020464FF000010A4640F23D23C0F20803AC
S214080300984720464FF0000140F25922C0F20802F2
S214080310904720464FF0000140F26D23C0F20803D4
S214080320984710BDF8B504464FF00000C4F2080020
S2140803304FF0000140F26123C0F2080398474FF0DF
S2140803402A0707FB04F74FF00004C4F208044FF02E
S214080350000640F27925C0F2080520463146A8472F
S214080360B842FAD34FF00000C4F208004FF000017C
S21408037040F26D22C0F208029047F8BD2DE9F04120
S21408038084B007460D4643F65403C0F208036C468D
S214080390186859689A68DB680FC404EB171010F8D9
S2140803A0101C4FEAC1564FEA01135FFA83F83DB1B5
S2140803B04FF49052C4F20E024FF48000106306E029
S2140803C04FF49055C4F20E054FF480046C6306F0A3
S2140803D0F0614FF49054C4F20E0421636FEA0606E7
S2140803E006F0F06363634FF4001626634FF00100CF
S2140803F040F22535C0F20805A84766634FF064004A
S214080400A84707F00F0704AAD01910F8101C4FEADF
S214080410C15308EB0107FFB203F0F06222636FEAEC
S214080420030000F0F061616326634FF00100A847FF
S21408043066634FF06400A847384604B0BDE8F0810C
S2140804402DE9F0474FF49054C4F20E044FF4800799
S2140804502761C4F8A0704FF400152561C4F8A050B1
S2140804604FF0F0632361C4F8A030656347F230505C
S21408047040F22536C0F20806B04767634FF0806A38
S214080480C4F830A04FF00079C4F830904FF0807868
S214080490C4F834804FF40007676325634FF0010003
S2140804A0B047656341F20400B047C4F830A0C4F80A
S2140804B03090C4F83480676325634FF00100B04776
S2140804C065634FF06400B047C4F830A0C4F83090B5
S2140804D0C4F83480676325634FF00100B04765634E
S2140804E04FF06400B047C4F834A0C4F83090C4F89D
S2140804F03480676325634FF00100B04765634FF0AB
S2140805006400B0474FF028004FF0000140F27D34F9
S214080510C0F20804A0474FF008004FF00001A047BB
S2140805204FF001004FF00001A04740F6B830B04742
S2140805304FF006004FF00001A0474FF00F004FF0B5
S2140805400001A0474FF00100BDE8F08710B54FF452
S2140805503D40C0F2015041F27D03C0F208039847BF
S2140805604FF000004FF03E0140F6A132C0F20802FC
S214080570904740F61144C0F20804A0470028FCD073
S21408058040F62140C0F2080080474FF4C061C4F22C
S2140805900E0143F60173C2F20D038B6240F6314436
S2140805A0C0F20804A0470028FCD04FF0100040F620
S2140805B00132C0F20802904740F6B560C0F2080063
S2140805C0804710BD2DE9F8430C46904648BB002AE4
S2140805D02BDD8F1840F69816C2F2070640F69015DF
S2140805E0C2F207056FEA010907EB090000F00109E6
S2140805F030682B68984704F10104BC4219D10DE015
S21408060030682B682146984704F101042146306873
S2140806102A68904704F10104BC42F1D14046BDE87F
S214080620F8834FF0FF30BDE8F8834FF00000BDE8D0
S214080630F883B9F1000FE3D030682A68214690475E
S21408064004F10104BC42DBD1E8E700BF2DE9F8431A
S2140806500D46904600F1FF30022824D832B340F603
S2140806609816C2F2070640F69417C2F207074FF02C
S214080670000402F1FF3909F0010930683B68095D9A
S2140806809847A0421ADA14E030683B68295D984714
S21408069000280EDB04F1010430683A68295D9047AB
S2140806A000281DDA05E04FF0FF3404E04FF00004A0
S2140806B001E04FF0FF342046BDE8F88304F101045A
S2140806C0A045F8D0B9F1000FDED030683A68295D49
S2140806D090470028EDDB04F10104A045D4D1EAE7F1
S2140806E004F10104A045CFD1E5E700BF10B541F6F7
S2140806F05023C4F20E034FF400425A604FF00B002A
S21408070040F64144C0F20804A0474FF00C00A0474A
S2140807104FF00D00A0474FF00E00A0474FF03B00EB
S2140807204FF0605140F67504C0F20804A0474FF039
S21408073055004FF06051A0474FF056004FF06051FB
S214080740A0474FF068004FF07901C2F60001A047B5
S2140807504FF05C004FF00101C2F60001A0474FF4CD
S2140807606060C4F20E004FF440714FF0006240F62D
S2140807707513C0F2080398474FF02B004FF000613E
S214080780A0474FF02A004FF00061A04710BD00BFF9
S2140807900AB1416670470166704700BF4264B1F10E
S2140807A0805F16D004D8C9B1B1F1006F15D109E041
S2140807B0B1F1405F12D0B1F1605F0FD0B1F1205FA8
S2140807C00BD17047036F016F0B4023EA02030367E0
S2140807D003E0036F42EA030101674260704700BF07
S2140807E041647047F8B504460D4616461F4640F263
S2140807F0E173C0F20803984720462946069A40F255
S2140808009173C0F2080398470FB1256500E0656547
S2140808100EB1256300E0656325612560F8BD00BF5D
S21408082070B504460D46164640F2E173C0F208035A
S21408083098472046294606F0010240F29173C0F216
S2140808400803984716F00A0F14BF2562656216F06B
S214080850020F02D0C4F8805004E016F0080F18BF44
S214080860C4F880506561256070BD00BFC06C7047D5
S214080870806C7047F0B583B00D464FEA501606F503
S214080880001101F207724FEA422605F0F044B4F16F
S214080890205F42D006D8B4F1006F0AD0B4F1805F6A
S2140808A064D120E0B4F1405F46D0B4F1605F5DD11A
S2140808B042E000F01F074FF0010404FA07F730463D
S2140808C04FF000613A4640F29D73C0F2080398471D
S2140808D03046394605EA040240F29173C0F208032E
S2140808E09847204644E000F01F004FF0010404FA41
S2140808F000F730464FF080513A4640F29D73C0F2FA
S214080900080398473046394605EA040240F29173D0
S214080910C0F20803984720462AE000F01F024FF06E
S2140809200104304604FA02F12A4640F62103C0F2D2
S2140809300803984720461BE000F01F024FF001040A
S21408094005F0605305EA04010091304604FA02F106
S214080950B3F1605F14BF00220122C5F3800340F2A2
S214080960E575C0F20805A847204601E04FF00000EC
S21408097003B0F0BDF0B583B007460E46154602F044
S214080980F044B4F1205F36D006D8B4F1006F0AD030
S214080990B4F1805F4DD11AE0B4F1405F33D0B4F1C2
S2140809A0605F46D12FE04FF00061324640F29D73FB
S2140809B0C0F2080398473846314605F0010240F26F
S2140809C09173C0F2080398474FF0010033E04FF0E8
S2140809D08051324640F29D73C0F208039847384665
S2140809E0314605F0010240F29173C0F208039847B9
S2140809F04FF001001FE040F62103C0F208039847B5
S214080A004FF0010017E005F0605205F00100009075
S214080A1038463146B2F1605F14BF00220122C5F3A2
S214080A20800340F2E574C0F20804A0474FF00100C6
S214080A3001E04FF0000003B0F0BD00BFF8B5044673
S214080A400E4640F66D03C0F2080398470546204652
S214080A5040F67101C0F208018847054014D00B4CD7
S214080A60274654F80C0CB0420AD154F8081C294200
S214080A7006D022683046904754F8083C25EA030515
S214080A8004F11004002DEBD1F8BD00BF780807204C
S214080A9008B54FF46060C4F20E004FF00B0140F644
S214080AA03D23C0F20803984708BD00BF08B54FF4B9
S214080AB08050C4F20E004FF00C0140F63D23C0F201
S214080AC00803984708BD00BF08B54FF49050C4F215
S214080AD00E004FF00D0140F63D23C0F2080398477C
S214080AE008BD00BF08B54FF4A050C4F20E004FF082
S214080AF00E0140F63D23C0F20803984708BD00BF24
S214080B004FF4C063C4F20E031A6B22F07001084358
S214080B101863986E10F0080F07D010E000F1FF3346
S214080B20906E10F0080F38D009E04FF400604FF4CC
S214080B30C062C4F20E02916E11F0080FEED04FF4A8
S214080B40C061C4F20E010A6B22F0030343F00200F0
S214080B500863896E11F0080F09D04FF0000070473F
S214080B6003F1FF33916E11F0080F13D009E04FF42C
S214080B7000634FF4C062C4F20E02906E10F0080FC5
S214080B80EED04FF0000070474FF0010070474FF06E
S214080B9001007047013BF0D1F9E7581ECBD1F3E7C7
S214080BA088B14FF4C061C4F20E01086A4FF6FC72B1
S214080BB0CFF6C86202404FF00203C0F2371342EA8B
S214080BC00300086270474FF4C063C4F20E031A6A43
S214080BD022F45C1020F0030242F45C1040F001029C
S214080BE04FEA016142EA114018624FF4C062C4F24B
S214080BF00E02936E13F0010FFBD04FF4C061C4F2DF
S214080C000E01086A40F09B7242F480330B6270470C
S214080C104FF4C063C4F20E03986E00F48030704739
S214080C204FF4C063C4F20E034FF000529A62704746
S214080C304FF4C063C4F20E03986E00F002007047CB
S214080C402C2835D81F2817D84FF4C061C4F20E01D7
S214080C508A694FF0010303FA00F31A4093422AD038
S214080C604FF0010101FA00F04FF4C062C4F20E0220
S214080C7010614FF0000070474FF4C063C4F20E03D3
S214080C80D3F80821A0F120004FF0010101FA00F185
S214080C900A40914212D04FF0010303FA00F04FF4D5
S214080CA0C062C4F20E02C2F800014FF0000070479E
S214080CB04FF0010070474FF0000070474FF00000FB
S214080CC0704700BF10B44FF0AC0303600A684C6866
S214080CD0B2FBF4F34FEA131303F1FF344FF6FE7238
S214080CE094420CD803628968416040F20223C0F837
S214080CF020314FF0500202604FF0000001E04FF044
S214080D00010010BC704700BF436913F0020F03D000
S214080D10C1614FF0000070474FF00100704700BFF8
S214080D20436913F0010F04D0806908704FF0000083
S214080D3070474FF001007047436913F0020F07D061
S214080D404FEAC1514FEAD152C2614FF000007047D6
S214080D504FF00100704700BF436913F0010F08D039
S214080D6080694FEAC0524FEAD2530B604FF000003A
S214080D7070474FF001007047FEE700BF38B540F2F5
S214080D800003C2F2070343F6A822C0F208029A42FA
S214080D9003D040484049814204D3404B404A9A42D7
S214080DA025D342E03F4D404C631B23F003054FF02C
S214080DB0000340F20002C2F2070243F6A821C0F27E
S214080DC0080105F10400C5F380045D589D5003F141
S214080DD00403834255D1E0E75D589D5003F10403B0
S214080DE05C589C5003F104038342F5D1D5E72F4D98
S214080DF02F49481B20F0030440F65003C2F20703AD
S214080E00E2184FF00001501BA0F10400C0F3800464
S214080E1045F8041F95422DD107E005F104036960E3
S214080E2005F1080559609542F7D140F20005C0F271
S214080E30080525F0604222F07F014FF46D40CEF29F
S214080E400000816005F16044B4F5801F07D24FF4B6
S214080E506D43CEF200039D6845F000529A6042F654
S214080E60D501C0F20801884741F2D140C0F2080017
S214080E708047FEE7002CD0D045F8041F9542CCD119
S214080E80D3E7002CA8D05C589C5003F10403834297
S214080E90A2D182E75008072000000720A0090720F3
S214080EA05008072004000720530807204C0807208E
S214080EB09B0907204FF4C063C4F20E03186B00F0BA
S214080EC00301032900F2B180DFE801F002144F4F56
S214080ED041F61020C4F20E00416911F0800F40F26E
S214080EE00003C2F2070314BF4FF400424FF4FA425D
S214080EF01A609AE04FF4C063C4F20E03186A10F042
S214080F00807F09D04FF4D853C0F2B70340F20002EE
S214080F10C2F20702136088E04FF41061C0F23D0188
S214080F2040F20002C2F2070211604FF4C063C4F236
S214080F300E03186A00F07001102902D0202974D117
S214080F4009E04FF49050C0F27A0040F20001C2F275
S214080F500701086069E04FF4D853C0F2B70340F2BF
S214080F600002C2F2070213605FE04FF4C062C4F2E8
S214080F700E02136A13F0807F09D04FF4D851C0F2DE
S214080F80B70140F20002C2F20702116027E04FF4F0
S214080F901060C0F23D0040F20001C2F2070108608E
S214080FA04FF4C062C4F20E02136A03F070001028F1
S214080FB002D0202813D109E04FF49053C0F27A03E8
S214080FC040F20000C2F20700036008E04FF4D85170
S214080FD0C0F2B70140F20002C2F2070211604FF4F5
S214080FE0C063C4F20E03186B00F00301022913D184
S214080FF04FF4C061C4F20E01886A896A40F20003A1
S214081000C2F20703C0F30A401A6800FB0220C9B2FE
S214081010B0FBF1F21A6008E04FF4E053C0F64E63F6
S21408102040F20002C2F2070213604FF4C062C4F234
S2140810300E02106B00F0700170290ED140F200030A
S214081040C2F2070318684AF6AB22CAF6AA22A2FB1F
S21408105000014FEA5100186070474FF4C063C4F2AD
S2140810600E031A6B40F20000C2F20700C2F3021128
S214081070036823FA01F30360704700BF4EF6BF23E8
S214081080C0F2211398420CD84FF42063C4F20E0322
S2140810904FF0000018604FF44061C4F20E0108607B
S2140810A070474FF27F01C0F2FA2188420CD84FF4FD
S2140810B02060C4F20E004FF4807101604FF4406265
S2140810C0C4F20E021160704748F6FF73C0F2D033C0
S2140810D098420CD84FF42061C4F20E014FF4007207
S2140810E00A604FF44063C4F20E031A6070474BF26E
S2140810F0FF31C0F2C44188420CD84FF42063C4F2D2
S2140811000E034FF440721A604FF44060C4F20E00AB
S2140811100260704744F67F23C0F25D5398424FF44E
S2140811202060C4F20E0094BF4FF480624FF4A062B1
S21408113002604FF44061C4F20E010A60704700BFB7
S21408114040F6DC03C2F20703196841B940F6DC032F
S214081150C2F2070342F6A012C2F207021A6040F66D
S214081160DC01C2F207010B681818086018467047B9
S2140811704FF0FF30704700BF4FF400534B604FF0FE
S214081180000070474FF00100704700BF4FF00000A6
S214081190704700BF70B58CB006466C4643F66405CB
S2140811A0C0F208050FCD0FC40FCD0FC495E80F0089
S2140811B084E80F004FF0250040F64143C0F20803CC
S2140811C0984700283ED14FF00004C4F20C0420468D
S2140811D04FF4F441C0F6032149F68072C0F2D502F6
S2140811E04FF0080340F2A515C0F20805A8472046A8
S2140811F04FF000014FF440124FF0010340F205256E
S214081200C0F20805A84720464FF0000140F2E51254
S214081210C0F2080290470CA800EB8606204616F88F
S214081220301C40F22D23C0F20803984720464FF0A2
S21408123000010A4640F2F513C0F2080398474FF03B
S214081240010001E04FF000000CB070BD704700BF11
S214081250704700BF10B582B04FF0000041F29513FA
S214081260C0F20803984701464FF0940000904FF0EC
S21408127001004FF000024FF01F0342F2CD24C0F2E7
S2140812800804A0474FF01801C4F20C010A684FF092
S214081290220300934FF080004FF0FF314FF0000319
S2140812A042F2C914C0F20804A04702B010BD00BF3D
S2140812B010B54FF00004C4F20C04204640F2252373
S2140812C0C0F20803984744F24020C0F20F0040F2EC
S2140812D08121C0F208018847204640F23922C0F230
S2140812E00802904750B943F69400C0F208004FF041
S2140812F02A0142F2CD33C0F20803984710BD00BF5A
S214081300F0B583B004460D464FF0000301934FF442
S2140813100060C4F20E0084420DD14FF40066C4F299
S2140813200E0640F62157C0F2080730462946B84749
S2140813300028FAD12BE04FF40041C4F209018C4290
S2140813400FD14FF40046C4F2090640F65957C0F2CA
S2140813500807304601A9B8470028FAD1019828702E
S2140813602BE04FF44042C4F2090294420FD14FF4E6
S2140813704044C4F2090440F65956C0F2080620460E
S21408138001A9B0470028FAD1019B2B702AE04FF03C
S2140813900001C4F20A018C420FD14FF00004C4F2D7
S2140813A00A0440F65956C0F20806204601A9B04776
S2140813B00028FAD10198287014E04FF48042C4F24D
S2140813C00A0294420ED14FF48044C4F20A0440F64E
S2140813D05956C0F20806204601A9B0470028FAD197
S2140813E0019B2B7003B0F0BD70B50C464FF400633C
S2140813F0C4F20E0398420FD14FF40065C4F20E05EE
S21408140040F60956C0F2080628462146B047002886
S214081410FAD14FF0010070BD4FF40041C4F2090143
S21408142088420FD14FF40045C4F2090540F63956F4
S214081430C0F2080628462146B0470028FAD14FF0E1
S214081440010070BD4FF44042C4F2090290420FD129
S2140814504FF44045C4F2090540F63956C0F208066E
S21408146028462146B0470028FAD14FF0010070BD43
S2140814704FF00003C4F20A0398420FD14FF000055C
S214081480C4F20A0540F63956C0F208062846214630
S214081490B0470028FAD14FF0010070BD4FF48041E4
S2140814A0C4F20A0188420FD14FF48045C4F20A05F7
S2140814B040F63956C0F2080628462146B0470028A6
S2140814C0FAD14FF0010070BD4FF0000070BD00BFAC
S2140814D030B585B040F24D53C0F20803984740F245
S2140814E0ED60C0F2080080474FF00B0040F641441C
S2140814F0C0F20804A0474FF00C00A0474FF00D00BC
S214081500A0474FF00E00A04740F2D921C0F20801CC
S214081510884740F24142C0F2080290474FF0080060
S214081520A0474FF40065C4F20E0540F69813C2F2C1
S21408153007031D6040F69410C2F2070041F2E93135
S214081540C0F20801016040F69013C2F2070341F2A8
S2140815500132C0F208021A604FF43D40C0F2015052
S21408156000904FF4E13101914FF4006302934FF07D
S2140815700800A0472846694640F6C544C0F2080455
S214081580A04740F21005C2F207052A6890684FF097
S214081590000142F63114C0F20804A04728684068E3
S2140815A04FF00001A04740F6E001C2F2070143F6FB
S2140815B0B003C0F208030B6042F2E552C0F208021C
S2140815C0904741F25520C0F2080043F6C401C0F225
S2140815D008014FF00A0242F27554C0F20804A04708
S2140815E041F2B120C0F2080043F6EC01C0F208014F
S2140815F04FF01402A04742F2FD50C0F208008047A0
S2140816004FF0000005B030BD2DE9F843071E4BDA51
S21408161040F21003C2F2070318688268916801F165
S214081620FF349460002C26DA826895689669B5427D
S21408163019DB10684FF02D02027040F21001C2F25A
S214081640070108688268146825780A2D03D004F113
S214081650010414601EE04FF00A0142F64926C0F263
S2140816600806B04716E04FF02D0142F64923C0F2AF
S214081670080398470EE0806805684FF02D062E7020
S21408168040F21003C2F207031A6891680C6804F166
S21408169001040C60C7F1000706E004EB84004FEA7B
S2140816A04002944203DB07E04FF0010400E01446D2
S2140816B097FBF4F3092BF0DC40F21006C2F207069B
S2140816C046F26765C6F2666542F64928C0F208081B
S2140816D04FF00A09306881688B6803F1FF328A6028
S2140816E0002A32DA82689168936999421CDB11688D
S2140816F097FBF4F385FB03204FEAE372C2EBA000E6
S21408170000EB8002A3EB420303F130030B70306852
S2140817108268136819780A2903D003F10103136055
S2140817202AE04946C04727E097FBF4F385FB031EEB
S2140817304FEAE371C1EBAE0101EB8101A3EB410374
S21408174003F13003D9B2C04716E08068016897FBFA
S214081750F4F385FB03204FEAE372C2EBA00000EB2C
S2140817608002A3EB420303F130030B7031688868EC
S214081770026802F10102026085FB04104FEAE47475
S214081780C4EBA004002CA5DCBDE8F8832DE9F843DB
S21408179006464FF0010406E004EB84004FEA4001D9
S2140817A08C4204D20C46B6FBF4F3092BF4D840F26C
S2140817B01007C2F207074CF6CD45CCF6CC4542F6E4
S2140817C04928C0F208084FF00A093B6898688268FA
S2140817D002F1FF31816000292FDA9A6890689169D2
S2140817E088421ADB1168B6FBF4F3A5FB03024FEA3E
S2140817F0D20000EB8002A3EB420303F130030B7028
S21408180038688268136819780A2903D003F1010337
S214081810136027E04946C04724E0B6FBF4F1A5FB71
S21408182001E04FEAD00000EB8000A1EB400101F197
S21408183030011846C9B2C04714E09B681968B6FB61
S214081840F4F3A5FB03024FEAD20000EB8002A3EBF9
S214081850420303F130030B7039688868026802F1A6
S21408186001020260A5FB0434E408AED1BDE8F883A3
S2140818702DE9F84306460C4640F21003C2F2070369
S21408188018688268916801F1FF339360002B26DAA6
S214081890826891689369994219DB10684FF03002A4
S2140818A0027040F21001C2F20701086882681368E5
S2140818B019780A2903D003F1010313601EE04FF0DC
S2140818C00A0142F64923C0F20803984716E04FF08B
S2140818D0300142F64923C0F2080398470EE08068B4
S2140818E001684FF030020A7040F21003C2F2070394
S2140818F0186881680A6802F101020A6040F210005E
S214081900C2F2070000688268916801F1FF339360AD
S214081910002B28DA826891689369994219DB106867
S2140819204FF07802027040F21001C2F20701086810
S2140819308268136819780A2903D003F10103136033
S2140819400EE04FF00A0142F64923C0F20803984712
S21408195006E04FF0780142F64923C0F2080398479C
S2140819608CB9BDE8F883806801684FF078020A7081
S21408197040F21003C2F20703186881680A6802F189
S21408198001020A60ECE740F21005C2F2070542F6CB
S2140819904927B946C0F208094FF00A0804F1FF348F
S2140819A0E4B24FEA840026FA00F202F00F03092B8D
S2140819B02DD8286881688A6802F1FF328A60002A72
S2140819C019DA826891689769B94210DB106803F1E2
S2140819D03003037028688268136819780A2903D0C8
S2140819E003F1010313603FE04146C8473CE003F1BA
S2140819F03001C84738E08068016803F130030B708F
S214081A002B689868026802F1010202602CE02868D8
S214081A1081688A6802F1FF328A60002A19DA8268C9
S214081A2091689769B94210DB106803F137030370B1
S214081A3028688268136819780A2903D003F1010315
S214081A40136011E04146C8470EE003F13701C84766
S214081A500AE08068016803F137030B702B68986802
S214081A60026802F101020260002C97D1BDE8F883F3
S214081A7008B511F0100F05D041F20963C0F208034B
S214081A80984708BD11F0200F10D001F00F0202F1A0
S214081A90FF3143F66023C0F2080353F821201040B4
S214081AA041F28D71C0F20801884708BD01F00F01A8
S214081AB04FEA410141F67103C0F20803984708BD92
S214081AC0F8B50446002800F03C810378002B00F0A7
S214081AD0388104F1010440F21005C2F2070541F608
S214081AE07106C0F2080642F64927C0F20807A3F1B5
S214081AF02002D0B25E282ED828688268936803F140
S214081B00FF31916000291ADA8268916893699942D0
S214081B1011DB106814F8012C0270286882681368B4
S214081B2019780A2903D003F10103136004E14FF082
S214081B300A01B84700E114F8011CB847FCE08068C1
S214081B40036814F8012C1A7029688868036803F17A
S214081B5001030360F0E00D2B5CD128688268936867
S214081B6003F1FF31916000291ADA82689168936957
S214081B70994211DB10684FF05C0202702868826890
S214081B80136819780A2903D003F10103136012E0D9
S214081B904FF00A01B8470EE04FF05C01B8470AE07C
S214081BA0806803684FF05C021A70296888680368C2
S214081BB003F10103036028688268936803F1FF3124
S214081BC0916000291ADA826891689369994211DB54
S214081BD010684FF0720202702868826813681978D5
S214081BE00A2903D003F101031360A5E04FF00A01A8
S214081BF0B847A1E04FF07201B8479DE080680368D7
S214081C004FF072021A7029688868036803F10103A6
S214081C10036091E00A2B5CD128688268936803F118
S214081C20FF31916000291ADA8268916893699942AF
S214081C3011DB10684FF05C0202702868826813682F
S214081C4019780A2903D003F10103136012E04FF054
S214081C500A01B8470EE04FF05C01B8470AE0806812
S214081C6003684FF05C021A7029688868036803F1F5
S214081C700103036028688268936803F1FF31916066
S214081C8000291ADA826891689369994211DB10680C
S214081C904FF06E02027028688268136819780A295D
S214081CA003D003F10103136046E04FF00A01B8477A
S214081CB042E04FF06E01B8473EE0806803684FF098
S214081CC06E021A7029688868036803F101030360C6
S214081CD032E0286881688B6803F1FF328A60002A40
S214081CE01ADA826891689369994211DB10684FF096
S214081CF05C02027028688268136819780A2903D07B
S214081D0003F10103136012E04FF00A01B8470EE032
S214081D104FF05C01B8470AE0806801684FF05C0342
S214081D200B702A689068016801F10101016014F8D7
S214081D30010C4FF00201B04714F8013B002B7FF46A
S214081D40D6AEF8BD2DE9F84F074688464FF0200571
S214081D504FF0004440F21006C2F207064FF058094A
S214081D6042F6492AC0F2080A4FF00A0B3C425ED0F7
S214081D7014EA080F2DD030688268936803F1FF31A3
S214081D809160002919DA826891689369994210DB94
S214081D9010684FF03102027030688268136819784C
S214081DA00A2903D003F1010313606AE05946D047B5
S214081DB067E04FF03101D04763E0806803684FF072
S214081DC031021A7031688868036803F101030360FA
S214081DD057E030688268936803F1FF319160002904
S214081DE019DA826891689369994210DB10684FF097
S214081DF03002027030688268136819780A2903D09E
S214081E0003F1010313603CE05946D04739E04FF030
S214081E103001D04735E0806803684FF030021A700A
S214081E2031688868036803F10103036029E03068B5
S214081E308268936803F1FF319160002917DA826897
S214081E409168936999420FDB126882F800903068AF
S214081E508268136819780A2903D003F1010313600E
S214081E600FE05946D0470CE04946D04709E080685D
S214081E70026882F8009033689968086800F10100E3
S214081E8008604FEA5404013D7FF470AFBDE8F88F50
S214081E9008B543F60810C0F2080041F6C123C0F2A0
S214081EA00803984708BD00BF08B543F61010C0F2EF
S214081EB0080041F6C123C0F20803984708BD00BFD2
S214081EC038B50D4641F6C123C0F20803984740F2DC
S214081ED01000C2F2070000688468A26802F1FF31A9
S214081EE0A160002926DA8268936891698B4219DB1B
S214081EF010684FF03A02027040F21001C2F2070171
S214081F0008688268136819780A2903D003F1010360
S214081F1013601EE04FF00A0142F64923C0F2080398
S214081F20984716E04FF03A0142F64923C0F20803F4
S214081F3098470EE0836818684FF03A02027040F23D
S214081F401001C2F207010B689868026802F10102E4
S214081F500260284641F20962C0F20802904740F241
S214081F601000C2F20700006881688B6803F1FF3230
S214081F708A60002A26DA826891689369994219DB92
S214081F8010684FF03A02027040F21001C2F20701E0
S214081F9008688268136819780A2903D003F10103D0
S214081FA013601EE04FF00A0142F64923C0F2080308
S214081FB0984716E04FF03A0142F64923C0F2080364
S214081FC098470EE0806801684FF03A030B7040F2BD
S214081FD01002C2F20702106881680B6803F1010359
S214081FE00B6040F6E000C2F20700406841F6C122E6
S214081FF0C0F20802904740F21001C2F207010868D2
S2140820008268936803F1FF319160002926DA8268B6
S21408201091689369994219DB10684FF03A0202708A
S21408202040F21001C2F2070108688268136819783E
S2140820300A2903D003F10103136038BD4FF00A01E3
S21408204042F64923C0F20803984738BD4FF03A01D4
S21408205042F64923C0F20803984738BD80680368EB
S2140820604FF03A021A7040F21001C2F207010868EF
S21408207083681A6802F101021A6038BD08B501467D
S21408208040F6E003C2F20703186841F6C162C0F2E0
S2140820900802904743F61410C0F2080041F6C12122
S2140820A0C0F20801884708BD08B540F6E003C2F24A
S2140820B00703D86940B140F6E000C2F2070042695B
S2140820C002F10102426165E040F6E001C2F2070152
S2140820D08A69002A56D140F6E001C2F2070108686C
S2140820E0896841F6C162C0F20802904743F61C10A0
S2140820F0C0F2080041F6C123C0F20803984740F230
S2140821001000C2F20700006881688A6802F1FF338F
S2140821108B60002B26DA826891689369994219DBEE
S21408212010684FF00A02027040F21001C2F207016E
S21408213008688268136819780A2903D003F101032E
S214082140136027E04FF00A0142F64923C0F208035D
S21408215098471FE04FF00A0142F64923C0F20803E9
S214082160984717E0806801684FF00A020A7040F244
S2140821701003C2F20703186881680A6802F10102B0
S2140821800A6007E040F6E003C2F20703186900F1A8
S2140821900100186140F6E001C2F207014FF00003A3
S2140821A08B61CB6108BD00BF38B5054658B140F213
S2140821B00C03C2F20703186841F6C124C0F20804EB
S2140821C0A0472846A04738BD2DE9F84305460F46E0
S2140821D01646984640F6E004C2F20704A469002CA6
S2140821E05BD140F6E003C2F20703DA69002A54D14D
S2140821F086EA0100284250D0089829498847294C81
S2140822002068DFF8C490C84728463946264FB8479E
S214082210264B1868C84728463146B8474046244DD6
S214082220A847244E4FF00102B2612348006881682F
S2140822308C6804F1FF378F60002F1DDA8268976874
S21408224093699F4213DB16684FF00A0232701A48E9
S21408225000688268146821780A2903D004F101040A
S214082260146015E04FF00A01144FB84710E04FF01D
S2140822700A01124DA8470BE083681D684FF00A064E
S2140822802E700D4A106881680C6804F101040C6011
S2140822900B484FF001010B4B9847BDE8F88300BF89
S2140822A07D20080008000720451D080004000720B8
S2140822B0A9210800E008072010000720492A08007E
S2140822C0000907204D290800C11A08002DE9F8431F
S2140822D006460D4690469DF8207040F6E004C2F289
S2140822E00704A469002C59D140F6E002C2F207029E
S2140822F0D469002C52D1884250D01846284B9847AB
S21408230028480068DFF8C090C84730463946264E49
S214082310B04726490868C84728463946B047404661
S214082320234DA847234F4FF00104BC61224A10688A
S2140823308668B36803F1FF31B16000291DDA826848
S21408234091689569A94213DB10684FF00A04047077
S214082350194A10688268166833780A2B03D006F183
S2140823600106166015E04FF00A01144DA84710E064
S2140823704FF00A01114FB8470BE0806805684FF028
S2140823800A072F700C4C22689668336803F101031D
S21408239033600B484FF001010A4FB847BDE8F88391
S2140823A07D20080008000720711A0800040007208E
S2140823B0A9210800E008072010000720492A08007D
S2140823C0000907204D290800C11A080010B5044660
S2140823D040F6E003C2F207039869002840F0B88088
S2140823E040F6E002C2F20702D369002B40F0B08044
S2140823F058480068584A904758498847002C6BD078
S214082400574B18688268916801F1FF339360002B78
S2140824101DDA826891689369994213DB10684FF059
S2140824203A0202704E4908688268136819780A29C1
S21408243003D003F10103136015E04FF00A01494B7E
S214082440984710E04FF03A01464B98470BE08068F3
S21408245001684FF03A020A70414B186881680A68AA
S21408246002F101020A602078202832D03C4A10681F
S21408247081688B6803F1FF328A60002A1DDA826859
S21408248091689369994213DB10684FF02002027036
S214082490334908688268136819780A2903D003F153
S2140824A00103136015E04FF00A012E4B984710E021
S2140824B04FF020012B4B98470BE0806801684FF0DF
S2140824C020030B70264A106881680B6803F1010325
S2140824D00B602046244CA0471E484FF0010282613C
S2140824E01F4908688468A36803F1FF32A260002ABF
S2140824F01DDA8268946893699C4213DB10684FF073
S2140825000A02027016490868826813681C780A2C42
S21408251003D003F10103136015E04FF00A01114BD5
S214082520984710E04FF00A010E4CA0470BE0806871
S21408253001684FF00A040C70094B1A689068016825
S21408254001F10101016009484FF00101084A90476E
S21408255010BD00BFE0080720C11E0800911E080035
S21408256010000720492A0800C11A08000009072099
S2140825704D29080000B583B0019040F6E000C2F28D
S214082580070041608260C36803F10103C36000F17D
S214082590200042F64111C0F20801884730B941F2DE
S2140825A04D20C0F208008047019A90470C4842F632
S2140825B04113C0F20803984750B940F6E001C2F24A
S2140825C00701C86920B941F25122C0F208029047B3
S2140825D042F2A903C0F20803984703B000BD00BF43
S2140825E00009072040F6E003C2F207034FF0000296
S2140825F0DA601A615A619A61DA61704770B543F613
S2140826002C10C0F2080041F6C123C0F20803984710
S21408261040F21000C2F2070000688268916801F173
S214082620FF349460002C26DA826895689669B5426D
S21408263019DB10684FF00A02027040F21001C2F26D
S214082640070108688268146825780A2D03D004F103
S214082650010414601EE04FF00A0142F64926C0F253
S2140826600806B04716E04FF00A0142F64923C0F2C2
S214082670080398470EE085682E684FF00A03337003
S21408268040F21000C2F20700026891680C6804F174
S21408269001040C6040F6E006C2F20706F06841F254
S2140826A00965C0F20805A84743F64410C0F20800BA
S2140826B041F6C124C0F20804A0473069A84743F68B
S2140826C04C10C0F20800A0477069A84743F6581097
S2140826D0C0F20800A04740F21003C2F207031868C9
S2140826E08268916801F1FF339360002B26DA8268CE
S2140826F091689369994219DB10684FF00A020270D4
S21408270040F21001C2F20701086882681368197857
S2140827100A2903D003F1010313601EE04FF00A01F3
S21408272042F64923C0F20803984716E04FF00A011C
S21408273042F64923C0F2080398470EE0806801680D
S2140827404FF00A020A7040F21003C2F20703186834
S21408275081680A6802F101020A6040F6E000C2F2E7
S214082760070002692AB941F6A963C0F20803984728
S21408277004E041F69161C0F20801884740F2100073
S214082780C2F2070000688268916801F1FF3393601F
S214082790002B26DA826891689369994219DB1068DB
S2140827A04FF00A02027040F21001C2F207010868F0
S2140827B08268136819780A2903D003F101031360A5
S2140827C01EE04FF00A0142F64923C0F20803984774
S2140827D016E04FF00A0142F64923C0F2080398476C
S2140827E00EE0806801684FF00A020A7040F2100393
S2140827F0C2F20703186881680A6802F101020A60D3
S21408280040F6E000C2F20700006970BD2DE9F84303
S2140828109846234B06461C680F46D4F8480191464E
S21408282018B904F5A670C4F8480141681F2916DDD2
S2140828301C4818B94FF0FF30BDE8F8834FF4C8704D
S21408284000F0EAFC0028F5D0D4F8482100254560B9
S2140828500260C4F84801C0F88851C0F88C51B6B177
S2140828604468012202FA04F2D0F8881100EB8403C7
S2140828701143022EC3F88890C0F888111C46C3F886
S214082880088104D1D0F88C311A43C0F88C214168ED
S2140828908B1C4A1C40F8237042600020BDE8F88371
S2140828A07C3A08001932080070B5084B084C002519
S2140828B0E01A841003EB8406043D1CB17259904755
S2140828C0013CF9E7BDE8704001F0E6B8A43A080014
S2140828D0A83A080038B50E4D0E4B0024E81A8510A5
S2140828E0AC4205D00B4951F8242090470134F7E74D
S2140828F001F0C8F80849094A541AA5100024AC4241
S21408290005D0054B53F8240080470134F7E738BD57
S214082910903A0800903A0800903A0800983A08005A
S21408292082180346934202D003F8011BFAE7704761
S21408293000290CBF022200224FF4806300F00EB874
S214082940EC46A0E8F05F4FF000007047B0E8F05F94
S214082950E546080008BF0120704700BF2DE9F04192
S2140829601D46374B044618680E461746984618B153
S214082970826B0AB900F020FA022F5DD8002D5BDBC7
S2140829802146D8F8000000F025F9A189002001F0BA
S21408299080031AB26060A06122B1294821690068E4
S2140829A000F0D4FAA189022F21F08303A38112D064
S2140829B036BB002D08BF4FF48065284600F02CFC77
S2140829C00646C8B94FF4806000F026FC064688B96B
S2140829D04FF0FF3000E00020A189002241F00203FA
S2140829E0A38104F143010123A26021602161636190
S2140829F0BDE8F0814FF48065A28942F08000A0818E
S214082A00012F05D1A1896A4241F00103A381A26181
S214082A100B48A28901680B4B02F0080000B2CB6392
S214082A2026602661656148B112F0030F18BF0025BD
S214082A30A5600020BDE8F0814FF0FF30BDE8F081CA
S214082A40100007202D2D080070B50D4614460646C2
S214082A5018B1836B0BB900F0AFF9A189A06901F032
S214082A60080213B2A0600BB1206958B93046214657
S214082A7000F044F830B1A589092045F04001A1814D
S214082A80306017E0A189EDB201F4005213B233B9F1
S214082A9041F40050616EA08121F4005262662068FD
S214082AA023696169C01A884207DB3046214600F070
S214082AB091F810B14FF0FF3515E0A2682168531E53
S214082AC0A36001F8015B626901309042216004D07E
S214082AD0A389DB0707D50A2D05D13046214600F025
S214082AE079F80028E6D1284670BD0A46024903460A
S214082AF008681946FFF7A8BF1000072038B52C4B02
S214082B00054618680C4618B1826B0AB900F054F9E5
S214082B10A08900F008010BB20BBB00F0100211B23E
S214082B2011B94FF0FF3038BD00F0040003B293B17E
S214082B30216B41B104F14002914202D0284600F0D0
S214082B4005FA00212163A089216920F024030022C8
S214082B50A38162602160A08940F00803A3812269EE
S214082B604AB9A18901F42070B0F5007F03D0284641
S214082B70214600F0E5FAA38913F0010205D0616941
S214082B8000224842A260A06107E003F0020108B2F2
S214082B9008B9636900E01346A360236933B9A289BC
S214082BA002F0800108B20028BBD138BD002038BD2D
S214082BB010000720024B13B1024800F005B8704712
S214082BC000000000A9280800014600200246034627
S214082BD0FFF71CBE2DE9F0410C46054618B1836B7D
S214082BE00BB900F0E9F8A28932B302F0080001B286
S214082BF0002962D1616842F400600029A08102DCE5
S214082C00E36B002B18DDA66AB6B102F480520020EA
S214082C1012B22F6828600AB1226D10E001232846F8
S214082C20E169B0470246013009D1296839B11D2942
S214082C3001D016294ED12F600020BDE8F081A68964
S214082C4006F004010BB22BB16068266B121A0EB19F
S214082C50E16B521AE1690023A66A2846B047411C70
S214082C6005D12A681AB11D2A01D0162A1FD1A389B0
S214082C70002123F40062A28103F480532269616074
S214082C8019B2226021B1421C01D12A6802B9206516
S214082C90216B2F600029CFD004F14000814202D07A
S214082CA0284600F053F900202063BDE8F081A38988
S214082CB043F04001A181BDE8F0812669002EBBD013
S214082CC0920723680CBF62690022C6EB03082660D9
S214082CD0A26012E0A38943F04000A0814FF0FF30C5
S214082CE0BDE8F081676A2846E16932464346B84738
S214082CF00028EFDD3618C0EB0808B8F1000FF1DC45
S214082D009AE7014620B904480449006800F0F5B976
S214082D10034B1868FFF75EBF7C3A0800D52B0800FF
S214082D20100007200020704700207047014900F077
S214082D30C3B900BFB9370800002310B504460360BE
S214082D404360836081814366C28103614361836116
S214082D501946082200F15C00FFF7E2FD0448054921
S214082D60054A064BE46120626162A262E36210BD16
S214082D706136080087360800C3360800E7360800BC
S214082D8070B568254D430E4605F10C0100F054FA5F
S214082D90044640B100F10C00002184E84200A0601F
S214082DA02A46FFF7BDFD204670BD024B1868FFF7A0
S214082DB0BDBF00BF7C3A080038B5836B0446EBB944
S214082DC00F4A0125C0F8E032C263856304F53B71FB
S214082DD003201A46C4F8E402C4F8E812606804211E
S214082DE0FFF7AAFFA06809212A46FFF7A5FFE068B3
S214082DF012210222BDE83840FFF79EBF38BD00BF4B
S214082E002D2D0800F8B51D4B07461E68B06B10B987
S214082E103046FFF7D1FF06F53876B4687168013991
S214082E2004D4B4F90C5085B16834F8E732680AB1AE
S214082E303668F2E738460421FFF7A2FF306000281C
S214082E40F6D10C243C60044615E04FF6FF730120CB
S214082E50A081E38165662560A5606560256165617A
S214082E60A56104F15C0029460822FFF759FD256391
S214082E7065636564A5642046F8BD00BF7C3A080013
S214082E807047704770477047024B0349186800F050
S214082E9013B900BF10000720252D0800024B034970
S214082EA0186800F009B900BF10000720292D08008F
S214082EB0F8B5234D0E46044600F0C0FBAB685F68C5
S214082EC027F0030707F6EF70811B21F47F6222F0D4
S214082ED00F06A6F58056B6F5805F04DA204600F0A1
S214082EE0AEFB0020F8BD0021204600F0A9FBAB6829
S214082EF0D9198842F2D17142204600F0A1FB013070
S214082F0010D10021204600F09BFBAB68C21A0F2A9E
S214082F10E4DD0C4942F0010209685A60401A0A4981
S214082F200860DBE7084BA8681A68BF1B47F001076C
S214082F304760961B20461E6000F081FB0120F8BD06
S214082F40400407204808072060090720F8B5064609
S214082F500D46002900F0A68000F070FB55F804CC5A
S214082F60514FA5F108032CF001029C18B968606857
S214082F708C4220F003000CF001011CD1821839B9EC
S214082F8055F8081C5B1A98685218D968C16088609A
S214082F90454842F0010159608360444B19688A42EB
S214082FA004D3434A30461168FFF782FF3046BDE82F
S214082FB0F84000F044BB606059B955F8085C08371B
S214082FC05B1B52199D68BD4205D0DF68EF60BD6087
S214082FD002E0002100E0012125186D6815F0010FB8
S214082FE00FD1121849B9A068324DA84205D1EB6036
S214082FF0AB60D8609860012103E0E068A468E060F0
S214083000846042F0010058609A500029CED1B2F58B
S214083010007F0CD2D2089010012404FA00F422494A
S21408302048682043486001EBC200816835E0540ACE
S214083030042C02D89409383416E0142C01D85B34D2
S21408304012E0542C02D8140B6E340DE0B4F5AA7FA7
S21408305002D8D40B773407E040F25455AC4202D875
S214083060940C7C3400E07E240F4D05EBC400816888
S21408307081420CD10122A41002FA04F4686844EADA
S21408308000026A60084608E08968814204D04C68F5
S21408309024F00304A242F7D3C868D8609960836016
S2140830A0CB6083E7F8BD00BF400407204C08072024
S2140830B05C090720480407202DE9F04104468846A5
S2140830C0FFF7DEFE04F5387400268CB1A56867683D
S2140830D0013F0BD4B5F90C3033B1B5F90E00431CDB
S2140830E002D02846C04706436835F1E72468ECE76F
S2140830F0FFF7C7FE3046BDE8F0812DE9F843804665
S2140831008946FFF7BDFE08F53874002694B1A56811
S2140831106768013F0CD4B5F90C303BB1B5F90E0021
S214083120431C03D040462946C84706436835F0E79F
S2140831302468EBE7FFF7A5FE3046BDE8F8830000F5
S214083140F0B58B890C4603F002010AB291B0064628
S214083150002A3FD1B4F90E1000290DDAA78907F026
S214083160800247F4006310B200280CBF4FF4806555
S2140831704025A381002720E001AA00F025FB0028AF
S214083180ECDB029800F47045B5F500535F425F41EA
S214083190B5F5004F0BD1A16A1D4A914207D1A38904
S2140831A04FF4806543F48061A181E56405E0A08959
S2140831B040F40065A5814FF480653046294600F046
S2140831C03BF870B9A38903F4007210B2E8B943F06B
S2140831D00201A18104F14303012223602361626195
S2140831E013E0A2890B4942F08003F163A3812060B3
S2140831F0206165614FB13046B4F90E1000F0F6FA5A
S21408320018B1A08940F00101A18111B0F0BD00BF3E
S214083210C33608002D2D0800024B0146186800F03A
S2140832200BB800BF10000720024B01461868FFF7CE
S2140832308DBE00BF100007202DE9F04701F10B04F2
S214083240162C064603D934F0070401D502E01024EC
S2140832508C4202D20C253560D9E1304600F0EEF9F2
S214083260B4F5FC7F14D2A04DE10805EBC100C56893
S214083270854205D105F108036D698A1C9D4244D034
S214083280E868A9686A68C86022F00303816059E0A4
S214083290620A01D1E2081BE0042A02D8A2093832E1
S2140832A016E0142A01D85B3212E0542A02D8220B00
S2140832B06E320DE0B2F5AA7F02D8E20B773207E04D
S2140832C040F254539A4202D8A20C7C3200E07E2286
S2140832D0854800EBC203DD689D4215D0696821F079
S2140832E00301081B0F2801DD013A0DE0002809DB61
S2140832F0EB68AA68D3609A606B185A6842F00100B7
S214083300586090E1ED68E7E7013277490D6901F109
S2140833100807BD4268D0686820F00303181B0F280A
S2140833200CDD2B194B610B6144F0010440F00101E0
S2140833306C60DF609F605960185074E100284F6128
S2140833400F6101DBEB18D8E7B3F5007F0FD2DB0877
S2140833509810012707FA00F7486807434F6001EB03
S214083360C3018B68E960AB60DD608D603CE0580A9D
S214083370042802D89809383016E0142801D85B309B
S21408338012E0542802D8180B6E300DE0B0F5AA7F6C
S21408339002D8D80B773007E040F25457B84202D824
S2140833A0980C7C3000E07E20DFF83CE10EEBC0078E
S2140833B0B968B9420ED18710012303FA07F0DEF880
S2140833C0047040EA0703CEF80430084608E0896827
S2140833D0B94204D0486820F003008342F7D3C8688F
S2140833E0E860A960CD6085609510012000FA05F3B5
S2140833F03D4F79688B425DD80B4205D122F0030217
S2140834005B0004320B42FBD0374D104605EBC20E6C
S2140834107746FD68BD422DD0696821F0030CC4EBE1
S2140834200C010F2913DD2B1944F00104EA686C60BF
S21408343055F8080F5950C26090602B4A41F00100B9
S214083440536113610832DA609A6058600CE000290C
S2140834500EDB05EB0C004268E96842F001034360A6
S21408346055F8080FC1608860304600F0E8F8DEE0DE
S214083470ED68CFE70130810705F10807C9D1714625
S214083480950705D1184A556825EA0305556005E0ED
S214083490A1F108070968013AB942F1D0124F5B005A
S2140834A07F68BB4206D82BB102463B42ACD10432F9
S2140834B05B00FAE70C4B9F681946786820F003090A
S2140834C0A14504D3C4EB09000F2800F3A280074ADD
S2140834D0D1F808341568013307EB090A04EB050828
S2140834E006D108F110080BE0400407205C09072005
S2140834F008F5805000F10F0121F47F6222F00F08D2
S2140835003046414600F09CF8421C054671D05045AE
S21408351002D2484B9F426CD1474855454168454AB8
S21408352008EB0103436007D1290505D19568C8440F
S21408353048F00100686051E0D2F80804421C03D144
S2140835403C4AC2F8085405E0CAEB050A03EB0A0130
S214083550394B596015F007001CBFC0F108002D183C
S21408356005EB080C00F580514FEA0C5EA1EB1E58DF
S2140835704146304600F064F82F4A431C536808BF9B
S2140835804FF0000808EB030108BF28465160401BAF
S214083590284A00EB080343F00101974295606960EA
S2140835A01CD0B9F10F0F02D801226A6021E07D68AD
S2140835B0A9F10C0929F0070905F00102052107EB16
S2140835C0090349EA0200B9F10F0F7860596099605B
S2140835D004D9304607F10801FFF7B8FC164A5368C5
S2140835E0D16A156B8B4288BFD362AB4284BF124D3B
S2140835F02B6310488268536823F00301A142C4EB8A
S214083600010001D30F2804DC304600F018F8002526
S2140836100DE0084A44F00103956840F001012C19B2
S2140836206B6094606160304600F009F808352846FB
S214083630BDE8F087400407205C09072070477047FC
S21408364038B5064C0023054608462360FDF778FD86
S214083650431C02D1216801B1296038BD9C090720A6
S21408366010B50C46B1F90E1000F0E2F8002803DB9E
S214083670226D1318236510BDA38923F48051A181F8
S21408368010BD002070472DE9F0411D468B890C4679
S21408369003F4807116460AB207462AB1B4F90E102A
S2140836A00022022300F0B2F8A089B4F90E1020F424
S2140836B08053A381384632462B46BDE8F04100F0D9
S2140836C017B810B50C46B1F90E1000F09FF8431C59
S2140836D0A38903D123F48052A28110BD43F48051FC
S2140836E0A181206510BDB1F90E1000F013B80000D6
S2140836F038B5074C054600202060084611461A468D
S214083700FCF7A4FF431C02D1236803B12B6038BD25
S2140837109C09072038B5064C002305460846236052
S214083720FDF726FD431C02D1216801B1296038BD8A
S2140837309C09072070B505460C46002939D0FFF7C6
S2140837409FFB25B1AB6B13B92846FFF735FBB4F9D9
S2140837500C605EB328462146FFF73CFAE26A064646
S2140837603AB12846E169904736EA200628BF4FF066
S214083770FF36A08900F080010BB21BB128462169EC
S214083780FFF7E4FB216B41B104F14002914202D0FD
S2140837902846FFF7DBFB00202063616C21B1284632
S2140837A0FFF7D4FB002161640023A381FFF769FBC0
S2140837B000E00E46304670BD024B01461868FFF71B
S2140837C0B9BF00BF1000072038B5074C00230546D0
S2140837D0084611462360FDF7CFFC431C02D121683A
S2140837E001B1296038BD00BF9C09072038B5064CD2
S2140837F00023054608462360FDF7C4FC431C02D197
S214083800216801B1296038BD9C09072038B5074CE6
S214083810054600202060084611461A46FDF7B6FC05
S214083820431C02D1236803B12B6038BD9C090720CE
S21408383038B5074C054600202060084611461A464B
S214083840FCF7C0FE431C02D1236803B12B6038BDC9
S2140838509C0907200008040C020A060E0109050D3B
S214083860030B070F07000000060000000500000015
S2140838700400000003000000020000000100000031
S214083880000000000A0000000B0000000C0000000A
S2140838900D000000204578706563746564205452F6
S2140838A05545205761732046414C5345000000009B
S2140838B0746573742F746573746D794144432E630D
S2140838C000000000746573745F4144436F6E76654C
S2140838D0727465724973496E697469616C69736557
S2140838E064436F72726563746C79000074657374F0
S2140838F05F436865636B496656616C756549734EC8
S2140839006F745A65726F00004641494C000000000B
S2140839104F4B00004641494C3A0000005041535373
S2140839200000000049474E4F524500002D2D2D2D12
S2140839302D2D2D2D2D2D2D2D2D2D2D2D2D2D2D2DAA
S2140839402D2D2D0020546573747320002046616960
S2140839506C757265732000002049676E6F72656427
S214083960000000004E614E004E656761746976651A
S21408397020496E66696E697479000000496E66694A
S2140839806E697479000000002041637475616C20CC
S214083990706F696E74657220776173204E554C4C53
S2140839A00000000020457870656374656420706FB9
S2140839B0696E74657220746F206265204E554C4C93
S2140839C00000000020596F752041736B6564204D18
S2140839D06520546F20436F6D70617265204E6F745A
S2140839E068696E672C20576869636820576173207A
S2140839F0506F696E746C6573732E00002056616C88
S214083A00756573204E6F742057697468696E204414
S214083A10656C746120000000204D656D6F7279201A
S214083A204D69736D617463682E00000020427974D6
S214083A306520000020456C656D656E7420000000EA
S214083A4020546F20000000002057617320000000FB
S214083A502045787065637465642000002E20000099
S214083A60FF000000FFFF0000FFFF0000FFFFFFFF52
S214083A70FFFFFFFFFFFFFFFFFFFFFFFF1800072006
S214083A8043000000F8B500BFF8BC08BC9E46704767
S214083A90B52B08006D010800F8B500BFF8BC08BCD7
S20C083AA09E4670474501080028
S214083AA800093D00483A0800503A08005C3A080001
S214083AB81800072000000000000000000403072084
S214083AC86C030720D403072000000000000000004D
S214083AD800000000000000000000000000000000D1
S214083AE8000000000000000000000000803A0800FF
S214083AF800000000000000000000000000000000B1
S214083B0800000000000000000000000000000000A0
S214083B180000000000000000000000000000000090
S214083B280000000000000000000000000000000080
S214083B380000000000000000000000000000000070
S214083B480000000000000000000000000000000060
S214083B580000000000000000000000000000000050
S214083B6801000000000000000E33CDAB34126DE6ED
S214083B78ECDE05000B000000000000000000000056
S214083B880000000000000000000000000000000020
S214083B980000000000000000000000000000000010
S214083BA80000000000000000000000000000000000
S214083BB800000000000000000000000000000000F0
S214083EE800000000000000004004072040040720E7
S214083EF848040720480407205004072050040720D1
S214083F085804072058040720600407206004072080
S214083F186804072068040720700407207004072030
S214083F2878040720780407208004072080040720E0
S214083F388804072088040720900407209004072090
S214083F489804072098040720A0040720A004072040
S214083F58A8040720A8040720B0040720B0040720F0
S214083F68B8040720B8040720C0040720C0040720A0
S214083F78C8040720C8040720D0040720D004072050
S214083F88D8040720D8040720E0040720E004072000
S214083F98E8040720E8040720F0040720F0040720B0
S214083FA8F8040720F804072000050720000507205E
S214083FB8080507200805072010050720100507200C
S214083FC818050720180507202005072020050720BC
S214083FD8280507202805072030050720300507206C
S214083FE8380507203805072040050720400507201C
S214083FF848050720480507205005072050050720CC
S214084008580507205805072060050720600507207B
S214084018680507206805072070050720700507202B
S21408402878050720780507208005072080050720DB
S214084038880507208805072090050720900507208B
S2140840489805072098050720A0050720A00507203B
S214084058A8050720A8050720B0050720B0050720EB
S214084068B8050720B8050720C0050720C00507209B
S214084078C8050720C8050720D0050720D00507204B
S214084088D8050720D8050720E0050720E0050720FB
S214084098E8050720E8050720F0050720F0050720AB
S2140840A8F8050720F8050720000607200006072059
S2140840B80806072008060720100607201006072007
S2140840C818060720180607202006072020060720B7
S2140840D82806072028060720300607203006072067
S2140840E83806072038060720400607204006072017
S2140840F848060720480607205006072050060720C7
S2140841085806072058060720600607206006072076
S2140841186806072068060720700607207006072026
S21408412878060720780607208006072080060720D6
S2140841388806072088060720900607209006072086
S2140841489806072098060720A0060720A006072036
S214084158A8060720A8060720B0060720B0060720E6
S214084168B8060720B8060720C0060720C006072096
S214084178C8060720C8060720D0060720D006072046
S214084188D8060720D8060720E0060720E0060720F6
S214084198E8060720E8060720F0060720F0060720A6
S2140841A8F8060720F8060720000707200007072054
S2140841B80807072008070720100707201007072002
S2140841C818070720180707202007072020070720B2
S2140841D82807072028070720300707203007072062
S2140841E83807072038070720400707204007072012
S2140841F848070720480707205007072050070720C2
S2140842085807072058070720600707206007072071
S2140842186807072068070720700707207007072021
S21408422878070720780707208007072080070720D1
S2140842388807072088070720900707209007072081
S2140842489807072098070720A0070720A007072031
S214084258A8070720A8070720B0070720B0070720E1
S214084268B8070720B8070720C0070720C007072091
S214084278C8070720C8070720D0070720D007072041
S214084288D8070720D8070720E0070720E0070720F1
S214084298E8070720E8070720F0070720F0070720A1
S2140842A8F8070720F807072000080720000807204F
S2140842B808080720080807201008072010080720FD
S2140842C818080720180807202008072020080720AD
S2140842D8280807202808072030080720300807205D
S2140842E83808072038080720FFFFFFFF00000200ED
S804080D7D69
