S01500004C616231635F70726F6A6563742E7372656316
S214080000C8240720E90C0800E50C0800E50C0800E1
S214080010E50C0800E50C0800E50C080000000000E8
S214080020000000000000000000000000E50C0800CA
S214080030E50C080000000000E50C0800E50C0800C8
S214080040E50C0800E50C0800E50C0800E50C0800BF
S214080050E50C0800E50C0800E50C0800E50C0800AF
S214080060E50C0800E50C080000000000B10A0800CE
S214080070CD0A0800E90A0800050B08000000000081
S21408008000000000E50C0800E50C0800E50C080078
S214080090E50C0800E50C0800E50C0800E50C08006F
S2140800A0E50C080000000000E50C0800E50C080058
S2140800B0E50C0800E50C0800E50C0800E50C08004F
S2140800C0E50C0800E50C0800E50C0800E50C08003F
S2140800D0E50C0800E50C0800E50C0800E50C08002F
S2140800E0E50C0800E50C0800E50C0800E50C08001F
S2140800F0E50C080008B50548054B191A062900D866
S21408010008BD044A002AFBD09047F9E73C130800CC
S2140801103F1308000000000008B50748074B191AE7
S2140801208A1002EBD273591000D108BD044A002A7F
S214080130FBD09047F9E700BF3C1308003C130800C3
S2140801400000000010B5064C237843B9FFF7D2FF2D
S214080150044810B10448AFF300800121217010BD97
S21408016038040720000000003C13080008B5084BB8
S2140801701BB108480849AFF300800848016811B168
S214080180074A02B19047BDE80840FFF7C5BF00BF61
S214080190000000003C1308003C0407203C1308003D
S2140801A00000000030B44FF0010404604FF0000473
S2140801B0446040F20225C0F82051C0F80441C0F857
S2140801C0144145682B434FEA4202B1FBF2F101F1B4
S2140801D0FF324FEA026143EA11434360204630BCCF
S2140801E0704700BF43684FEA011101F0100213433D
S2140801F043607047436819434FEAC212D3B21943A3
S2140802004160704710B4446822434FEA016101F028
S214080210706422434FEA037303F040510A43426076
S21408022010BC70474FF00203036070474FF001039D
S21408023003FA01F101617047006A704710B44FEA8B
S214080240811143184FF0020444504FF0FF30986273
S214080250196A5A6010BC7047C0F8C410704700BFCF
S2140802604FEA81114FF00503435070474FEA81115A
S2140802704FF002034350704700EB8111086970473E
S21408028010B54FF01B0040F66143C0F208039847CC
S2140802904FF00004C4F2080420464FF000010A4656
S2140802A040F23D23C0F20803984720464FF000016D
S2140802B040F25922C0F20802904720464FF000014B
S2140802C040F26D23C0F20803984710BDF8B50446FF
S2140802D04FF00000C4F208004FF0000140F261231E
S2140802E0C0F2080398474FF02A0707FB04F74FF0B9
S2140802F00004C4F208044FF0000640F27925C0F264
S214080300080520463146A847B842FAD34FF0000001
S214080310C4F208004FF0000140F26D22C0F2080255
S2140803209047F8BD2DE9F04184B007460D4641F2E6
S2140803309823C0F208036C46186859689A68DB6800
S2140803400FC404EB171010F8101C4FEAC1564FEAFA
S21408035001135FFA83F83DB14FF49052C4F20E02CF
S2140803604FF48000106306E04FF49055C4F20E0573
S2140803704FF480046C6306F0F0614FF49054C4F2B6
S2140803800E0421636FEA060606F0F06363634FF413
S214080390001626634FF0010040F2CD25C0F208058E
S2140803A0A84766634FF06400A84707F00F0704AA3B
S2140803B0D01910F8101C4FEAC15308EB0107FFB21A
S2140803C003F0F06222636FEA030000F0F0616163F5
S2140803D026634FF00100A84766634FF06400A847FD
S2140803E0384604B0BDE8F0812DE9F0474FF4905444
S2140803F0C4F20E044FF480072761C4F8A0704FF4C7
S21408040000152561C4F8A0504FF0F0632361C4F8C6
S214080410A030656347F2305040F2CD26C0F2080699
S214080420B04767634FF0806AC4F830A04FF0007991
S214080430C4F830904FF08078C4F834804FF4000742
S214080440676325634FF00100B047656341F2040017
S214080450B047C4F830A0C4F83090C4F83480676356
S21408046025634FF00100B04765634FF06400B0475E
S214080470C4F830A0C4F83090C4F8348067632563A5
S2140804804FF00100B04765634FF06400B047C4F80A
S21408049034A0C4F83090C4F83480676325634FF0FE
S2140804A00100B04765634FF06400B0474FF028007E
S2140804B04FF0000140F22534C0F20804A0474FF080
S2140804C008004FF00001A0474FF001004FF0000170
S2140804D0A04740F6B830B0474FF006004FF000018E
S2140804E0A0474FF00F004FF00001A0474FF0010063
S2140804F0BDE8F08708B54FF001004FF0000140F264
S2140805002533C0F2080398474FF4C86040F2CD215F
S214080510C0F2080188474FF0010008BD70B50446D0
S214080520007858B14FF0010640F22535C0F20805AC
S2140805303146A84714F8010F0028F9D14FF00100FA
S21408054070BD00BF2DE9F84340F29563C0F208037A
S214080550984740F20D70C0F2080080474FF00B0035
S21408056040F66144C0F20804A0474FF00C00A047CC
S2140805704FF00D00A0474FF00E00A04740F2812133
S214080580C0F20801884740F2E932C0F208029047F4
S2140805904FF0000041F2AD05C0F20805A84748B97B
S2140805A041F2A820C0F2080040F21D54C0F2080428
S2140805B0A047FEE741F2B020C0F2080040F21D5600
S2140805C0C0F20806B0474FF00004C4F20C0440F22C
S2140805D02529C0F2080948F2A065C0F2010540F2D4
S2140805E0CD28C0F2080840F2F547C0F2080740F2E6
S2140805F03926C0F208062046C8472846C047B847E6
S2140806002046B047312809D841F2B420C0F2080085
S21408061040F21D51C0F208018847ECE7B0F52F7F7D
S21408062009D241F2BC20C0F2080040F21D53C0F2C5
S21408063008039847DFE740F2DB53984209D841F2AF
S214080640C020C0F2080040F21D52C0F208029047CF
S214080650D1E740F26B71884209D841F2C820C0F24F
S214080660080040F21D51C0F208018847C3E740F66B
S214080670C312904299BF41F2D020C0F2080041F25E
S214080680D820C0F2080040F21D53C0F2080398476D
S214080690B1E700BF10B54FF43D40C0F2015040F638
S2140806A0E973C0F2080398474FF000004FF03E0188
S2140806B040F6C132C0F20802904740F63144C0F214
S2140806C00804A0470028FCD040F64140C0F20800C5
S2140806D080474FF4C061C4F20E0143F60173C2F2BC
S2140806E00D038B6240F65144C0F20804A047002868
S2140806F0FCD04FF0100040F62132C0F208029047B6
S21408070040F62160C0F20800804710BD10B541F6DB
S2140807105023C4F20E034FF400425A604FF00B0009
S21408072040F66144C0F20804A0474FF00C00A0470A
S2140807304FF00D00A0474FF00E00A0474FF03B00CB
S2140807404FF0605140F69504C0F20804A0474FF0F9
S21408075055004FF06051A0474FF056004FF06051DB
S214080760A0474FF068004FF07901C2F60001A04795
S2140807704FF05C004FF00101C2F60001A0474FF4AD
S2140807806060C4F20E004FF440714FF0006240F60D
S2140807909513C0F2080398474FF02B004FF00061FE
S2140807A0A0474FF02A004FF00061A04710BD00BFD9
S2140807B00AB1416670470166704700BF4264B1F1EE
S2140807C0805F16D004D8C9B1B1F1006F15D109E021
S2140807D0B1F1405F12D0B1F1605F0FD0B1F1205F88
S2140807E00BD17047036F016F0B4023EA02030367C0
S2140807F003E0036F42EA030101674260704700BFE7
S21408080041647047F8B504460D4616461F4640F63E
S2140808100103C0F20803984720462946069A40F284
S214080820B173C0F2080398470FB1256500E0656507
S2140808300EB1256300E0656325612560F8BD00BF3D
S21408084070B504460D46164640F60103C0F2080386
S21408085098472046294606F0010240F2B173C0F2D6
S2140808600803984716F00A0F14BF2562656216F04B
S214080870020F02D0C4F8805004E016F0080F18BF24
S214080880C4F880506561256070BD00BFC06C7047B5
S214080890806C7047F0B583B00D464FEA501606F5E3
S2140808A0001101F207724FEA422605F0F044B4F14F
S2140808B0205F42D006D8B4F1006F0AD0B4F1805F4A
S2140808C064D120E0B4F1405F46D0B4F1605F5DD1FA
S2140808D042E000F01F074FF0010404FA07F730461D
S2140808E04FF000613A4640F2BD73C0F208039847DD
S2140808F03046394605EA040240F2B173C0F20803EE
S2140809009847204644E000F01F004FF0010404FA20
S21408091000F730464FF080513A4640F2BD73C0F2B9
S214080920080398473046394605EA040240F2B17390
S214080930C0F20803984720462AE000F01F024FF04E
S2140809400104304604FA02F12A4640F64103C0F292
S2140809500803984720461BE000F01F024FF00104EA
S21408096005F0605305EA04010091304604FA02F1E6
S214080970B3F1605F14BF00220122C5F3800340F67E
S2140809800505C0F20805A847204601E04FF000001C
S21408099003B0F0BDF0B583B007460E46154602F024
S2140809A0F044B4F1205F36D006D8B4F1006F0AD010
S2140809B0B4F1805F4DD11AE0B4F1405F33D0B4F1A2
S2140809C0605F46D12FE04FF00061324640F2BD73BB
S2140809D0C0F2080398473846314605F0010240F24F
S2140809E0B173C0F2080398474FF0010033E04FF0A8
S2140809F08051324640F2BD73C0F208039847384625
S214080A00314605F0010240F2B173C0F20803984778
S214080A104FF001001FE040F64103C0F20803984774
S214080A204FF0010017E005F0605205F00100009055
S214080A3038463146B2F1605F14BF00220122C5F382
S214080A40800340F60504C0F20804A0474FF00100F2
S214080A5001E04FF0000003B0F0BD00BFF8B5044653
S214080A600E4640F68D03C0F2080398470546204612
S214080A7040F69101C0F208018847054014D00B4C97
S214080A80274654F80C0CB0420AD154F8081C2942E0
S214080A9006D022683046904754F8083C25EA0305F5
S214080AA004F11004002DEBD1F8BD00BF6004072048
S214080AB008B54FF46060C4F20E004FF00B0140F624
S214080AC05D23C0F20803984708BD00BF08B54FF479
S214080AD08050C4F20E004FF00C0140F65D23C0F2C1
S214080AE00803984708BD00BF08B54FF49050C4F2F5
S214080AF00E004FF00D0140F65D23C0F2080398473C
S214080B0008BD00BF08B54FF4A050C4F20E004FF061
S214080B100E0140F65D23C0F20803984708BD00BFE3
S214080B204FF4C063C4F20E031A6B22F07001084338
S214080B301863986E10F0080F07D010E000F1FF3326
S214080B40906E10F0080F38D009E04FF400604FF4AC
S214080B50C062C4F20E02916E11F0080FEED04FF488
S214080B60C061C4F20E010A6B22F0030343F00200D0
S214080B700863896E11F0080F09D04FF0000070471F
S214080B8003F1FF33916E11F0080F13D009E04FF40C
S214080B9000634FF4C062C4F20E02906E10F0080FA5
S214080BA0EED04FF0000070474FF0010070474FF04E
S214080BB001007047013BF0D1F9E7581ECBD1F3E7A7
S214080BC088B14FF4C061C4F20E01086A4FF6FC7291
S214080BD0CFF6C86202404FF00203C0F2371342EA6B
S214080BE00300086270474FF4C063C4F20E031A6A23
S214080BF022F45C1020F0030242F45C1040F001027C
S214080C004FEA016142EA114018624FF4C062C4F22A
S214080C100E02936E13F0010FFBD04FF4C061C4F2BE
S214080C200E01086A40F09B7242F480330B627047EC
S214080C304FF4C063C4F20E03986E00F48030704719
S214080C404FF4C063C4F20E034FF000529A62704726
S214080C504FF4C063C4F20E03986E00F002007047AB
S214080C602C2835D81F2817D84FF4C061C4F20E01B7
S214080C708A694FF0010303FA00F31A4093422AD018
S214080C804FF0010101FA00F04FF4C062C4F20E0200
S214080C9010614FF0000070474FF4C063C4F20E03B3
S214080CA0D3F80821A0F120004FF0010101FA00F165
S214080CB00A40914212D04FF0010303FA00F04FF4B5
S214080CC0C062C4F20E02C2F800014FF0000070477E
S214080CD04FF0010070474FF0000070474FF00000DB
S214080CE0704700BFFEE700BF38B540F20003C2F207
S214080CF0070341F23C32C0F208029A4203D0404849
S214080D004049814204D3404B404A9A4225D342E0A8
S214080D103F4D404C631B23F003054FF0000340F2A1
S214080D200002C2F2070241F23C31C0F2080105F1A6
S214080D300400C5F380045D589D5003F10403834204
S214080D4055D1E0E75D589D5003F104035C589C506C
S214080D5003F104038342F5D1D5E72F4D2F49481BED
S214080D6020F0030440F23843C2F20703E2184FF0BB
S214080D700001501BA0F10400C0F3800445F8041FCE
S214080D8095422DD107E005F10403696005F10805D1
S214080D9059609542F7D140F20005C0F2080525F0E3
S214080DA0604222F07F014FF46D40CEF20000816071
S214080DB005F16044B4F5801F07D24FF46D43CEF2B8
S214080DC000039D6845F000529A6041F22D21C0F25A
S214080DD00801884740F24550C0F208008047FEE701
S214080DE0002CD0D045F8041F9542CCD1D3E7002C70
S214080DF0A8D05C589C5003F104038342A2D182E732
S214080E003804072000000720C404072038040720F9
S214080E10040007203B04072034040720BF040720EB
S214080E204FF4C063C4F20E03186B00F003010329E5
S214080E3000F2B180DFE801F002144F4F41F61020AF
S214080E40C4F20E00416911F0800F40F20003C2F2AE
S214080E50070314BF4FF400424FF4FA421A609AE0B0
S214080E604FF4C063C4F20E03186A10F0807F09D0EE
S214080E704FF4D853C0F2B70340F20002C2F207029A
S214080E80136088E04FF41061C0F23D0140F20002A2
S214080E90C2F2070211604FF4C063C4F20E03186A68
S214080EA000F07001102902D0202974D109E04FF40F
S214080EB09050C0F27A0040F20001C2F207010860C2
S214080EC069E04FF4D853C0F2B70340F20002C2F20A
S214080ED0070213605FE04FF4C062C4F20E02136AA2
S214080EE013F0807F09D04FF4D851C0F2B70140F212
S214080EF00002C2F20702116027E04FF41060C0F249
S214080F003D0040F20001C2F2070108604FF4C062DB
S214080F10C4F20E02136A03F07000102802D02028CC
S214080F2013D109E04FF49053C0F27A0340F2000060
S214080F30C2F20700036008E04FF4D851C0F2B701C8
S214080F4040F20002C2F2070211604FF4C063C4F216
S214080F500E03186B00F00301022913D14FF4C06189
S214080F60C4F20E01886A896A40F20003C2F20703D7
S214080F70C0F30A401A6800FB0220C9B2B0FBF1F2BF
S214080F801A6008E04FF4E053C0F64E6340F20002E1
S214080F90C2F2070213604FF4C062C4F20E02106B6E
S214080FA000F0700170290ED140F20003C2F2070368
S214080FB018684AF6AB22CAF6AA22A2FB00014FEA34
S214080FC05100186070474FF4C063C4F20E031A6BE2
S214080FD040F20000C2F20700C2F30211036823FAC7
S214080FE001F30360704700BF4EF6BF23C0F221131B
S214080FF098420CD84FF42063C4F20E034FF000005A
S21408100018604FF44061C4F20E01086070474FF252
S2140810107F01C0F2FA2188420CD84FF42060C4F24F
S2140810200E004FF4807101604FF44062C4F20E0265
S2140810301160704748F6FF73C0F2D03398420CD858
S2140810404FF42061C4F20E014FF400720A604FF4A8
S2140810504063C4F20E031A6070474BF2FF31C0F2C9
S214081060C44188420CD84FF42063C4F20E034FF4F0
S21408107040721A604FF44060C4F20E000260704777
S21408108044F67F23C0F25D5398424FF42060C4F2C2
S2140810900E0094BF4FF480624FF4A06202604FF4D3
S2140810A04061C4F20E010A60704700BF70B58CB08C
S2140810B006466C4641F2E025C0F208050FCD0FC47F
S2140810C00FCD0FC495E80F0084E80F004FF02500F9
S2140810D040F66143C0F20803984700283ED14FF017
S2140810E00004C4F20C0420464FF4F441C0F6032171
S2140810F049F68072C0F2D5024FF0080340F2A515F3
S214081100C0F20805A84720464FF000014FF44012E9
S2140811104FF0010340F20525C0F20805A84720460F
S2140811204FF0000140F2E512C0F2080290470CA802
S21408113000EB8606204616F8301C40F22D23C0F237
S2140811400803984720464FF000010A4640F2F51378
S214081150C0F2080398474FF0010001E04FF0000086
S2140811600CB070BD2DE9F8439846234B06461C681C
S2140811700F46D4F84801914618B904F5A670C4F885
S214081180480141681F2916DD1C4818B94FF0FF3082
S214081190BDE8F8834FF4C870AFF300800028F5D098
S2140811A0D4F84821002545600260C4F84801C0F814
S2140811B08851C0F88C51B6B14468012202FA04F28C
S2140811C0D0F8881100EB84031143022EC3F88890E8
S2140811D0C0F888111C46C3F8088104D1D0F88C31B1
S2140811E01A43C0F88C2141688B1C4A1C40F82370AF
S2140811F042600020BDE8F8831013080000000000D5
S21408120070B5084B084C0025E01A841003EB8406DA
S214081210043D1CB172599047013CF9E7BDE870409F
S21408122000F084B8381308003C13080038B50E4D93
S2140812300E4B0024E81A8510AC4205D00B4951F82D
S214081240242090470134F7E700F066F80849094A71
S214081250541AA5100024AC4205D0054B53F82400B8
S21408126080470134F7E738BD241308002413080024
S214081270241308002C130800024B13B1024800F090
S21408128005B870470000000001120800014600205B
S21408129002460346FFF766BF0008040C020A060E5D
S2140812A00109050D030B070F4552524F5200000067
S2140812B04F4B000072696768740000007570000084
S2140812C0646F776E000000006C65667400000000AE
S2140812D073656C65637400006E6F6E6500000000D1
S2140812E007000000060000000500000004000000DB
S2140812F003000000020000000100000000000000DB
S2140813000A0000000B0000000C0000000D000000A2
S2140813101000072043000000F8B500BFF8BC08BC62
S2140813209E467047791208006D010800F8B500BFA0
S210081330F8BC08BC9E4670474501080043
S21408133C00093D0000000000100007200000000017
S21408134C00000000FC02072064030720CC030720DB
S21408135C0000000000000000000000000000000074
S21408136C0000000000000000000000000000000064
S21408137C0000000014130800000000000000000025
S21408138C0000000000000000000000000000000044
S21408139C0000000000000000000000000000000034
S2140813AC0000000000000000000000000000000024
S2140813BC0000000000000000000000000000000014
S2140813CC0000000000000000000000000000000004
S2140813DC00000000000000000000000000000000F4
S2140813EC00000000000000000100000000000000E3
S2140813FC0E33CDAB34126DE6ECDE05000B000000A8
S21408140C00000000000000000000000000000000C3
S21408141C00000000000000000000000000000000B3
S21408142C00000000000000000000000000000000A3
S21408143C0000000000000000000000000000000093
S804080CE9FE
